{"contracts/VerifiedCredentialRegistry.sol":{"VerifiedCredentialRegistry":{"abi":[{"anonymous":false,"inputs":[{"indexed":true,"internalType":"address","name":"previousOwner","type":"address"},{"indexed":true,"internalType":"address","name":"newOwner","type":"address"}],"name":"OwnershipTransferred","type":"event"},{"anonymous":false,"inputs":[{"indexed":false,"internalType":"bytes32","name":"uuid","type":"bytes32"}],"name":"VerificationRemoved","type":"event"},{"anonymous":false,"inputs":[{"components":[{"internalType":"bytes32","name":"uuid","type":"bytes32"},{"internalType":"address","name":"verifier","type":"address"},{"internalType":"address","name":"subject","type":"address"},{"internalType":"uint256","name":"entryTime","type":"uint256"},{"internalType":"uint256","name":"expirationTime","type":"uint256"},{"internalType":"bool","name":"revoked","type":"bool"}],"indexed":false,"internalType":"struct VerificationRecord","name":"verificationRecord","type":"tuple"}],"name":"VerificationResultConfirmed","type":"event"},{"anonymous":false,"inputs":[{"indexed":false,"internalType":"bytes32","name":"uuid","type":"bytes32"}],"name":"VerificationRevoked","type":"event"},{"inputs":[{"internalType":"address","name":"nftaddress","type":"address"},{"internalType":"address","name":"subject","type":"address"},{"internalType":"uint256","name":"tokenID","type":"uint256"}],"name":"balanceOf","outputs":[{"internalType":"bool","name":"","type":"bool"}],"stateMutability":"view","type":"function"},{"inputs":[{"internalType":"bytes32","name":"uuid","type":"bytes32"}],"name":"getVerification","outputs":[{"components":[{"internalType":"bytes32","name":"uuid","type":"bytes32"},{"internalType":"address","name":"verifier","type":"address"},{"internalType":"address","name":"subject","type":"address"},{"internalType":"uint256","name":"entryTime","type":"uint256"},{"internalType":"uint256","name":"expirationTime","type":"uint256"},{"internalType":"bool","name":"revoked","type":"bool"}],"internalType":"struct VerificationRecord","name":"","type":"tuple"}],"stateMutability":"view","type":"function"},{"inputs":[],"name":"getVerificationCount","outputs":[{"internalType":"uint256","name":"","type":"uint256"}],"stateMutability":"view","type":"function"},{"inputs":[{"internalType":"address","name":"subject","type":"address"}],"name":"getVerificationsForSubject","outputs":[{"components":[{"internalType":"bytes32","name":"uuid","type":"bytes32"},{"internalType":"address","name":"verifier","type":"address"},{"internalType":"address","name":"subject","type":"address"},{"internalType":"uint256","name":"entryTime","type":"uint256"},{"internalType":"uint256","name":"expirationTime","type":"uint256"},{"internalType":"bool","name":"revoked","type":"bool"}],"internalType":"struct VerificationRecord[]","name":"","type":"tuple[]"}],"stateMutability":"view","type":"function"},{"inputs":[{"internalType":"address","name":"verifier","type":"address"}],"name":"getVerificationsForVerifier","outputs":[{"components":[{"internalType":"bytes32","name":"uuid","type":"bytes32"},{"internalType":"address","name":"verifier","type":"address"},{"internalType":"address","name":"subject","type":"address"},{"internalType":"uint256","name":"entryTime","type":"uint256"},{"internalType":"uint256","name":"expirationTime","type":"uint256"},{"internalType":"bool","name":"revoked","type":"bool"}],"internalType":"struct VerificationRecord[]","name":"","type":"tuple[]"}],"stateMutability":"view","type":"function"},{"inputs":[],"name":"owner","outputs":[{"internalType":"address","name":"","type":"address"}],"stateMutability":"view","type":"function"},{"inputs":[{"components":[{"internalType":"string","name":"schema","type":"string"},{"internalType":"address","name":"subject","type":"address"},{"internalType":"uint256","name":"expiration","type":"uint256"}],"internalType":"struct VerificationResult","name":"verificationResult","type":"tuple"},{"internalType":"bytes","name":"signature","type":"bytes"}],"name":"registerVerification","outputs":[{"components":[{"internalType":"bytes32","name":"uuid","type":"bytes32"},{"internalType":"address","name":"verifier","type":"address"},{"internalType":"address","name":"subject","type":"address"},{"internalType":"uint256","name":"entryTime","type":"uint256"},{"internalType":"uint256","name":"expirationTime","type":"uint256"},{"internalType":"bool","name":"revoked","type":"bool"}],"internalType":"struct VerificationRecord","name":"","type":"tuple"}],"stateMutability":"nonpayable","type":"function"},{"inputs":[{"internalType":"bytes32","name":"uuid","type":"bytes32"}],"name":"removeVerification","outputs":[],"stateMutability":"nonpayable","type":"function"},{"inputs":[],"name":"renounceOwnership","outputs":[],"stateMutability":"nonpayable","type":"function"},{"inputs":[{"internalType":"bytes32","name":"uuid","type":"bytes32"}],"name":"revokeVerification","outputs":[],"stateMutability":"nonpayable","type":"function"},{"inputs":[{"internalType":"address","name":"_verifierRegistryAddress","type":"address"}],"name":"setVerifierRegistry","outputs":[],"stateMutability":"nonpayable","type":"function"},{"inputs":[{"internalType":"address","name":"newOwner","type":"address"}],"name":"transferOwnership","outputs":[],"stateMutability":"nonpayable","type":"function"}],"evm":{"bytecode":{"linkReferences":{},"object":"6101406040523480156200001257600080fd5b506040518060400160405280601a81526020017f566572696669656443726564656e7469616c52656769737472790000000000008152506040518060400160405280600381526020017f312e3000000000000000000000000000000000000000000000000000000000008152506200009f620000936200015a60201b60201c565b6200016260201b60201c565b60008280519060200120905060008280519060200120905060007f8b73c3c69bb8fe3d512ecc4cf759cc79239f7b179b0ffacaa9a75d522b39400f90508260e081815250508161010081815250504660a08181525050620001088184846200022660201b60201c565b608081815250503073ffffffffffffffffffffffffffffffffffffffff1660c08173ffffffffffffffffffffffffffffffffffffffff1660601b8152505080610120818152505050505050506200033a565b600033905090565b60008060009054906101000a900473ffffffffffffffffffffffffffffffffffffffff169050816000806101000a81548173ffffffffffffffffffffffffffffffffffffffff021916908373ffffffffffffffffffffffffffffffffffffffff1602179055508173ffffffffffffffffffffffffffffffffffffffff168173ffffffffffffffffffffffffffffffffffffffff167f8be0079c531659141344cd1fd0a4f28419497f9722a3daafe3b4186f6b6457e060405160405180910390a35050565b600083838346306040516020016200024395949392919062000295565b6040516020818303038152906040528051906020012090509392505050565b6200026d81620002f2565b82525050565b6200027e8162000306565b82525050565b6200028f8162000330565b82525050565b600060a082019050620002ac600083018862000273565b620002bb602083018762000273565b620002ca604083018662000273565b620002d9606083018562000284565b620002e8608083018462000262565b9695505050505050565b6000620002ff8262000310565b9050919050565b6000819050919050565b600073ffffffffffffffffffffffffffffffffffffffff82169050919050565b6000819050919050565b60805160a05160c05160601c60e0516101005161012051612f976200038d60003960006118b2015260006118f4015260006118d3015260006118080152600061185e015260006118870152612f976000f3fe608060405234801561001057600080fd5b50600436106100b45760003560e01c80638da5cb5b116100715780638da5cb5b1461016557806394ef244014610183578063958c39ff146101b3578063e93119d9146101e3578063ed2ffd2814610213578063f2fde38b14610243576100b4565b80630e9e848f146100b95780631f05b374146100e95780634e4de26d146101075780636e485c171461012357806370eba1241461013f578063715018a61461015b575b600080fd5b6100d360048036038101906100ce9190612068565b61025f565b6040516100e091906126a6565b60405180910390f35b6100f1610599565b6040516100fe9190612956565b60405180910390f35b610121600480360381019061011c9190612132565b6105a3565b005b61013d60048036038101906101389190612068565b6107fb565b005b61015960048036038101906101549190612132565b610847565b005b610163610a3e565b005b61016d610a52565b60405161017a9190612662565b60405180910390f35b61019d60048036038101906101989190612132565b610a7b565b6040516101aa919061293b565b60405180910390f35b6101cd60048036038101906101c8919061215b565b610b8d565b6040516101da919061293b565b60405180910390f35b6101fd60048036038101906101f891906120ba565b610ce0565b60405161020a91906126c8565b60405180910390f35b61022d60048036038101906102289190612068565b610dfe565b60405161023a91906126a6565b60405180910390f35b61025d60048036038101906102589190612068565b611138565b005b6060600073ffffffffffffffffffffffffffffffffffffffff168273ffffffffffffffffffffffffffffffffffffffff1614156102d1576040517f08c379a00000000000000000000000000000000000000000000000000000000081526004016102c89061281b565b60405180910390fd5b6000600460008473ffffffffffffffffffffffffffffffffffffffff1673ffffffffffffffffffffffffffffffffffffffff16815260200190815260200160002080548060200260200160405190810160405280929190818152602001828054801561035c57602002820191906000526020600020905b815481526020019060010190808311610348575b505050505090506000815167ffffffffffffffff8111156103a6577f4e487b7100000000000000000000000000000000000000000000000000000000600052604160045260246000fd5b6040519080825280602002602001820160405280156103df57816020015b6103cc611e3b565b8152602001906001900390816103c45790505b50905060005b825181101561058e5760006002600085848151811061042d577f4e487b7100000000000000000000000000000000000000000000000000000000600052603260045260246000fd5b602002602001015181526020019081526020016000206040518060c0016040529081600082015481526020016001820160009054906101000a900473ffffffffffffffffffffffffffffffffffffffff1673ffffffffffffffffffffffffffffffffffffffff1673ffffffffffffffffffffffffffffffffffffffff1681526020016002820160009054906101000a900473ffffffffffffffffffffffffffffffffffffffff1673ffffffffffffffffffffffffffffffffffffffff1673ffffffffffffffffffffffffffffffffffffffff16815260200160038201548152602001600482015481526020016005820160009054906101000a900460ff16151515158152505090508083838151811061056f577f4e487b7100000000000000000000000000000000000000000000000000000000600052603260045260246000fd5b602002602001018190525050808061058690612aec565b9150506103e5565b508092505050919050565b6000600554905090565b600160009054906101000a900473ffffffffffffffffffffffffffffffffffffffff1673ffffffffffffffffffffffffffffffffffffffff166333105218336040518263ffffffff1660e01b81526004016105fe9190612662565b60206040518083038186803b15801561061657600080fd5b505afa15801561062a573d6000803e3d6000fd5b505050506040513d601f19601f8201168201806040525081019061064e9190612109565b61068d576040517f08c379a00000000000000000000000000000000000000000000000000000000081526004016106849061291b565b60405180910390fd5b3373ffffffffffffffffffffffffffffffffffffffff166002600083815260200190815260200160002060010160009054906101000a900473ffffffffffffffffffffffffffffffffffffffff1673ffffffffffffffffffffffffffffffffffffffff1614610731576040517f08c379a00000000000000000000000000000000000000000000000000000000081526004016107289061289b565b60405180910390fd5b600260008281526020019081526020016000206000808201600090556001820160006101000a81549073ffffffffffffffffffffffffffffffffffffffff02191690556002820160006101000a81549073ffffffffffffffffffffffffffffffffffffffff0219169055600382016000905560048201600090556005820160006101000a81549060ff021916905550507f9abf56d49e4ef717f3418600d3ed66048ca2ed8e3e630a70b76a71dd2142def5816040516107f091906126e3565b60405180910390a150565b6108036111bc565b80600160006101000a81548173ffffffffffffffffffffffffffffffffffffffff021916908373ffffffffffffffffffffffffffffffffffffffff16021790555050565b600160009054906101000a900473ffffffffffffffffffffffffffffffffffffffff1673ffffffffffffffffffffffffffffffffffffffff166333105218336040518263ffffffff1660e01b81526004016108a29190612662565b60206040518083038186803b1580156108ba57600080fd5b505afa1580156108ce573d6000803e3d6000fd5b505050506040513d601f19601f820116820180604052508101906108f29190612109565b610931576040517f08c379a00000000000000000000000000000000000000000000000000000000081526004016109289061291b565b60405180910390fd5b3373ffffffffffffffffffffffffffffffffffffffff166002600083815260200190815260200160002060010160009054906101000a900473ffffffffffffffffffffffffffffffffffffffff1673ffffffffffffffffffffffffffffffffffffffff16146109d5576040517f08c379a00000000000000000000000000000000000000000000000000000000081526004016109cc906128db565b60405180910390fd5b60016002600083815260200190815260200160002060050160006101000a81548160ff0219169083151502179055507f071ad1bb208a373a52e72fe5d8aa7755d658f88e197e666bf1a6d09d0ddb505681604051610a3391906126e3565b60405180910390a150565b610a466111bc565b610a50600061123a565b565b60008060009054906101000a900473ffffffffffffffffffffffffffffffffffffffff16905090565b610a83611e3b565b600260008381526020019081526020016000206040518060c0016040529081600082015481526020016001820160009054906101000a900473ffffffffffffffffffffffffffffffffffffffff1673ffffffffffffffffffffffffffffffffffffffff1673ffffffffffffffffffffffffffffffffffffffff1681526020016002820160009054906101000a900473ffffffffffffffffffffffffffffffffffffffff1673ffffffffffffffffffffffffffffffffffffffff1673ffffffffffffffffffffffffffffffffffffffff16815260200160038201548152602001600482015481526020016005820160009054906101000a900460ff1615151515815250509050919050565b610b95611e3b565b600160009054906101000a900473ffffffffffffffffffffffffffffffffffffffff1673ffffffffffffffffffffffffffffffffffffffff166333105218336040518263ffffffff1660e01b8152600401610bf09190612662565b60206040518083038186803b158015610c0857600080fd5b505afa158015610c1c573d6000803e3d6000fd5b505050506040513d601f19601f82011682018060405250810190610c409190612109565b610c7f576040517f08c379a0000000000000000000000000000000000000000000000000000000008152600401610c769061291b565b60405180910390fd5b610c88836112fe565b6000610c948484611301565b9050610c9f81611593565b7fb13e5e7efcce7bbc67740f0fe050563d4fd1f5cc7096c3a32cb901711c95ab5481604051610cce919061293b565b60405180910390a18091505092915050565b60008073ffffffffffffffffffffffffffffffffffffffff168373ffffffffffffffffffffffffffffffffffffffff161415610d51576040517f08c379a0000000000000000000000000000000000000000000000000000000008152600401610d489061281b565b60405180910390fd5b60008473ffffffffffffffffffffffffffffffffffffffff1662fdd58e85856040518363ffffffff1660e01b8152600401610d8d92919061267d565b60206040518083038186803b158015610da557600080fd5b505afa158015610db9573d6000803e3d6000fd5b505050506040513d601f19601f82011682018060405250810190610ddd91906121c7565b905060008114610df1576001915050610df7565b60009150505b9392505050565b6060600073ffffffffffffffffffffffffffffffffffffffff168273ffffffffffffffffffffffffffffffffffffffff161415610e70576040517f08c379a0000000000000000000000000000000000000000000000000000000008152600401610e679061281b565b60405180910390fd5b6000600360008473ffffffffffffffffffffffffffffffffffffffff1673ffffffffffffffffffffffffffffffffffffffff168152602001908152602001600020805480602002602001604051908101604052809291908181526020018280548015610efb57602002820191906000526020600020905b815481526020019060010190808311610ee7575b505050505090506000815167ffffffffffffffff811115610f45577f4e487b7100000000000000000000000000000000000000000000000000000000600052604160045260246000fd5b604051908082528060200260200182016040528015610f7e57816020015b610f6b611e3b565b815260200190600190039081610f635790505b50905060005b825181101561112d57600060026000858481518110610fcc577f4e487b7100000000000000000000000000000000000000000000000000000000600052603260045260246000fd5b602002602001015181526020019081526020016000206040518060c0016040529081600082015481526020016001820160009054906101000a900473ffffffffffffffffffffffffffffffffffffffff1673ffffffffffffffffffffffffffffffffffffffff1673ffffffffffffffffffffffffffffffffffffffff1681526020016002820160009054906101000a900473ffffffffffffffffffffffffffffffffffffffff1673ffffffffffffffffffffffffffffffffffffffff1673ffffffffffffffffffffffffffffffffffffffff16815260200160038201548152602001600482015481526020016005820160009054906101000a900460ff16151515158152505090508083838151811061110e577f4e487b7100000000000000000000000000000000000000000000000000000000600052603260045260246000fd5b602002602001018190525050808061112590612aec565b915050610f84565b508092505050919050565b6111406111bc565b600073ffffffffffffffffffffffffffffffffffffffff168173ffffffffffffffffffffffffffffffffffffffff1614156111b0576040517f08c379a00000000000000000000000000000000000000000000000000000000081526004016111a79061283b565b60405180910390fd5b6111b98161123a565b50565b6111c4611771565b73ffffffffffffffffffffffffffffffffffffffff166111e2610a52565b73ffffffffffffffffffffffffffffffffffffffff1614611238576040517f08c379a000000000000000000000000000000000000000000000000000000000815260040161122f906128fb565b60405180910390fd5b565b60008060009054906101000a900473ffffffffffffffffffffffffffffffffffffffff169050816000806101000a81548173ffffffffffffffffffffffffffffffffffffffff021916908373ffffffffffffffffffffffffffffffffffffffff1602179055508173ffffffffffffffffffffffffffffffffffffffff168173ffffffffffffffffffffffffffffffffffffffff167f8be0079c531659141344cd1fd0a4f28419497f9722a3daafe3b4186f6b6457e060405160405180910390a35050565b50565b611309611e3b565b60006113737f10f37c780798f8d6ccc5deba550b287b1ccef3a50b9007536dc9ce57c6f066838560000151805190602001208660200151876040015160405160200161135894939291906126fe565b60405160208183030381529060405280519060200120611779565b905060006113818285611793565b90506000600160009054906101000a900473ffffffffffffffffffffffffffffffffffffffff1673ffffffffffffffffffffffffffffffffffffffff166358cfb5ff836040518263ffffffff1660e01b81526004016113e09190612662565b60206040518083038186803b1580156113f857600080fd5b505afa15801561140c573d6000803e3d6000fd5b505050506040513d601f19601f820116820180604052508101906114309190612091565b9050600160009054906101000a900473ffffffffffffffffffffffffffffffffffffffff1673ffffffffffffffffffffffffffffffffffffffff166301aedd94836040518263ffffffff1660e01b815260040161148d9190612662565b60006040518083038186803b1580156114a557600080fd5b505afa1580156114b9573d6000803e3d6000fd5b5050505042866040015111611503576040517f08c379a00000000000000000000000000000000000000000000000000000000081526004016114fa9061287b565b60405180910390fd5b60006040518060c001604052806000801b81526020018373ffffffffffffffffffffffffffffffffffffffff168152602001886020015173ffffffffffffffffffffffffffffffffffffffff168152602001428152602001886040015181526020016000151581525090506000611579826117ba565b905080826000018181525050819550505050505092915050565b600560008154809291906115a690612aec565b91905055508060026000836000015181526020019081526020016000206000820151816000015560208201518160010160006101000a81548173ffffffffffffffffffffffffffffffffffffffff021916908373ffffffffffffffffffffffffffffffffffffffff16021790555060408201518160020160006101000a81548173ffffffffffffffffffffffffffffffffffffffff021916908373ffffffffffffffffffffffffffffffffffffffff160217905550606082015181600301556080820151816004015560a08201518160050160006101000a81548160ff02191690831515021790555090505060036000826040015173ffffffffffffffffffffffffffffffffffffffff1673ffffffffffffffffffffffffffffffffffffffff1681526020019081526020016000208160000151908060018154018082558091505060019003906000526020600020016000909190919091505560046000826020015173ffffffffffffffffffffffffffffffffffffffff1673ffffffffffffffffffffffffffffffffffffffff1681526020019081526020016000208160000151908060018154018082558091505060019003906000526020600020016000909190919091505550565b600033905090565b600061178c611786611804565b8361191e565b9050919050565b60008060006117a28585611951565b915091506117af816119a3565b819250505092915050565b600081602001518260400151836060015184608001516005546040516020016117e79594939291906125cc565b604051602081830303815290604052805190602001209050919050565b60007f000000000000000000000000000000000000000000000000000000000000000073ffffffffffffffffffffffffffffffffffffffff163073ffffffffffffffffffffffffffffffffffffffff1614801561188057507f000000000000000000000000000000000000000000000000000000000000000046145b156118ad577f0000000000000000000000000000000000000000000000000000000000000000905061191b565b6119187f00000000000000000000000000000000000000000000000000000000000000007f00000000000000000000000000000000000000000000000000000000000000007f0000000000000000000000000000000000000000000000000000000000000000611cf4565b90505b90565b6000828260405160200161193392919061262b565b60405160208183030381529060405280519060200120905092915050565b6000806041835114156119935760008060006020860151925060408601519150606086015160001a905061198787828585611d2e565b9450945050505061199c565b60006002915091505b9250929050565b600060048111156119dd577f4e487b7100000000000000000000000000000000000000000000000000000000600052602160045260246000fd5b816004811115611a16577f4e487b7100000000000000000000000000000000000000000000000000000000600052602160045260246000fd5b1415611a2157611cf1565b60016004811115611a5b577f4e487b7100000000000000000000000000000000000000000000000000000000600052602160045260246000fd5b816004811115611a94577f4e487b7100000000000000000000000000000000000000000000000000000000600052602160045260246000fd5b1415611ad5576040517f08c379a0000000000000000000000000000000000000000000000000000000008152600401611acc906127db565b60405180910390fd5b60026004811115611b0f577f4e487b7100000000000000000000000000000000000000000000000000000000600052602160045260246000fd5b816004811115611b48577f4e487b7100000000000000000000000000000000000000000000000000000000600052602160045260246000fd5b1415611b89576040517f08c379a0000000000000000000000000000000000000000000000000000000008152600401611b80906127fb565b60405180910390fd5b60036004811115611bc3577f4e487b7100000000000000000000000000000000000000000000000000000000600052602160045260246000fd5b816004811115611bfc577f4e487b7100000000000000000000000000000000000000000000000000000000600052602160045260246000fd5b1415611c3d576040517f08c379a0000000000000000000000000000000000000000000000000000000008152600401611c349061285b565b60405180910390fd5b600480811115611c76577f4e487b7100000000000000000000000000000000000000000000000000000000600052602160045260246000fd5b816004811115611caf577f4e487b7100000000000000000000000000000000000000000000000000000000600052602160045260246000fd5b1415611cf0576040517f08c379a0000000000000000000000000000000000000000000000000000000008152600401611ce7906128bb565b60405180910390fd5b5b50565b60008383834630604051602001611d0f959493929190612743565b6040516020818303038152906040528051906020012090509392505050565b6000807f7fffffffffffffffffffffffffffffff5d576e7357a4501ddfe92f46681b20a08360001c1115611d69576000600391509150611e32565b601b8560ff1614158015611d815750601c8560ff1614155b15611d93576000600491509150611e32565b600060018787878760405160008152602001604052604051611db89493929190612796565b6020604051602081039080840390855afa158015611dda573d6000803e3d6000fd5b505050602060405103519050600073ffffffffffffffffffffffffffffffffffffffff168173ffffffffffffffffffffffffffffffffffffffff161415611e2957600060019250925050611e32565b80600092509250505b94509492505050565b6040518060c0016040528060008019168152602001600073ffffffffffffffffffffffffffffffffffffffff168152602001600073ffffffffffffffffffffffffffffffffffffffff16815260200160008152602001600081526020016000151581525090565b6000611eb5611eb084612996565b612971565b905082815260208101848484011115611ecd57600080fd5b611ed8848285612aac565b509392505050565b6000611ef3611eee846129c7565b612971565b905082815260208101848484011115611f0b57600080fd5b611f16848285612aac565b509392505050565b600081359050611f2d81612f05565b92915050565b600081519050611f4281612f05565b92915050565b600081519050611f5781612f1c565b92915050565b600081359050611f6c81612f33565b92915050565b600082601f830112611f8357600080fd5b8135611f93848260208601611ea2565b91505092915050565b600082601f830112611fad57600080fd5b8135611fbd848260208601611ee0565b91505092915050565b600060608284031215611fd857600080fd5b611fe26060612971565b9050600082013567ffffffffffffffff811115611ffe57600080fd5b61200a84828501611f9c565b600083015250602061201e84828501611f1e565b60208301525060406120328482850161203e565b60408301525092915050565b60008135905061204d81612f4a565b92915050565b60008151905061206281612f4a565b92915050565b60006020828403121561207a57600080fd5b600061208884828501611f1e565b91505092915050565b6000602082840312156120a357600080fd5b60006120b184828501611f33565b91505092915050565b6000806000606084860312156120cf57600080fd5b60006120dd86828701611f1e565b93505060206120ee86828701611f1e565b92505060406120ff8682870161203e565b9150509250925092565b60006020828403121561211b57600080fd5b600061212984828501611f48565b91505092915050565b60006020828403121561214457600080fd5b600061215284828501611f5d565b91505092915050565b6000806040838503121561216e57600080fd5b600083013567ffffffffffffffff81111561218857600080fd5b61219485828601611fc6565b925050602083013567ffffffffffffffff8111156121b157600080fd5b6121bd85828601611f72565b9150509250929050565b6000602082840312156121d957600080fd5b60006121e784828501612053565b91505092915050565b60006121fc8383612492565b60c08301905092915050565b61221181612a4d565b82525050565b61222081612a4d565b82525050565b61223761223282612a4d565b612b35565b82525050565b600061224882612a08565b6122528185612a20565b935061225d836129f8565b8060005b8381101561228e57815161227588826121f0565b975061228083612a13565b925050600181019050612261565b5085935050505092915050565b6122a481612a5f565b82525050565b6122b381612a5f565b82525050565b6122c281612a6b565b82525050565b6122d181612a6b565b82525050565b6122e86122e382612a6b565b612b47565b82525050565b60006122fb601883612a31565b915061230682612be9565b602082019050919050565b600061231e601f83612a31565b915061232982612c12565b602082019050919050565b6000612341602b83612a31565b915061234c82612c3b565b604082019050919050565b6000612364602683612a31565b915061236f82612c8a565b604082019050919050565b6000612387600283612a42565b915061239282612cd9565b600282019050919050565b60006123aa602283612a31565b91506123b582612d02565b604082019050919050565b60006123cd603d83612a31565b91506123d882612d51565b604082019050919050565b60006123f0604f83612a31565b91506123fb82612da0565b606082019050919050565b6000612413602283612a31565b915061241e82612e15565b604082019050919050565b6000612436603f83612a31565b915061244182612e64565b604082019050919050565b6000612459602083612a31565b915061246482612eb3565b602082019050919050565b600061247c600e83612a31565b915061248782612edc565b602082019050919050565b60c0820160008201516124a860008501826122b9565b5060208201516124bb6020850182612208565b5060408201516124ce6040850182612208565b5060608201516124e16060850182612588565b5060808201516124f46080850182612588565b5060a082015161250760a085018261229b565b50505050565b60c08201600082015161252360008501826122b9565b5060208201516125366020850182612208565b5060408201516125496040850182612208565b50606082015161255c6060850182612588565b50608082015161256f6080850182612588565b5060a082015161258260a085018261229b565b50505050565b61259181612a95565b82525050565b6125a081612a95565b82525050565b6125b76125b282612a95565b612b63565b82525050565b6125c681612a9f565b82525050565b60006125d88288612226565b6014820191506125e88287612226565b6014820191506125f882866125a6565b60208201915061260882856125a6565b60208201915061261882846125a6565b6020820191508190509695505050505050565b60006126368261237a565b915061264282856122d7565b60208201915061265282846122d7565b6020820191508190509392505050565b60006020820190506126776000830184612217565b92915050565b60006040820190506126926000830185612217565b61269f6020830184612597565b9392505050565b600060208201905081810360008301526126c0818461223d565b905092915050565b60006020820190506126dd60008301846122aa565b92915050565b60006020820190506126f860008301846122c8565b92915050565b600060808201905061271360008301876122c8565b61272060208301866122c8565b61272d6040830185612217565b61273a6060830184612597565b95945050505050565b600060a08201905061275860008301886122c8565b61276560208301876122c8565b61277260408301866122c8565b61277f6060830185612597565b61278c6080830184612217565b9695505050505050565b60006080820190506127ab60008301876122c8565b6127b860208301866125bd565b6127c560408301856122c8565b6127d260608301846122c8565b95945050505050565b600060208201905081810360008301526127f4816122ee565b9050919050565b6000602082019050818103600083015261281481612311565b9050919050565b6000602082019050818103600083015261283481612334565b9050919050565b6000602082019050818103600083015261285481612357565b9050919050565b600060208201905081810360008301526128748161239d565b9050919050565b60006020820190508181036000830152612894816123c0565b9050919050565b600060208201905081810360008301526128b4816123e3565b9050919050565b600060208201905081810360008301526128d481612406565b9050919050565b600060208201905081810360008301526128f481612429565b9050919050565b600060208201905081810360008301526129148161244c565b9050919050565b600060208201905081810360008301526129348161246f565b9050919050565b600060c082019050612950600083018461250d565b92915050565b600060208201905061296b6000830184612597565b92915050565b600061297b61298c565b90506129878282612abb565b919050565b6000604051905090565b600067ffffffffffffffff8211156129b1576129b0612b9c565b5b6129ba82612bcb565b9050602081019050919050565b600067ffffffffffffffff8211156129e2576129e1612b9c565b5b6129eb82612bcb565b9050602081019050919050565b6000819050602082019050919050565b600081519050919050565b6000602082019050919050565b600082825260208201905092915050565b600082825260208201905092915050565b600081905092915050565b6000612a5882612a75565b9050919050565b60008115159050919050565b6000819050919050565b600073ffffffffffffffffffffffffffffffffffffffff82169050919050565b6000819050919050565b600060ff82169050919050565b82818337600083830152505050565b612ac482612bcb565b810181811067ffffffffffffffff82111715612ae357612ae2612b9c565b5b80604052505050565b6000612af782612a95565b91507fffffffffffffffffffffffffffffffffffffffffffffffffffffffffffffffff821415612b2a57612b29612b6d565b5b600182019050919050565b6000612b4082612b51565b9050919050565b6000819050919050565b6000612b5c82612bdc565b9050919050565b6000819050919050565b7f4e487b7100000000000000000000000000000000000000000000000000000000600052601160045260246000fd5b7f4e487b7100000000000000000000000000000000000000000000000000000000600052604160045260246000fd5b6000601f19601f8301169050919050565b60008160601b9050919050565b7f45434453413a20696e76616c6964207369676e61747572650000000000000000600082015250565b7f45434453413a20696e76616c6964207369676e6174757265206c656e67746800600082015250565b7f566572696669656443726564656e7469616c52656769737472793a20496e766160008201527f6c69642061646472657373000000000000000000000000000000000000000000602082015250565b7f4f776e61626c653a206e6577206f776e657220697320746865207a65726f206160008201527f6464726573730000000000000000000000000000000000000000000000000000602082015250565b7f1901000000000000000000000000000000000000000000000000000000000000600082015250565b7f45434453413a20696e76616c6964207369676e6174757265202773272076616c60008201527f7565000000000000000000000000000000000000000000000000000000000000602082015250565b7f566572696669656443726564656e7469616c52656769737472793a205665726960008201527f6669636174696f6e20636f6e6669726d6174696f6e2065787069726564000000602082015250565b7f566572696669656443726564656e7469616c52656769737472793a2043616c6c60008201527f6572206973206e6f7420746865207665726966696572206f662074686520726560208201527f666572656e636564207265636f72640000000000000000000000000000000000604082015250565b7f45434453413a20696e76616c6964207369676e6174757265202776272076616c60008201527f7565000000000000000000000000000000000000000000000000000000000000602082015250565b7f566572696669656443726564656e7469616c52656769737472793a2043616c6c60008201527f6572206973206e6f7420746865206f726967696e616c20766572696669657200602082015250565b7f4f776e61626c653a2063616c6c6572206973206e6f7420746865206f776e6572600082015250565b7f4e6f742061207665726966696572000000000000000000000000000000000000600082015250565b612f0e81612a4d565b8114612f1957600080fd5b50565b612f2581612a5f565b8114612f3057600080fd5b50565b612f3c81612a6b565b8114612f4757600080fd5b50565b612f5381612a95565b8114612f5e57600080fd5b5056fea26469706673582212208e73471fe072801a03dd22ff5ceabb7bcc73055ec0f3984bd2cc43cbc5e975f064736f6c63430008040033","opcodes":"PUSH2 0x140 PUSH1 0x40 MSTORE CALLVALUE DUP1 ISZERO PUSH3 0x12 JUMPI PUSH1 0x0 DUP1 REVERT JUMPDEST POP PUSH1 0x40 MLOAD DUP1 PUSH1 0x40 ADD PUSH1 0x40 MSTORE DUP1 PUSH1 0x1A DUP2 MSTORE PUSH1 0x20 ADD PUSH32 0x566572696669656443726564656E7469616C5265676973747279000000000000 DUP2 MSTORE POP PUSH1 0x40 MLOAD DUP1 PUSH1 0x40 ADD PUSH1 0x40 MSTORE DUP1 PUSH1 0x3 DUP2 MSTORE PUSH1 0x20 ADD PUSH32 0x312E300000000000000000000000000000000000000000000000000000000000 DUP2 MSTORE POP PUSH3 0x9F PUSH3 0x93 PUSH3 0x15A PUSH1 0x20 SHL PUSH1 0x20 SHR JUMP JUMPDEST PUSH3 0x162 PUSH1 0x20 SHL PUSH1 0x20 SHR JUMP JUMPDEST PUSH1 0x0 DUP3 DUP1 MLOAD SWAP1 PUSH1 0x20 ADD KECCAK256 SWAP1 POP PUSH1 0x0 DUP3 DUP1 MLOAD SWAP1 PUSH1 0x20 ADD KECCAK256 SWAP1 POP PUSH1 0x0 PUSH32 0x8B73C3C69BB8FE3D512ECC4CF759CC79239F7B179B0FFACAA9A75D522B39400F SWAP1 POP DUP3 PUSH1 0xE0 DUP2 DUP2 MSTORE POP POP DUP2 PUSH2 0x100 DUP2 DUP2 MSTORE POP POP CHAINID PUSH1 0xA0 DUP2 DUP2 MSTORE POP POP PUSH3 0x108 DUP2 DUP5 DUP5 PUSH3 0x226 PUSH1 0x20 SHL PUSH1 0x20 SHR JUMP JUMPDEST PUSH1 0x80 DUP2 DUP2 MSTORE POP POP ADDRESS PUSH20 0xFFFFFFFFFFFFFFFFFFFFFFFFFFFFFFFFFFFFFFFF AND PUSH1 0xC0 DUP2 PUSH20 0xFFFFFFFFFFFFFFFFFFFFFFFFFFFFFFFFFFFFFFFF AND PUSH1 0x60 SHL DUP2 MSTORE POP POP DUP1 PUSH2 0x120 DUP2 DUP2 MSTORE POP POP POP POP POP POP POP PUSH3 0x33A JUMP JUMPDEST PUSH1 0x0 CALLER SWAP1 POP SWAP1 JUMP JUMPDEST PUSH1 0x0 DUP1 PUSH1 0x0 SWAP1 SLOAD SWAP1 PUSH2 0x100 EXP SWAP1 DIV PUSH20 0xFFFFFFFFFFFFFFFFFFFFFFFFFFFFFFFFFFFFFFFF AND SWAP1 POP DUP2 PUSH1 0x0 DUP1 PUSH2 0x100 EXP DUP2 SLOAD DUP2 PUSH20 0xFFFFFFFFFFFFFFFFFFFFFFFFFFFFFFFFFFFFFFFF MUL NOT AND SWAP1 DUP4 PUSH20 0xFFFFFFFFFFFFFFFFFFFFFFFFFFFFFFFFFFFFFFFF AND MUL OR SWAP1 SSTORE POP DUP2 PUSH20 0xFFFFFFFFFFFFFFFFFFFFFFFFFFFFFFFFFFFFFFFF AND DUP2 PUSH20 0xFFFFFFFFFFFFFFFFFFFFFFFFFFFFFFFFFFFFFFFF AND PUSH32 0x8BE0079C531659141344CD1FD0A4F28419497F9722A3DAAFE3B4186F6B6457E0 PUSH1 0x40 MLOAD PUSH1 0x40 MLOAD DUP1 SWAP2 SUB SWAP1 LOG3 POP POP JUMP JUMPDEST PUSH1 0x0 DUP4 DUP4 DUP4 CHAINID ADDRESS PUSH1 0x40 MLOAD PUSH1 0x20 ADD PUSH3 0x243 SWAP6 SWAP5 SWAP4 SWAP3 SWAP2 SWAP1 PUSH3 0x295 JUMP JUMPDEST PUSH1 0x40 MLOAD PUSH1 0x20 DUP2 DUP4 SUB SUB DUP2 MSTORE SWAP1 PUSH1 0x40 MSTORE DUP1 MLOAD SWAP1 PUSH1 0x20 ADD KECCAK256 SWAP1 POP SWAP4 SWAP3 POP POP POP JUMP JUMPDEST PUSH3 0x26D DUP2 PUSH3 0x2F2 JUMP JUMPDEST DUP3 MSTORE POP POP JUMP JUMPDEST PUSH3 0x27E DUP2 PUSH3 0x306 JUMP JUMPDEST DUP3 MSTORE POP POP JUMP JUMPDEST PUSH3 0x28F DUP2 PUSH3 0x330 JUMP JUMPDEST DUP3 MSTORE POP POP JUMP JUMPDEST PUSH1 0x0 PUSH1 0xA0 DUP3 ADD SWAP1 POP PUSH3 0x2AC PUSH1 0x0 DUP4 ADD DUP9 PUSH3 0x273 JUMP JUMPDEST PUSH3 0x2BB PUSH1 0x20 DUP4 ADD DUP8 PUSH3 0x273 JUMP JUMPDEST PUSH3 0x2CA PUSH1 0x40 DUP4 ADD DUP7 PUSH3 0x273 JUMP JUMPDEST PUSH3 0x2D9 PUSH1 0x60 DUP4 ADD DUP6 PUSH3 0x284 JUMP JUMPDEST PUSH3 0x2E8 PUSH1 0x80 DUP4 ADD DUP5 PUSH3 0x262 JUMP JUMPDEST SWAP7 SWAP6 POP POP POP POP POP POP JUMP JUMPDEST PUSH1 0x0 PUSH3 0x2FF DUP3 PUSH3 0x310 JUMP JUMPDEST SWAP1 POP SWAP2 SWAP1 POP JUMP JUMPDEST PUSH1 0x0 DUP2 SWAP1 POP SWAP2 SWAP1 POP JUMP JUMPDEST PUSH1 0x0 PUSH20 0xFFFFFFFFFFFFFFFFFFFFFFFFFFFFFFFFFFFFFFFF DUP3 AND SWAP1 POP SWAP2 SWAP1 POP JUMP JUMPDEST PUSH1 0x0 DUP2 SWAP1 POP SWAP2 SWAP1 POP JUMP JUMPDEST PUSH1 0x80 MLOAD PUSH1 0xA0 MLOAD PUSH1 0xC0 MLOAD PUSH1 0x60 SHR PUSH1 0xE0 MLOAD PUSH2 0x100 MLOAD PUSH2 0x120 MLOAD PUSH2 0x2F97 PUSH3 0x38D PUSH1 0x0 CODECOPY PUSH1 0x0 PUSH2 0x18B2 ADD MSTORE PUSH1 0x0 PUSH2 0x18F4 ADD MSTORE PUSH1 0x0 PUSH2 0x18D3 ADD MSTORE PUSH1 0x0 PUSH2 0x1808 ADD MSTORE PUSH1 0x0 PUSH2 0x185E ADD MSTORE PUSH1 0x0 PUSH2 0x1887 ADD MSTORE PUSH2 0x2F97 PUSH1 0x0 RETURN INVALID PUSH1 0x80 PUSH1 0x40 MSTORE CALLVALUE DUP1 ISZERO PUSH2 0x10 JUMPI PUSH1 0x0 DUP1 REVERT JUMPDEST POP PUSH1 0x4 CALLDATASIZE LT PUSH2 0xB4 JUMPI PUSH1 0x0 CALLDATALOAD PUSH1 0xE0 SHR DUP1 PUSH4 0x8DA5CB5B GT PUSH2 0x71 JUMPI DUP1 PUSH4 0x8DA5CB5B EQ PUSH2 0x165 JUMPI DUP1 PUSH4 0x94EF2440 EQ PUSH2 0x183 JUMPI DUP1 PUSH4 0x958C39FF EQ PUSH2 0x1B3 JUMPI DUP1 PUSH4 0xE93119D9 EQ PUSH2 0x1E3 JUMPI DUP1 PUSH4 0xED2FFD28 EQ PUSH2 0x213 JUMPI DUP1 PUSH4 0xF2FDE38B EQ PUSH2 0x243 JUMPI PUSH2 0xB4 JUMP JUMPDEST DUP1 PUSH4 0xE9E848F EQ PUSH2 0xB9 JUMPI DUP1 PUSH4 0x1F05B374 EQ PUSH2 0xE9 JUMPI DUP1 PUSH4 0x4E4DE26D EQ PUSH2 0x107 JUMPI DUP1 PUSH4 0x6E485C17 EQ PUSH2 0x123 JUMPI DUP1 PUSH4 0x70EBA124 EQ PUSH2 0x13F JUMPI DUP1 PUSH4 0x715018A6 EQ PUSH2 0x15B JUMPI JUMPDEST PUSH1 0x0 DUP1 REVERT JUMPDEST PUSH2 0xD3 PUSH1 0x4 DUP1 CALLDATASIZE SUB DUP2 ADD SWAP1 PUSH2 0xCE SWAP2 SWAP1 PUSH2 0x2068 JUMP JUMPDEST PUSH2 0x25F JUMP JUMPDEST PUSH1 0x40 MLOAD PUSH2 0xE0 SWAP2 SWAP1 PUSH2 0x26A6 JUMP JUMPDEST PUSH1 0x40 MLOAD DUP1 SWAP2 SUB SWAP1 RETURN JUMPDEST PUSH2 0xF1 PUSH2 0x599 JUMP JUMPDEST PUSH1 0x40 MLOAD PUSH2 0xFE SWAP2 SWAP1 PUSH2 0x2956 JUMP JUMPDEST PUSH1 0x40 MLOAD DUP1 SWAP2 SUB SWAP1 RETURN JUMPDEST PUSH2 0x121 PUSH1 0x4 DUP1 CALLDATASIZE SUB DUP2 ADD SWAP1 PUSH2 0x11C SWAP2 SWAP1 PUSH2 0x2132 JUMP JUMPDEST PUSH2 0x5A3 JUMP JUMPDEST STOP JUMPDEST PUSH2 0x13D PUSH1 0x4 DUP1 CALLDATASIZE SUB DUP2 ADD SWAP1 PUSH2 0x138 SWAP2 SWAP1 PUSH2 0x2068 JUMP JUMPDEST PUSH2 0x7FB JUMP JUMPDEST STOP JUMPDEST PUSH2 0x159 PUSH1 0x4 DUP1 CALLDATASIZE SUB DUP2 ADD SWAP1 PUSH2 0x154 SWAP2 SWAP1 PUSH2 0x2132 JUMP JUMPDEST PUSH2 0x847 JUMP JUMPDEST STOP JUMPDEST PUSH2 0x163 PUSH2 0xA3E JUMP JUMPDEST STOP JUMPDEST PUSH2 0x16D PUSH2 0xA52 JUMP JUMPDEST PUSH1 0x40 MLOAD PUSH2 0x17A SWAP2 SWAP1 PUSH2 0x2662 JUMP JUMPDEST PUSH1 0x40 MLOAD DUP1 SWAP2 SUB SWAP1 RETURN JUMPDEST PUSH2 0x19D PUSH1 0x4 DUP1 CALLDATASIZE SUB DUP2 ADD SWAP1 PUSH2 0x198 SWAP2 SWAP1 PUSH2 0x2132 JUMP JUMPDEST PUSH2 0xA7B JUMP JUMPDEST PUSH1 0x40 MLOAD PUSH2 0x1AA SWAP2 SWAP1 PUSH2 0x293B JUMP JUMPDEST PUSH1 0x40 MLOAD DUP1 SWAP2 SUB SWAP1 RETURN JUMPDEST PUSH2 0x1CD PUSH1 0x4 DUP1 CALLDATASIZE SUB DUP2 ADD SWAP1 PUSH2 0x1C8 SWAP2 SWAP1 PUSH2 0x215B JUMP JUMPDEST PUSH2 0xB8D JUMP JUMPDEST PUSH1 0x40 MLOAD PUSH2 0x1DA SWAP2 SWAP1 PUSH2 0x293B JUMP JUMPDEST PUSH1 0x40 MLOAD DUP1 SWAP2 SUB SWAP1 RETURN JUMPDEST PUSH2 0x1FD PUSH1 0x4 DUP1 CALLDATASIZE SUB DUP2 ADD SWAP1 PUSH2 0x1F8 SWAP2 SWAP1 PUSH2 0x20BA JUMP JUMPDEST PUSH2 0xCE0 JUMP JUMPDEST PUSH1 0x40 MLOAD PUSH2 0x20A SWAP2 SWAP1 PUSH2 0x26C8 JUMP JUMPDEST PUSH1 0x40 MLOAD DUP1 SWAP2 SUB SWAP1 RETURN JUMPDEST PUSH2 0x22D PUSH1 0x4 DUP1 CALLDATASIZE SUB DUP2 ADD SWAP1 PUSH2 0x228 SWAP2 SWAP1 PUSH2 0x2068 JUMP JUMPDEST PUSH2 0xDFE JUMP JUMPDEST PUSH1 0x40 MLOAD PUSH2 0x23A SWAP2 SWAP1 PUSH2 0x26A6 JUMP JUMPDEST PUSH1 0x40 MLOAD DUP1 SWAP2 SUB SWAP1 RETURN JUMPDEST PUSH2 0x25D PUSH1 0x4 DUP1 CALLDATASIZE SUB DUP2 ADD SWAP1 PUSH2 0x258 SWAP2 SWAP1 PUSH2 0x2068 JUMP JUMPDEST PUSH2 0x1138 JUMP JUMPDEST STOP JUMPDEST PUSH1 0x60 PUSH1 0x0 PUSH20 0xFFFFFFFFFFFFFFFFFFFFFFFFFFFFFFFFFFFFFFFF AND DUP3 PUSH20 0xFFFFFFFFFFFFFFFFFFFFFFFFFFFFFFFFFFFFFFFF AND EQ ISZERO PUSH2 0x2D1 JUMPI PUSH1 0x40 MLOAD PUSH32 0x8C379A000000000000000000000000000000000000000000000000000000000 DUP2 MSTORE PUSH1 0x4 ADD PUSH2 0x2C8 SWAP1 PUSH2 0x281B JUMP JUMPDEST PUSH1 0x40 MLOAD DUP1 SWAP2 SUB SWAP1 REVERT JUMPDEST PUSH1 0x0 PUSH1 0x4 PUSH1 0x0 DUP5 PUSH20 0xFFFFFFFFFFFFFFFFFFFFFFFFFFFFFFFFFFFFFFFF AND PUSH20 0xFFFFFFFFFFFFFFFFFFFFFFFFFFFFFFFFFFFFFFFF AND DUP2 MSTORE PUSH1 0x20 ADD SWAP1 DUP2 MSTORE PUSH1 0x20 ADD PUSH1 0x0 KECCAK256 DUP1 SLOAD DUP1 PUSH1 0x20 MUL PUSH1 0x20 ADD PUSH1 0x40 MLOAD SWAP1 DUP2 ADD PUSH1 0x40 MSTORE DUP1 SWAP3 SWAP2 SWAP1 DUP2 DUP2 MSTORE PUSH1 0x20 ADD DUP3 DUP1 SLOAD DUP1 ISZERO PUSH2 0x35C JUMPI PUSH1 0x20 MUL DUP3 ADD SWAP2 SWAP1 PUSH1 0x0 MSTORE PUSH1 0x20 PUSH1 0x0 KECCAK256 SWAP1 JUMPDEST DUP2 SLOAD DUP2 MSTORE PUSH1 0x20 ADD SWAP1 PUSH1 0x1 ADD SWAP1 DUP1 DUP4 GT PUSH2 0x348 JUMPI JUMPDEST POP POP POP POP POP SWAP1 POP PUSH1 0x0 DUP2 MLOAD PUSH8 0xFFFFFFFFFFFFFFFF DUP2 GT ISZERO PUSH2 0x3A6 JUMPI PUSH32 0x4E487B7100000000000000000000000000000000000000000000000000000000 PUSH1 0x0 MSTORE PUSH1 0x41 PUSH1 0x4 MSTORE PUSH1 0x24 PUSH1 0x0 REVERT JUMPDEST PUSH1 0x40 MLOAD SWAP1 DUP1 DUP3 MSTORE DUP1 PUSH1 0x20 MUL PUSH1 0x20 ADD DUP3 ADD PUSH1 0x40 MSTORE DUP1 ISZERO PUSH2 0x3DF JUMPI DUP2 PUSH1 0x20 ADD JUMPDEST PUSH2 0x3CC PUSH2 0x1E3B JUMP JUMPDEST DUP2 MSTORE PUSH1 0x20 ADD SWAP1 PUSH1 0x1 SWAP1 SUB SWAP1 DUP2 PUSH2 0x3C4 JUMPI SWAP1 POP JUMPDEST POP SWAP1 POP PUSH1 0x0 JUMPDEST DUP3 MLOAD DUP2 LT ISZERO PUSH2 0x58E JUMPI PUSH1 0x0 PUSH1 0x2 PUSH1 0x0 DUP6 DUP5 DUP2 MLOAD DUP2 LT PUSH2 0x42D JUMPI PUSH32 0x4E487B7100000000000000000000000000000000000000000000000000000000 PUSH1 0x0 MSTORE PUSH1 0x32 PUSH1 0x4 MSTORE PUSH1 0x24 PUSH1 0x0 REVERT JUMPDEST PUSH1 0x20 MUL PUSH1 0x20 ADD ADD MLOAD DUP2 MSTORE PUSH1 0x20 ADD SWAP1 DUP2 MSTORE PUSH1 0x20 ADD PUSH1 0x0 KECCAK256 PUSH1 0x40 MLOAD DUP1 PUSH1 0xC0 ADD PUSH1 0x40 MSTORE SWAP1 DUP2 PUSH1 0x0 DUP3 ADD SLOAD DUP2 MSTORE PUSH1 0x20 ADD PUSH1 0x1 DUP3 ADD PUSH1 0x0 SWAP1 SLOAD SWAP1 PUSH2 0x100 EXP SWAP1 DIV PUSH20 0xFFFFFFFFFFFFFFFFFFFFFFFFFFFFFFFFFFFFFFFF AND PUSH20 0xFFFFFFFFFFFFFFFFFFFFFFFFFFFFFFFFFFFFFFFF AND PUSH20 0xFFFFFFFFFFFFFFFFFFFFFFFFFFFFFFFFFFFFFFFF AND DUP2 MSTORE PUSH1 0x20 ADD PUSH1 0x2 DUP3 ADD PUSH1 0x0 SWAP1 SLOAD SWAP1 PUSH2 0x100 EXP SWAP1 DIV PUSH20 0xFFFFFFFFFFFFFFFFFFFFFFFFFFFFFFFFFFFFFFFF AND PUSH20 0xFFFFFFFFFFFFFFFFFFFFFFFFFFFFFFFFFFFFFFFF AND PUSH20 0xFFFFFFFFFFFFFFFFFFFFFFFFFFFFFFFFFFFFFFFF AND DUP2 MSTORE PUSH1 0x20 ADD PUSH1 0x3 DUP3 ADD SLOAD DUP2 MSTORE PUSH1 0x20 ADD PUSH1 0x4 DUP3 ADD SLOAD DUP2 MSTORE PUSH1 0x20 ADD PUSH1 0x5 DUP3 ADD PUSH1 0x0 SWAP1 SLOAD SWAP1 PUSH2 0x100 EXP SWAP1 DIV PUSH1 0xFF AND ISZERO ISZERO ISZERO ISZERO DUP2 MSTORE POP POP SWAP1 POP DUP1 DUP4 DUP4 DUP2 MLOAD DUP2 LT PUSH2 0x56F JUMPI PUSH32 0x4E487B7100000000000000000000000000000000000000000000000000000000 PUSH1 0x0 MSTORE PUSH1 0x32 PUSH1 0x4 MSTORE PUSH1 0x24 PUSH1 0x0 REVERT JUMPDEST PUSH1 0x20 MUL PUSH1 0x20 ADD ADD DUP2 SWAP1 MSTORE POP POP DUP1 DUP1 PUSH2 0x586 SWAP1 PUSH2 0x2AEC JUMP JUMPDEST SWAP2 POP POP PUSH2 0x3E5 JUMP JUMPDEST POP DUP1 SWAP3 POP POP POP SWAP2 SWAP1 POP JUMP JUMPDEST PUSH1 0x0 PUSH1 0x5 SLOAD SWAP1 POP SWAP1 JUMP JUMPDEST PUSH1 0x1 PUSH1 0x0 SWAP1 SLOAD SWAP1 PUSH2 0x100 EXP SWAP1 DIV PUSH20 0xFFFFFFFFFFFFFFFFFFFFFFFFFFFFFFFFFFFFFFFF AND PUSH20 0xFFFFFFFFFFFFFFFFFFFFFFFFFFFFFFFFFFFFFFFF AND PUSH4 0x33105218 CALLER PUSH1 0x40 MLOAD DUP3 PUSH4 0xFFFFFFFF AND PUSH1 0xE0 SHL DUP2 MSTORE PUSH1 0x4 ADD PUSH2 0x5FE SWAP2 SWAP1 PUSH2 0x2662 JUMP JUMPDEST PUSH1 0x20 PUSH1 0x40 MLOAD DUP1 DUP4 SUB DUP2 DUP7 DUP1 EXTCODESIZE ISZERO DUP1 ISZERO PUSH2 0x616 JUMPI PUSH1 0x0 DUP1 REVERT JUMPDEST POP GAS STATICCALL ISZERO DUP1 ISZERO PUSH2 0x62A JUMPI RETURNDATASIZE PUSH1 0x0 DUP1 RETURNDATACOPY RETURNDATASIZE PUSH1 0x0 REVERT JUMPDEST POP POP POP POP PUSH1 0x40 MLOAD RETURNDATASIZE PUSH1 0x1F NOT PUSH1 0x1F DUP3 ADD AND DUP3 ADD DUP1 PUSH1 0x40 MSTORE POP DUP2 ADD SWAP1 PUSH2 0x64E SWAP2 SWAP1 PUSH2 0x2109 JUMP JUMPDEST PUSH2 0x68D JUMPI PUSH1 0x40 MLOAD PUSH32 0x8C379A000000000000000000000000000000000000000000000000000000000 DUP2 MSTORE PUSH1 0x4 ADD PUSH2 0x684 SWAP1 PUSH2 0x291B JUMP JUMPDEST PUSH1 0x40 MLOAD DUP1 SWAP2 SUB SWAP1 REVERT JUMPDEST CALLER PUSH20 0xFFFFFFFFFFFFFFFFFFFFFFFFFFFFFFFFFFFFFFFF AND PUSH1 0x2 PUSH1 0x0 DUP4 DUP2 MSTORE PUSH1 0x20 ADD SWAP1 DUP2 MSTORE PUSH1 0x20 ADD PUSH1 0x0 KECCAK256 PUSH1 0x1 ADD PUSH1 0x0 SWAP1 SLOAD SWAP1 PUSH2 0x100 EXP SWAP1 DIV PUSH20 0xFFFFFFFFFFFFFFFFFFFFFFFFFFFFFFFFFFFFFFFF AND PUSH20 0xFFFFFFFFFFFFFFFFFFFFFFFFFFFFFFFFFFFFFFFF AND EQ PUSH2 0x731 JUMPI PUSH1 0x40 MLOAD PUSH32 0x8C379A000000000000000000000000000000000000000000000000000000000 DUP2 MSTORE PUSH1 0x4 ADD PUSH2 0x728 SWAP1 PUSH2 0x289B JUMP JUMPDEST PUSH1 0x40 MLOAD DUP1 SWAP2 SUB SWAP1 REVERT JUMPDEST PUSH1 0x2 PUSH1 0x0 DUP3 DUP2 MSTORE PUSH1 0x20 ADD SWAP1 DUP2 MSTORE PUSH1 0x20 ADD PUSH1 0x0 KECCAK256 PUSH1 0x0 DUP1 DUP3 ADD PUSH1 0x0 SWAP1 SSTORE PUSH1 0x1 DUP3 ADD PUSH1 0x0 PUSH2 0x100 EXP DUP2 SLOAD SWAP1 PUSH20 0xFFFFFFFFFFFFFFFFFFFFFFFFFFFFFFFFFFFFFFFF MUL NOT AND SWAP1 SSTORE PUSH1 0x2 DUP3 ADD PUSH1 0x0 PUSH2 0x100 EXP DUP2 SLOAD SWAP1 PUSH20 0xFFFFFFFFFFFFFFFFFFFFFFFFFFFFFFFFFFFFFFFF MUL NOT AND SWAP1 SSTORE PUSH1 0x3 DUP3 ADD PUSH1 0x0 SWAP1 SSTORE PUSH1 0x4 DUP3 ADD PUSH1 0x0 SWAP1 SSTORE PUSH1 0x5 DUP3 ADD PUSH1 0x0 PUSH2 0x100 EXP DUP2 SLOAD SWAP1 PUSH1 0xFF MUL NOT AND SWAP1 SSTORE POP POP PUSH32 0x9ABF56D49E4EF717F3418600D3ED66048CA2ED8E3E630A70B76A71DD2142DEF5 DUP2 PUSH1 0x40 MLOAD PUSH2 0x7F0 SWAP2 SWAP1 PUSH2 0x26E3 JUMP JUMPDEST PUSH1 0x40 MLOAD DUP1 SWAP2 SUB SWAP1 LOG1 POP JUMP JUMPDEST PUSH2 0x803 PUSH2 0x11BC JUMP JUMPDEST DUP1 PUSH1 0x1 PUSH1 0x0 PUSH2 0x100 EXP DUP2 SLOAD DUP2 PUSH20 0xFFFFFFFFFFFFFFFFFFFFFFFFFFFFFFFFFFFFFFFF MUL NOT AND SWAP1 DUP4 PUSH20 0xFFFFFFFFFFFFFFFFFFFFFFFFFFFFFFFFFFFFFFFF AND MUL OR SWAP1 SSTORE POP POP JUMP JUMPDEST PUSH1 0x1 PUSH1 0x0 SWAP1 SLOAD SWAP1 PUSH2 0x100 EXP SWAP1 DIV PUSH20 0xFFFFFFFFFFFFFFFFFFFFFFFFFFFFFFFFFFFFFFFF AND PUSH20 0xFFFFFFFFFFFFFFFFFFFFFFFFFFFFFFFFFFFFFFFF AND PUSH4 0x33105218 CALLER PUSH1 0x40 MLOAD DUP3 PUSH4 0xFFFFFFFF AND PUSH1 0xE0 SHL DUP2 MSTORE PUSH1 0x4 ADD PUSH2 0x8A2 SWAP2 SWAP1 PUSH2 0x2662 JUMP JUMPDEST PUSH1 0x20 PUSH1 0x40 MLOAD DUP1 DUP4 SUB DUP2 DUP7 DUP1 EXTCODESIZE ISZERO DUP1 ISZERO PUSH2 0x8BA JUMPI PUSH1 0x0 DUP1 REVERT JUMPDEST POP GAS STATICCALL ISZERO DUP1 ISZERO PUSH2 0x8CE JUMPI RETURNDATASIZE PUSH1 0x0 DUP1 RETURNDATACOPY RETURNDATASIZE PUSH1 0x0 REVERT JUMPDEST POP POP POP POP PUSH1 0x40 MLOAD RETURNDATASIZE PUSH1 0x1F NOT PUSH1 0x1F DUP3 ADD AND DUP3 ADD DUP1 PUSH1 0x40 MSTORE POP DUP2 ADD SWAP1 PUSH2 0x8F2 SWAP2 SWAP1 PUSH2 0x2109 JUMP JUMPDEST PUSH2 0x931 JUMPI PUSH1 0x40 MLOAD PUSH32 0x8C379A000000000000000000000000000000000000000000000000000000000 DUP2 MSTORE PUSH1 0x4 ADD PUSH2 0x928 SWAP1 PUSH2 0x291B JUMP JUMPDEST PUSH1 0x40 MLOAD DUP1 SWAP2 SUB SWAP1 REVERT JUMPDEST CALLER PUSH20 0xFFFFFFFFFFFFFFFFFFFFFFFFFFFFFFFFFFFFFFFF AND PUSH1 0x2 PUSH1 0x0 DUP4 DUP2 MSTORE PUSH1 0x20 ADD SWAP1 DUP2 MSTORE PUSH1 0x20 ADD PUSH1 0x0 KECCAK256 PUSH1 0x1 ADD PUSH1 0x0 SWAP1 SLOAD SWAP1 PUSH2 0x100 EXP SWAP1 DIV PUSH20 0xFFFFFFFFFFFFFFFFFFFFFFFFFFFFFFFFFFFFFFFF AND PUSH20 0xFFFFFFFFFFFFFFFFFFFFFFFFFFFFFFFFFFFFFFFF AND EQ PUSH2 0x9D5 JUMPI PUSH1 0x40 MLOAD PUSH32 0x8C379A000000000000000000000000000000000000000000000000000000000 DUP2 MSTORE PUSH1 0x4 ADD PUSH2 0x9CC SWAP1 PUSH2 0x28DB JUMP JUMPDEST PUSH1 0x40 MLOAD DUP1 SWAP2 SUB SWAP1 REVERT JUMPDEST PUSH1 0x1 PUSH1 0x2 PUSH1 0x0 DUP4 DUP2 MSTORE PUSH1 0x20 ADD SWAP1 DUP2 MSTORE PUSH1 0x20 ADD PUSH1 0x0 KECCAK256 PUSH1 0x5 ADD PUSH1 0x0 PUSH2 0x100 EXP DUP2 SLOAD DUP2 PUSH1 0xFF MUL NOT AND SWAP1 DUP4 ISZERO ISZERO MUL OR SWAP1 SSTORE POP PUSH32 0x71AD1BB208A373A52E72FE5D8AA7755D658F88E197E666BF1A6D09D0DDB5056 DUP2 PUSH1 0x40 MLOAD PUSH2 0xA33 SWAP2 SWAP1 PUSH2 0x26E3 JUMP JUMPDEST PUSH1 0x40 MLOAD DUP1 SWAP2 SUB SWAP1 LOG1 POP JUMP JUMPDEST PUSH2 0xA46 PUSH2 0x11BC JUMP JUMPDEST PUSH2 0xA50 PUSH1 0x0 PUSH2 0x123A JUMP JUMPDEST JUMP JUMPDEST PUSH1 0x0 DUP1 PUSH1 0x0 SWAP1 SLOAD SWAP1 PUSH2 0x100 EXP SWAP1 DIV PUSH20 0xFFFFFFFFFFFFFFFFFFFFFFFFFFFFFFFFFFFFFFFF AND SWAP1 POP SWAP1 JUMP JUMPDEST PUSH2 0xA83 PUSH2 0x1E3B JUMP JUMPDEST PUSH1 0x2 PUSH1 0x0 DUP4 DUP2 MSTORE PUSH1 0x20 ADD SWAP1 DUP2 MSTORE PUSH1 0x20 ADD PUSH1 0x0 KECCAK256 PUSH1 0x40 MLOAD DUP1 PUSH1 0xC0 ADD PUSH1 0x40 MSTORE SWAP1 DUP2 PUSH1 0x0 DUP3 ADD SLOAD DUP2 MSTORE PUSH1 0x20 ADD PUSH1 0x1 DUP3 ADD PUSH1 0x0 SWAP1 SLOAD SWAP1 PUSH2 0x100 EXP SWAP1 DIV PUSH20 0xFFFFFFFFFFFFFFFFFFFFFFFFFFFFFFFFFFFFFFFF AND PUSH20 0xFFFFFFFFFFFFFFFFFFFFFFFFFFFFFFFFFFFFFFFF AND PUSH20 0xFFFFFFFFFFFFFFFFFFFFFFFFFFFFFFFFFFFFFFFF AND DUP2 MSTORE PUSH1 0x20 ADD PUSH1 0x2 DUP3 ADD PUSH1 0x0 SWAP1 SLOAD SWAP1 PUSH2 0x100 EXP SWAP1 DIV PUSH20 0xFFFFFFFFFFFFFFFFFFFFFFFFFFFFFFFFFFFFFFFF AND PUSH20 0xFFFFFFFFFFFFFFFFFFFFFFFFFFFFFFFFFFFFFFFF AND PUSH20 0xFFFFFFFFFFFFFFFFFFFFFFFFFFFFFFFFFFFFFFFF AND DUP2 MSTORE PUSH1 0x20 ADD PUSH1 0x3 DUP3 ADD SLOAD DUP2 MSTORE PUSH1 0x20 ADD PUSH1 0x4 DUP3 ADD SLOAD DUP2 MSTORE PUSH1 0x20 ADD PUSH1 0x5 DUP3 ADD PUSH1 0x0 SWAP1 SLOAD SWAP1 PUSH2 0x100 EXP SWAP1 DIV PUSH1 0xFF AND ISZERO ISZERO ISZERO ISZERO DUP2 MSTORE POP POP SWAP1 POP SWAP2 SWAP1 POP JUMP JUMPDEST PUSH2 0xB95 PUSH2 0x1E3B JUMP JUMPDEST PUSH1 0x1 PUSH1 0x0 SWAP1 SLOAD SWAP1 PUSH2 0x100 EXP SWAP1 DIV PUSH20 0xFFFFFFFFFFFFFFFFFFFFFFFFFFFFFFFFFFFFFFFF AND PUSH20 0xFFFFFFFFFFFFFFFFFFFFFFFFFFFFFFFFFFFFFFFF AND PUSH4 0x33105218 CALLER PUSH1 0x40 MLOAD DUP3 PUSH4 0xFFFFFFFF AND PUSH1 0xE0 SHL DUP2 MSTORE PUSH1 0x4 ADD PUSH2 0xBF0 SWAP2 SWAP1 PUSH2 0x2662 JUMP JUMPDEST PUSH1 0x20 PUSH1 0x40 MLOAD DUP1 DUP4 SUB DUP2 DUP7 DUP1 EXTCODESIZE ISZERO DUP1 ISZERO PUSH2 0xC08 JUMPI PUSH1 0x0 DUP1 REVERT JUMPDEST POP GAS STATICCALL ISZERO DUP1 ISZERO PUSH2 0xC1C JUMPI RETURNDATASIZE PUSH1 0x0 DUP1 RETURNDATACOPY RETURNDATASIZE PUSH1 0x0 REVERT JUMPDEST POP POP POP POP PUSH1 0x40 MLOAD RETURNDATASIZE PUSH1 0x1F NOT PUSH1 0x1F DUP3 ADD AND DUP3 ADD DUP1 PUSH1 0x40 MSTORE POP DUP2 ADD SWAP1 PUSH2 0xC40 SWAP2 SWAP1 PUSH2 0x2109 JUMP JUMPDEST PUSH2 0xC7F JUMPI PUSH1 0x40 MLOAD PUSH32 0x8C379A000000000000000000000000000000000000000000000000000000000 DUP2 MSTORE PUSH1 0x4 ADD PUSH2 0xC76 SWAP1 PUSH2 0x291B JUMP JUMPDEST PUSH1 0x40 MLOAD DUP1 SWAP2 SUB SWAP1 REVERT JUMPDEST PUSH2 0xC88 DUP4 PUSH2 0x12FE JUMP JUMPDEST PUSH1 0x0 PUSH2 0xC94 DUP5 DUP5 PUSH2 0x1301 JUMP JUMPDEST SWAP1 POP PUSH2 0xC9F DUP2 PUSH2 0x1593 JUMP JUMPDEST PUSH32 0xB13E5E7EFCCE7BBC67740F0FE050563D4FD1F5CC7096C3A32CB901711C95AB54 DUP2 PUSH1 0x40 MLOAD PUSH2 0xCCE SWAP2 SWAP1 PUSH2 0x293B JUMP JUMPDEST PUSH1 0x40 MLOAD DUP1 SWAP2 SUB SWAP1 LOG1 DUP1 SWAP2 POP POP SWAP3 SWAP2 POP POP JUMP JUMPDEST PUSH1 0x0 DUP1 PUSH20 0xFFFFFFFFFFFFFFFFFFFFFFFFFFFFFFFFFFFFFFFF AND DUP4 PUSH20 0xFFFFFFFFFFFFFFFFFFFFFFFFFFFFFFFFFFFFFFFF AND EQ ISZERO PUSH2 0xD51 JUMPI PUSH1 0x40 MLOAD PUSH32 0x8C379A000000000000000000000000000000000000000000000000000000000 DUP2 MSTORE PUSH1 0x4 ADD PUSH2 0xD48 SWAP1 PUSH2 0x281B JUMP JUMPDEST PUSH1 0x40 MLOAD DUP1 SWAP2 SUB SWAP1 REVERT JUMPDEST PUSH1 0x0 DUP5 PUSH20 0xFFFFFFFFFFFFFFFFFFFFFFFFFFFFFFFFFFFFFFFF AND PUSH3 0xFDD58E DUP6 DUP6 PUSH1 0x40 MLOAD DUP4 PUSH4 0xFFFFFFFF AND PUSH1 0xE0 SHL DUP2 MSTORE PUSH1 0x4 ADD PUSH2 0xD8D SWAP3 SWAP2 SWAP1 PUSH2 0x267D JUMP JUMPDEST PUSH1 0x20 PUSH1 0x40 MLOAD DUP1 DUP4 SUB DUP2 DUP7 DUP1 EXTCODESIZE ISZERO DUP1 ISZERO PUSH2 0xDA5 JUMPI PUSH1 0x0 DUP1 REVERT JUMPDEST POP GAS STATICCALL ISZERO DUP1 ISZERO PUSH2 0xDB9 JUMPI RETURNDATASIZE PUSH1 0x0 DUP1 RETURNDATACOPY RETURNDATASIZE PUSH1 0x0 REVERT JUMPDEST POP POP POP POP PUSH1 0x40 MLOAD RETURNDATASIZE PUSH1 0x1F NOT PUSH1 0x1F DUP3 ADD AND DUP3 ADD DUP1 PUSH1 0x40 MSTORE POP DUP2 ADD SWAP1 PUSH2 0xDDD SWAP2 SWAP1 PUSH2 0x21C7 JUMP JUMPDEST SWAP1 POP PUSH1 0x0 DUP2 EQ PUSH2 0xDF1 JUMPI PUSH1 0x1 SWAP2 POP POP PUSH2 0xDF7 JUMP JUMPDEST PUSH1 0x0 SWAP2 POP POP JUMPDEST SWAP4 SWAP3 POP POP POP JUMP JUMPDEST PUSH1 0x60 PUSH1 0x0 PUSH20 0xFFFFFFFFFFFFFFFFFFFFFFFFFFFFFFFFFFFFFFFF AND DUP3 PUSH20 0xFFFFFFFFFFFFFFFFFFFFFFFFFFFFFFFFFFFFFFFF AND EQ ISZERO PUSH2 0xE70 JUMPI PUSH1 0x40 MLOAD PUSH32 0x8C379A000000000000000000000000000000000000000000000000000000000 DUP2 MSTORE PUSH1 0x4 ADD PUSH2 0xE67 SWAP1 PUSH2 0x281B JUMP JUMPDEST PUSH1 0x40 MLOAD DUP1 SWAP2 SUB SWAP1 REVERT JUMPDEST PUSH1 0x0 PUSH1 0x3 PUSH1 0x0 DUP5 PUSH20 0xFFFFFFFFFFFFFFFFFFFFFFFFFFFFFFFFFFFFFFFF AND PUSH20 0xFFFFFFFFFFFFFFFFFFFFFFFFFFFFFFFFFFFFFFFF AND DUP2 MSTORE PUSH1 0x20 ADD SWAP1 DUP2 MSTORE PUSH1 0x20 ADD PUSH1 0x0 KECCAK256 DUP1 SLOAD DUP1 PUSH1 0x20 MUL PUSH1 0x20 ADD PUSH1 0x40 MLOAD SWAP1 DUP2 ADD PUSH1 0x40 MSTORE DUP1 SWAP3 SWAP2 SWAP1 DUP2 DUP2 MSTORE PUSH1 0x20 ADD DUP3 DUP1 SLOAD DUP1 ISZERO PUSH2 0xEFB JUMPI PUSH1 0x20 MUL DUP3 ADD SWAP2 SWAP1 PUSH1 0x0 MSTORE PUSH1 0x20 PUSH1 0x0 KECCAK256 SWAP1 JUMPDEST DUP2 SLOAD DUP2 MSTORE PUSH1 0x20 ADD SWAP1 PUSH1 0x1 ADD SWAP1 DUP1 DUP4 GT PUSH2 0xEE7 JUMPI JUMPDEST POP POP POP POP POP SWAP1 POP PUSH1 0x0 DUP2 MLOAD PUSH8 0xFFFFFFFFFFFFFFFF DUP2 GT ISZERO PUSH2 0xF45 JUMPI PUSH32 0x4E487B7100000000000000000000000000000000000000000000000000000000 PUSH1 0x0 MSTORE PUSH1 0x41 PUSH1 0x4 MSTORE PUSH1 0x24 PUSH1 0x0 REVERT JUMPDEST PUSH1 0x40 MLOAD SWAP1 DUP1 DUP3 MSTORE DUP1 PUSH1 0x20 MUL PUSH1 0x20 ADD DUP3 ADD PUSH1 0x40 MSTORE DUP1 ISZERO PUSH2 0xF7E JUMPI DUP2 PUSH1 0x20 ADD JUMPDEST PUSH2 0xF6B PUSH2 0x1E3B JUMP JUMPDEST DUP2 MSTORE PUSH1 0x20 ADD SWAP1 PUSH1 0x1 SWAP1 SUB SWAP1 DUP2 PUSH2 0xF63 JUMPI SWAP1 POP JUMPDEST POP SWAP1 POP PUSH1 0x0 JUMPDEST DUP3 MLOAD DUP2 LT ISZERO PUSH2 0x112D JUMPI PUSH1 0x0 PUSH1 0x2 PUSH1 0x0 DUP6 DUP5 DUP2 MLOAD DUP2 LT PUSH2 0xFCC JUMPI PUSH32 0x4E487B7100000000000000000000000000000000000000000000000000000000 PUSH1 0x0 MSTORE PUSH1 0x32 PUSH1 0x4 MSTORE PUSH1 0x24 PUSH1 0x0 REVERT JUMPDEST PUSH1 0x20 MUL PUSH1 0x20 ADD ADD MLOAD DUP2 MSTORE PUSH1 0x20 ADD SWAP1 DUP2 MSTORE PUSH1 0x20 ADD PUSH1 0x0 KECCAK256 PUSH1 0x40 MLOAD DUP1 PUSH1 0xC0 ADD PUSH1 0x40 MSTORE SWAP1 DUP2 PUSH1 0x0 DUP3 ADD SLOAD DUP2 MSTORE PUSH1 0x20 ADD PUSH1 0x1 DUP3 ADD PUSH1 0x0 SWAP1 SLOAD SWAP1 PUSH2 0x100 EXP SWAP1 DIV PUSH20 0xFFFFFFFFFFFFFFFFFFFFFFFFFFFFFFFFFFFFFFFF AND PUSH20 0xFFFFFFFFFFFFFFFFFFFFFFFFFFFFFFFFFFFFFFFF AND PUSH20 0xFFFFFFFFFFFFFFFFFFFFFFFFFFFFFFFFFFFFFFFF AND DUP2 MSTORE PUSH1 0x20 ADD PUSH1 0x2 DUP3 ADD PUSH1 0x0 SWAP1 SLOAD SWAP1 PUSH2 0x100 EXP SWAP1 DIV PUSH20 0xFFFFFFFFFFFFFFFFFFFFFFFFFFFFFFFFFFFFFFFF AND PUSH20 0xFFFFFFFFFFFFFFFFFFFFFFFFFFFFFFFFFFFFFFFF AND PUSH20 0xFFFFFFFFFFFFFFFFFFFFFFFFFFFFFFFFFFFFFFFF AND DUP2 MSTORE PUSH1 0x20 ADD PUSH1 0x3 DUP3 ADD SLOAD DUP2 MSTORE PUSH1 0x20 ADD PUSH1 0x4 DUP3 ADD SLOAD DUP2 MSTORE PUSH1 0x20 ADD PUSH1 0x5 DUP3 ADD PUSH1 0x0 SWAP1 SLOAD SWAP1 PUSH2 0x100 EXP SWAP1 DIV PUSH1 0xFF AND ISZERO ISZERO ISZERO ISZERO DUP2 MSTORE POP POP SWAP1 POP DUP1 DUP4 DUP4 DUP2 MLOAD DUP2 LT PUSH2 0x110E JUMPI PUSH32 0x4E487B7100000000000000000000000000000000000000000000000000000000 PUSH1 0x0 MSTORE PUSH1 0x32 PUSH1 0x4 MSTORE PUSH1 0x24 PUSH1 0x0 REVERT JUMPDEST PUSH1 0x20 MUL PUSH1 0x20 ADD ADD DUP2 SWAP1 MSTORE POP POP DUP1 DUP1 PUSH2 0x1125 SWAP1 PUSH2 0x2AEC JUMP JUMPDEST SWAP2 POP POP PUSH2 0xF84 JUMP JUMPDEST POP DUP1 SWAP3 POP POP POP SWAP2 SWAP1 POP JUMP JUMPDEST PUSH2 0x1140 PUSH2 0x11BC JUMP JUMPDEST PUSH1 0x0 PUSH20 0xFFFFFFFFFFFFFFFFFFFFFFFFFFFFFFFFFFFFFFFF AND DUP2 PUSH20 0xFFFFFFFFFFFFFFFFFFFFFFFFFFFFFFFFFFFFFFFF AND EQ ISZERO PUSH2 0x11B0 JUMPI PUSH1 0x40 MLOAD PUSH32 0x8C379A000000000000000000000000000000000000000000000000000000000 DUP2 MSTORE PUSH1 0x4 ADD PUSH2 0x11A7 SWAP1 PUSH2 0x283B JUMP JUMPDEST PUSH1 0x40 MLOAD DUP1 SWAP2 SUB SWAP1 REVERT JUMPDEST PUSH2 0x11B9 DUP2 PUSH2 0x123A JUMP JUMPDEST POP JUMP JUMPDEST PUSH2 0x11C4 PUSH2 0x1771 JUMP JUMPDEST PUSH20 0xFFFFFFFFFFFFFFFFFFFFFFFFFFFFFFFFFFFFFFFF AND PUSH2 0x11E2 PUSH2 0xA52 JUMP JUMPDEST PUSH20 0xFFFFFFFFFFFFFFFFFFFFFFFFFFFFFFFFFFFFFFFF AND EQ PUSH2 0x1238 JUMPI PUSH1 0x40 MLOAD PUSH32 0x8C379A000000000000000000000000000000000000000000000000000000000 DUP2 MSTORE PUSH1 0x4 ADD PUSH2 0x122F SWAP1 PUSH2 0x28FB JUMP JUMPDEST PUSH1 0x40 MLOAD DUP1 SWAP2 SUB SWAP1 REVERT JUMPDEST JUMP JUMPDEST PUSH1 0x0 DUP1 PUSH1 0x0 SWAP1 SLOAD SWAP1 PUSH2 0x100 EXP SWAP1 DIV PUSH20 0xFFFFFFFFFFFFFFFFFFFFFFFFFFFFFFFFFFFFFFFF AND SWAP1 POP DUP2 PUSH1 0x0 DUP1 PUSH2 0x100 EXP DUP2 SLOAD DUP2 PUSH20 0xFFFFFFFFFFFFFFFFFFFFFFFFFFFFFFFFFFFFFFFF MUL NOT AND SWAP1 DUP4 PUSH20 0xFFFFFFFFFFFFFFFFFFFFFFFFFFFFFFFFFFFFFFFF AND MUL OR SWAP1 SSTORE POP DUP2 PUSH20 0xFFFFFFFFFFFFFFFFFFFFFFFFFFFFFFFFFFFFFFFF AND DUP2 PUSH20 0xFFFFFFFFFFFFFFFFFFFFFFFFFFFFFFFFFFFFFFFF AND PUSH32 0x8BE0079C531659141344CD1FD0A4F28419497F9722A3DAAFE3B4186F6B6457E0 PUSH1 0x40 MLOAD PUSH1 0x40 MLOAD DUP1 SWAP2 SUB SWAP1 LOG3 POP POP JUMP JUMPDEST POP JUMP JUMPDEST PUSH2 0x1309 PUSH2 0x1E3B JUMP JUMPDEST PUSH1 0x0 PUSH2 0x1373 PUSH32 0x10F37C780798F8D6CCC5DEBA550B287B1CCEF3A50B9007536DC9CE57C6F06683 DUP6 PUSH1 0x0 ADD MLOAD DUP1 MLOAD SWAP1 PUSH1 0x20 ADD KECCAK256 DUP7 PUSH1 0x20 ADD MLOAD DUP8 PUSH1 0x40 ADD MLOAD PUSH1 0x40 MLOAD PUSH1 0x20 ADD PUSH2 0x1358 SWAP5 SWAP4 SWAP3 SWAP2 SWAP1 PUSH2 0x26FE JUMP JUMPDEST PUSH1 0x40 MLOAD PUSH1 0x20 DUP2 DUP4 SUB SUB DUP2 MSTORE SWAP1 PUSH1 0x40 MSTORE DUP1 MLOAD SWAP1 PUSH1 0x20 ADD KECCAK256 PUSH2 0x1779 JUMP JUMPDEST SWAP1 POP PUSH1 0x0 PUSH2 0x1381 DUP3 DUP6 PUSH2 0x1793 JUMP JUMPDEST SWAP1 POP PUSH1 0x0 PUSH1 0x1 PUSH1 0x0 SWAP1 SLOAD SWAP1 PUSH2 0x100 EXP SWAP1 DIV PUSH20 0xFFFFFFFFFFFFFFFFFFFFFFFFFFFFFFFFFFFFFFFF AND PUSH20 0xFFFFFFFFFFFFFFFFFFFFFFFFFFFFFFFFFFFFFFFF AND PUSH4 0x58CFB5FF DUP4 PUSH1 0x40 MLOAD DUP3 PUSH4 0xFFFFFFFF AND PUSH1 0xE0 SHL DUP2 MSTORE PUSH1 0x4 ADD PUSH2 0x13E0 SWAP2 SWAP1 PUSH2 0x2662 JUMP JUMPDEST PUSH1 0x20 PUSH1 0x40 MLOAD DUP1 DUP4 SUB DUP2 DUP7 DUP1 EXTCODESIZE ISZERO DUP1 ISZERO PUSH2 0x13F8 JUMPI PUSH1 0x0 DUP1 REVERT JUMPDEST POP GAS STATICCALL ISZERO DUP1 ISZERO PUSH2 0x140C JUMPI RETURNDATASIZE PUSH1 0x0 DUP1 RETURNDATACOPY RETURNDATASIZE PUSH1 0x0 REVERT JUMPDEST POP POP POP POP PUSH1 0x40 MLOAD RETURNDATASIZE PUSH1 0x1F NOT PUSH1 0x1F DUP3 ADD AND DUP3 ADD DUP1 PUSH1 0x40 MSTORE POP DUP2 ADD SWAP1 PUSH2 0x1430 SWAP2 SWAP1 PUSH2 0x2091 JUMP JUMPDEST SWAP1 POP PUSH1 0x1 PUSH1 0x0 SWAP1 SLOAD SWAP1 PUSH2 0x100 EXP SWAP1 DIV PUSH20 0xFFFFFFFFFFFFFFFFFFFFFFFFFFFFFFFFFFFFFFFF AND PUSH20 0xFFFFFFFFFFFFFFFFFFFFFFFFFFFFFFFFFFFFFFFF AND PUSH4 0x1AEDD94 DUP4 PUSH1 0x40 MLOAD DUP3 PUSH4 0xFFFFFFFF AND PUSH1 0xE0 SHL DUP2 MSTORE PUSH1 0x4 ADD PUSH2 0x148D SWAP2 SWAP1 PUSH2 0x2662 JUMP JUMPDEST PUSH1 0x0 PUSH1 0x40 MLOAD DUP1 DUP4 SUB DUP2 DUP7 DUP1 EXTCODESIZE ISZERO DUP1 ISZERO PUSH2 0x14A5 JUMPI PUSH1 0x0 DUP1 REVERT JUMPDEST POP GAS STATICCALL ISZERO DUP1 ISZERO PUSH2 0x14B9 JUMPI RETURNDATASIZE PUSH1 0x0 DUP1 RETURNDATACOPY RETURNDATASIZE PUSH1 0x0 REVERT JUMPDEST POP POP POP POP TIMESTAMP DUP7 PUSH1 0x40 ADD MLOAD GT PUSH2 0x1503 JUMPI PUSH1 0x40 MLOAD PUSH32 0x8C379A000000000000000000000000000000000000000000000000000000000 DUP2 MSTORE PUSH1 0x4 ADD PUSH2 0x14FA SWAP1 PUSH2 0x287B JUMP JUMPDEST PUSH1 0x40 MLOAD DUP1 SWAP2 SUB SWAP1 REVERT JUMPDEST PUSH1 0x0 PUSH1 0x40 MLOAD DUP1 PUSH1 0xC0 ADD PUSH1 0x40 MSTORE DUP1 PUSH1 0x0 DUP1 SHL DUP2 MSTORE PUSH1 0x20 ADD DUP4 PUSH20 0xFFFFFFFFFFFFFFFFFFFFFFFFFFFFFFFFFFFFFFFF AND DUP2 MSTORE PUSH1 0x20 ADD DUP9 PUSH1 0x20 ADD MLOAD PUSH20 0xFFFFFFFFFFFFFFFFFFFFFFFFFFFFFFFFFFFFFFFF AND DUP2 MSTORE PUSH1 0x20 ADD TIMESTAMP DUP2 MSTORE PUSH1 0x20 ADD DUP9 PUSH1 0x40 ADD MLOAD DUP2 MSTORE PUSH1 0x20 ADD PUSH1 0x0 ISZERO ISZERO DUP2 MSTORE POP SWAP1 POP PUSH1 0x0 PUSH2 0x1579 DUP3 PUSH2 0x17BA JUMP JUMPDEST SWAP1 POP DUP1 DUP3 PUSH1 0x0 ADD DUP2 DUP2 MSTORE POP POP DUP2 SWAP6 POP POP POP POP POP POP SWAP3 SWAP2 POP POP JUMP JUMPDEST PUSH1 0x5 PUSH1 0x0 DUP2 SLOAD DUP1 SWAP3 SWAP2 SWAP1 PUSH2 0x15A6 SWAP1 PUSH2 0x2AEC JUMP JUMPDEST SWAP2 SWAP1 POP SSTORE POP DUP1 PUSH1 0x2 PUSH1 0x0 DUP4 PUSH1 0x0 ADD MLOAD DUP2 MSTORE PUSH1 0x20 ADD SWAP1 DUP2 MSTORE PUSH1 0x20 ADD PUSH1 0x0 KECCAK256 PUSH1 0x0 DUP3 ADD MLOAD DUP2 PUSH1 0x0 ADD SSTORE PUSH1 0x20 DUP3 ADD MLOAD DUP2 PUSH1 0x1 ADD PUSH1 0x0 PUSH2 0x100 EXP DUP2 SLOAD DUP2 PUSH20 0xFFFFFFFFFFFFFFFFFFFFFFFFFFFFFFFFFFFFFFFF MUL NOT AND SWAP1 DUP4 PUSH20 0xFFFFFFFFFFFFFFFFFFFFFFFFFFFFFFFFFFFFFFFF AND MUL OR SWAP1 SSTORE POP PUSH1 0x40 DUP3 ADD MLOAD DUP2 PUSH1 0x2 ADD PUSH1 0x0 PUSH2 0x100 EXP DUP2 SLOAD DUP2 PUSH20 0xFFFFFFFFFFFFFFFFFFFFFFFFFFFFFFFFFFFFFFFF MUL NOT AND SWAP1 DUP4 PUSH20 0xFFFFFFFFFFFFFFFFFFFFFFFFFFFFFFFFFFFFFFFF AND MUL OR SWAP1 SSTORE POP PUSH1 0x60 DUP3 ADD MLOAD DUP2 PUSH1 0x3 ADD SSTORE PUSH1 0x80 DUP3 ADD MLOAD DUP2 PUSH1 0x4 ADD SSTORE PUSH1 0xA0 DUP3 ADD MLOAD DUP2 PUSH1 0x5 ADD PUSH1 0x0 PUSH2 0x100 EXP DUP2 SLOAD DUP2 PUSH1 0xFF MUL NOT AND SWAP1 DUP4 ISZERO ISZERO MUL OR SWAP1 SSTORE POP SWAP1 POP POP PUSH1 0x3 PUSH1 0x0 DUP3 PUSH1 0x40 ADD MLOAD PUSH20 0xFFFFFFFFFFFFFFFFFFFFFFFFFFFFFFFFFFFFFFFF AND PUSH20 0xFFFFFFFFFFFFFFFFFFFFFFFFFFFFFFFFFFFFFFFF AND DUP2 MSTORE PUSH1 0x20 ADD SWAP1 DUP2 MSTORE PUSH1 0x20 ADD PUSH1 0x0 KECCAK256 DUP2 PUSH1 0x0 ADD MLOAD SWAP1 DUP1 PUSH1 0x1 DUP2 SLOAD ADD DUP1 DUP3 SSTORE DUP1 SWAP2 POP POP PUSH1 0x1 SWAP1 SUB SWAP1 PUSH1 0x0 MSTORE PUSH1 0x20 PUSH1 0x0 KECCAK256 ADD PUSH1 0x0 SWAP1 SWAP2 SWAP1 SWAP2 SWAP1 SWAP2 POP SSTORE PUSH1 0x4 PUSH1 0x0 DUP3 PUSH1 0x20 ADD MLOAD PUSH20 0xFFFFFFFFFFFFFFFFFFFFFFFFFFFFFFFFFFFFFFFF AND PUSH20 0xFFFFFFFFFFFFFFFFFFFFFFFFFFFFFFFFFFFFFFFF AND DUP2 MSTORE PUSH1 0x20 ADD SWAP1 DUP2 MSTORE PUSH1 0x20 ADD PUSH1 0x0 KECCAK256 DUP2 PUSH1 0x0 ADD MLOAD SWAP1 DUP1 PUSH1 0x1 DUP2 SLOAD ADD DUP1 DUP3 SSTORE DUP1 SWAP2 POP POP PUSH1 0x1 SWAP1 SUB SWAP1 PUSH1 0x0 MSTORE PUSH1 0x20 PUSH1 0x0 KECCAK256 ADD PUSH1 0x0 SWAP1 SWAP2 SWAP1 SWAP2 SWAP1 SWAP2 POP SSTORE POP JUMP JUMPDEST PUSH1 0x0 CALLER SWAP1 POP SWAP1 JUMP JUMPDEST PUSH1 0x0 PUSH2 0x178C PUSH2 0x1786 PUSH2 0x1804 JUMP JUMPDEST DUP4 PUSH2 0x191E JUMP JUMPDEST SWAP1 POP SWAP2 SWAP1 POP JUMP JUMPDEST PUSH1 0x0 DUP1 PUSH1 0x0 PUSH2 0x17A2 DUP6 DUP6 PUSH2 0x1951 JUMP JUMPDEST SWAP2 POP SWAP2 POP PUSH2 0x17AF DUP2 PUSH2 0x19A3 JUMP JUMPDEST DUP2 SWAP3 POP POP POP SWAP3 SWAP2 POP POP JUMP JUMPDEST PUSH1 0x0 DUP2 PUSH1 0x20 ADD MLOAD DUP3 PUSH1 0x40 ADD MLOAD DUP4 PUSH1 0x60 ADD MLOAD DUP5 PUSH1 0x80 ADD MLOAD PUSH1 0x5 SLOAD PUSH1 0x40 MLOAD PUSH1 0x20 ADD PUSH2 0x17E7 SWAP6 SWAP5 SWAP4 SWAP3 SWAP2 SWAP1 PUSH2 0x25CC JUMP JUMPDEST PUSH1 0x40 MLOAD PUSH1 0x20 DUP2 DUP4 SUB SUB DUP2 MSTORE SWAP1 PUSH1 0x40 MSTORE DUP1 MLOAD SWAP1 PUSH1 0x20 ADD KECCAK256 SWAP1 POP SWAP2 SWAP1 POP JUMP JUMPDEST PUSH1 0x0 PUSH32 0x0 PUSH20 0xFFFFFFFFFFFFFFFFFFFFFFFFFFFFFFFFFFFFFFFF AND ADDRESS PUSH20 0xFFFFFFFFFFFFFFFFFFFFFFFFFFFFFFFFFFFFFFFF AND EQ DUP1 ISZERO PUSH2 0x1880 JUMPI POP PUSH32 0x0 CHAINID EQ JUMPDEST ISZERO PUSH2 0x18AD JUMPI PUSH32 0x0 SWAP1 POP PUSH2 0x191B JUMP JUMPDEST PUSH2 0x1918 PUSH32 0x0 PUSH32 0x0 PUSH32 0x0 PUSH2 0x1CF4 JUMP JUMPDEST SWAP1 POP JUMPDEST SWAP1 JUMP JUMPDEST PUSH1 0x0 DUP3 DUP3 PUSH1 0x40 MLOAD PUSH1 0x20 ADD PUSH2 0x1933 SWAP3 SWAP2 SWAP1 PUSH2 0x262B JUMP JUMPDEST PUSH1 0x40 MLOAD PUSH1 0x20 DUP2 DUP4 SUB SUB DUP2 MSTORE SWAP1 PUSH1 0x40 MSTORE DUP1 MLOAD SWAP1 PUSH1 0x20 ADD KECCAK256 SWAP1 POP SWAP3 SWAP2 POP POP JUMP JUMPDEST PUSH1 0x0 DUP1 PUSH1 0x41 DUP4 MLOAD EQ ISZERO PUSH2 0x1993 JUMPI PUSH1 0x0 DUP1 PUSH1 0x0 PUSH1 0x20 DUP7 ADD MLOAD SWAP3 POP PUSH1 0x40 DUP7 ADD MLOAD SWAP2 POP PUSH1 0x60 DUP7 ADD MLOAD PUSH1 0x0 BYTE SWAP1 POP PUSH2 0x1987 DUP8 DUP3 DUP6 DUP6 PUSH2 0x1D2E JUMP JUMPDEST SWAP5 POP SWAP5 POP POP POP POP PUSH2 0x199C JUMP JUMPDEST PUSH1 0x0 PUSH1 0x2 SWAP2 POP SWAP2 POP JUMPDEST SWAP3 POP SWAP3 SWAP1 POP JUMP JUMPDEST PUSH1 0x0 PUSH1 0x4 DUP2 GT ISZERO PUSH2 0x19DD JUMPI PUSH32 0x4E487B7100000000000000000000000000000000000000000000000000000000 PUSH1 0x0 MSTORE PUSH1 0x21 PUSH1 0x4 MSTORE PUSH1 0x24 PUSH1 0x0 REVERT JUMPDEST DUP2 PUSH1 0x4 DUP2 GT ISZERO PUSH2 0x1A16 JUMPI PUSH32 0x4E487B7100000000000000000000000000000000000000000000000000000000 PUSH1 0x0 MSTORE PUSH1 0x21 PUSH1 0x4 MSTORE PUSH1 0x24 PUSH1 0x0 REVERT JUMPDEST EQ ISZERO PUSH2 0x1A21 JUMPI PUSH2 0x1CF1 JUMP JUMPDEST PUSH1 0x1 PUSH1 0x4 DUP2 GT ISZERO PUSH2 0x1A5B JUMPI PUSH32 0x4E487B7100000000000000000000000000000000000000000000000000000000 PUSH1 0x0 MSTORE PUSH1 0x21 PUSH1 0x4 MSTORE PUSH1 0x24 PUSH1 0x0 REVERT JUMPDEST DUP2 PUSH1 0x4 DUP2 GT ISZERO PUSH2 0x1A94 JUMPI PUSH32 0x4E487B7100000000000000000000000000000000000000000000000000000000 PUSH1 0x0 MSTORE PUSH1 0x21 PUSH1 0x4 MSTORE PUSH1 0x24 PUSH1 0x0 REVERT JUMPDEST EQ ISZERO PUSH2 0x1AD5 JUMPI PUSH1 0x40 MLOAD PUSH32 0x8C379A000000000000000000000000000000000000000000000000000000000 DUP2 MSTORE PUSH1 0x4 ADD PUSH2 0x1ACC SWAP1 PUSH2 0x27DB JUMP JUMPDEST PUSH1 0x40 MLOAD DUP1 SWAP2 SUB SWAP1 REVERT JUMPDEST PUSH1 0x2 PUSH1 0x4 DUP2 GT ISZERO PUSH2 0x1B0F JUMPI PUSH32 0x4E487B7100000000000000000000000000000000000000000000000000000000 PUSH1 0x0 MSTORE PUSH1 0x21 PUSH1 0x4 MSTORE PUSH1 0x24 PUSH1 0x0 REVERT JUMPDEST DUP2 PUSH1 0x4 DUP2 GT ISZERO PUSH2 0x1B48 JUMPI PUSH32 0x4E487B7100000000000000000000000000000000000000000000000000000000 PUSH1 0x0 MSTORE PUSH1 0x21 PUSH1 0x4 MSTORE PUSH1 0x24 PUSH1 0x0 REVERT JUMPDEST EQ ISZERO PUSH2 0x1B89 JUMPI PUSH1 0x40 MLOAD PUSH32 0x8C379A000000000000000000000000000000000000000000000000000000000 DUP2 MSTORE PUSH1 0x4 ADD PUSH2 0x1B80 SWAP1 PUSH2 0x27FB JUMP JUMPDEST PUSH1 0x40 MLOAD DUP1 SWAP2 SUB SWAP1 REVERT JUMPDEST PUSH1 0x3 PUSH1 0x4 DUP2 GT ISZERO PUSH2 0x1BC3 JUMPI PUSH32 0x4E487B7100000000000000000000000000000000000000000000000000000000 PUSH1 0x0 MSTORE PUSH1 0x21 PUSH1 0x4 MSTORE PUSH1 0x24 PUSH1 0x0 REVERT JUMPDEST DUP2 PUSH1 0x4 DUP2 GT ISZERO PUSH2 0x1BFC JUMPI PUSH32 0x4E487B7100000000000000000000000000000000000000000000000000000000 PUSH1 0x0 MSTORE PUSH1 0x21 PUSH1 0x4 MSTORE PUSH1 0x24 PUSH1 0x0 REVERT JUMPDEST EQ ISZERO PUSH2 0x1C3D JUMPI PUSH1 0x40 MLOAD PUSH32 0x8C379A000000000000000000000000000000000000000000000000000000000 DUP2 MSTORE PUSH1 0x4 ADD PUSH2 0x1C34 SWAP1 PUSH2 0x285B JUMP JUMPDEST PUSH1 0x40 MLOAD DUP1 SWAP2 SUB SWAP1 REVERT JUMPDEST PUSH1 0x4 DUP1 DUP2 GT ISZERO PUSH2 0x1C76 JUMPI PUSH32 0x4E487B7100000000000000000000000000000000000000000000000000000000 PUSH1 0x0 MSTORE PUSH1 0x21 PUSH1 0x4 MSTORE PUSH1 0x24 PUSH1 0x0 REVERT JUMPDEST DUP2 PUSH1 0x4 DUP2 GT ISZERO PUSH2 0x1CAF JUMPI PUSH32 0x4E487B7100000000000000000000000000000000000000000000000000000000 PUSH1 0x0 MSTORE PUSH1 0x21 PUSH1 0x4 MSTORE PUSH1 0x24 PUSH1 0x0 REVERT JUMPDEST EQ ISZERO PUSH2 0x1CF0 JUMPI PUSH1 0x40 MLOAD PUSH32 0x8C379A000000000000000000000000000000000000000000000000000000000 DUP2 MSTORE PUSH1 0x4 ADD PUSH2 0x1CE7 SWAP1 PUSH2 0x28BB JUMP JUMPDEST PUSH1 0x40 MLOAD DUP1 SWAP2 SUB SWAP1 REVERT JUMPDEST JUMPDEST POP JUMP JUMPDEST PUSH1 0x0 DUP4 DUP4 DUP4 CHAINID ADDRESS PUSH1 0x40 MLOAD PUSH1 0x20 ADD PUSH2 0x1D0F SWAP6 SWAP5 SWAP4 SWAP3 SWAP2 SWAP1 PUSH2 0x2743 JUMP JUMPDEST PUSH1 0x40 MLOAD PUSH1 0x20 DUP2 DUP4 SUB SUB DUP2 MSTORE SWAP1 PUSH1 0x40 MSTORE DUP1 MLOAD SWAP1 PUSH1 0x20 ADD KECCAK256 SWAP1 POP SWAP4 SWAP3 POP POP POP JUMP JUMPDEST PUSH1 0x0 DUP1 PUSH32 0x7FFFFFFFFFFFFFFFFFFFFFFFFFFFFFFF5D576E7357A4501DDFE92F46681B20A0 DUP4 PUSH1 0x0 SHR GT ISZERO PUSH2 0x1D69 JUMPI PUSH1 0x0 PUSH1 0x3 SWAP2 POP SWAP2 POP PUSH2 0x1E32 JUMP JUMPDEST PUSH1 0x1B DUP6 PUSH1 0xFF AND EQ ISZERO DUP1 ISZERO PUSH2 0x1D81 JUMPI POP PUSH1 0x1C DUP6 PUSH1 0xFF AND EQ ISZERO JUMPDEST ISZERO PUSH2 0x1D93 JUMPI PUSH1 0x0 PUSH1 0x4 SWAP2 POP SWAP2 POP PUSH2 0x1E32 JUMP JUMPDEST PUSH1 0x0 PUSH1 0x1 DUP8 DUP8 DUP8 DUP8 PUSH1 0x40 MLOAD PUSH1 0x0 DUP2 MSTORE PUSH1 0x20 ADD PUSH1 0x40 MSTORE PUSH1 0x40 MLOAD PUSH2 0x1DB8 SWAP5 SWAP4 SWAP3 SWAP2 SWAP1 PUSH2 0x2796 JUMP JUMPDEST PUSH1 0x20 PUSH1 0x40 MLOAD PUSH1 0x20 DUP2 SUB SWAP1 DUP1 DUP5 SUB SWAP1 DUP6 GAS STATICCALL ISZERO DUP1 ISZERO PUSH2 0x1DDA JUMPI RETURNDATASIZE PUSH1 0x0 DUP1 RETURNDATACOPY RETURNDATASIZE PUSH1 0x0 REVERT JUMPDEST POP POP POP PUSH1 0x20 PUSH1 0x40 MLOAD SUB MLOAD SWAP1 POP PUSH1 0x0 PUSH20 0xFFFFFFFFFFFFFFFFFFFFFFFFFFFFFFFFFFFFFFFF AND DUP2 PUSH20 0xFFFFFFFFFFFFFFFFFFFFFFFFFFFFFFFFFFFFFFFF AND EQ ISZERO PUSH2 0x1E29 JUMPI PUSH1 0x0 PUSH1 0x1 SWAP3 POP SWAP3 POP POP PUSH2 0x1E32 JUMP JUMPDEST DUP1 PUSH1 0x0 SWAP3 POP SWAP3 POP POP JUMPDEST SWAP5 POP SWAP5 SWAP3 POP POP POP JUMP JUMPDEST PUSH1 0x40 MLOAD DUP1 PUSH1 0xC0 ADD PUSH1 0x40 MSTORE DUP1 PUSH1 0x0 DUP1 NOT AND DUP2 MSTORE PUSH1 0x20 ADD PUSH1 0x0 PUSH20 0xFFFFFFFFFFFFFFFFFFFFFFFFFFFFFFFFFFFFFFFF AND DUP2 MSTORE PUSH1 0x20 ADD PUSH1 0x0 PUSH20 0xFFFFFFFFFFFFFFFFFFFFFFFFFFFFFFFFFFFFFFFF AND DUP2 MSTORE PUSH1 0x20 ADD PUSH1 0x0 DUP2 MSTORE PUSH1 0x20 ADD PUSH1 0x0 DUP2 MSTORE PUSH1 0x20 ADD PUSH1 0x0 ISZERO ISZERO DUP2 MSTORE POP SWAP1 JUMP JUMPDEST PUSH1 0x0 PUSH2 0x1EB5 PUSH2 0x1EB0 DUP5 PUSH2 0x2996 JUMP JUMPDEST PUSH2 0x2971 JUMP JUMPDEST SWAP1 POP DUP3 DUP2 MSTORE PUSH1 0x20 DUP2 ADD DUP5 DUP5 DUP5 ADD GT ISZERO PUSH2 0x1ECD JUMPI PUSH1 0x0 DUP1 REVERT JUMPDEST PUSH2 0x1ED8 DUP5 DUP3 DUP6 PUSH2 0x2AAC JUMP JUMPDEST POP SWAP4 SWAP3 POP POP POP JUMP JUMPDEST PUSH1 0x0 PUSH2 0x1EF3 PUSH2 0x1EEE DUP5 PUSH2 0x29C7 JUMP JUMPDEST PUSH2 0x2971 JUMP JUMPDEST SWAP1 POP DUP3 DUP2 MSTORE PUSH1 0x20 DUP2 ADD DUP5 DUP5 DUP5 ADD GT ISZERO PUSH2 0x1F0B JUMPI PUSH1 0x0 DUP1 REVERT JUMPDEST PUSH2 0x1F16 DUP5 DUP3 DUP6 PUSH2 0x2AAC JUMP JUMPDEST POP SWAP4 SWAP3 POP POP POP JUMP JUMPDEST PUSH1 0x0 DUP2 CALLDATALOAD SWAP1 POP PUSH2 0x1F2D DUP2 PUSH2 0x2F05 JUMP JUMPDEST SWAP3 SWAP2 POP POP JUMP JUMPDEST PUSH1 0x0 DUP2 MLOAD SWAP1 POP PUSH2 0x1F42 DUP2 PUSH2 0x2F05 JUMP JUMPDEST SWAP3 SWAP2 POP POP JUMP JUMPDEST PUSH1 0x0 DUP2 MLOAD SWAP1 POP PUSH2 0x1F57 DUP2 PUSH2 0x2F1C JUMP JUMPDEST SWAP3 SWAP2 POP POP JUMP JUMPDEST PUSH1 0x0 DUP2 CALLDATALOAD SWAP1 POP PUSH2 0x1F6C DUP2 PUSH2 0x2F33 JUMP JUMPDEST SWAP3 SWAP2 POP POP JUMP JUMPDEST PUSH1 0x0 DUP3 PUSH1 0x1F DUP4 ADD SLT PUSH2 0x1F83 JUMPI PUSH1 0x0 DUP1 REVERT JUMPDEST DUP2 CALLDATALOAD PUSH2 0x1F93 DUP5 DUP3 PUSH1 0x20 DUP7 ADD PUSH2 0x1EA2 JUMP JUMPDEST SWAP2 POP POP SWAP3 SWAP2 POP POP JUMP JUMPDEST PUSH1 0x0 DUP3 PUSH1 0x1F DUP4 ADD SLT PUSH2 0x1FAD JUMPI PUSH1 0x0 DUP1 REVERT JUMPDEST DUP2 CALLDATALOAD PUSH2 0x1FBD DUP5 DUP3 PUSH1 0x20 DUP7 ADD PUSH2 0x1EE0 JUMP JUMPDEST SWAP2 POP POP SWAP3 SWAP2 POP POP JUMP JUMPDEST PUSH1 0x0 PUSH1 0x60 DUP3 DUP5 SUB SLT ISZERO PUSH2 0x1FD8 JUMPI PUSH1 0x0 DUP1 REVERT JUMPDEST PUSH2 0x1FE2 PUSH1 0x60 PUSH2 0x2971 JUMP JUMPDEST SWAP1 POP PUSH1 0x0 DUP3 ADD CALLDATALOAD PUSH8 0xFFFFFFFFFFFFFFFF DUP2 GT ISZERO PUSH2 0x1FFE JUMPI PUSH1 0x0 DUP1 REVERT JUMPDEST PUSH2 0x200A DUP5 DUP3 DUP6 ADD PUSH2 0x1F9C JUMP JUMPDEST PUSH1 0x0 DUP4 ADD MSTORE POP PUSH1 0x20 PUSH2 0x201E DUP5 DUP3 DUP6 ADD PUSH2 0x1F1E JUMP JUMPDEST PUSH1 0x20 DUP4 ADD MSTORE POP PUSH1 0x40 PUSH2 0x2032 DUP5 DUP3 DUP6 ADD PUSH2 0x203E JUMP JUMPDEST PUSH1 0x40 DUP4 ADD MSTORE POP SWAP3 SWAP2 POP POP JUMP JUMPDEST PUSH1 0x0 DUP2 CALLDATALOAD SWAP1 POP PUSH2 0x204D DUP2 PUSH2 0x2F4A JUMP JUMPDEST SWAP3 SWAP2 POP POP JUMP JUMPDEST PUSH1 0x0 DUP2 MLOAD SWAP1 POP PUSH2 0x2062 DUP2 PUSH2 0x2F4A JUMP JUMPDEST SWAP3 SWAP2 POP POP JUMP JUMPDEST PUSH1 0x0 PUSH1 0x20 DUP3 DUP5 SUB SLT ISZERO PUSH2 0x207A JUMPI PUSH1 0x0 DUP1 REVERT JUMPDEST PUSH1 0x0 PUSH2 0x2088 DUP5 DUP3 DUP6 ADD PUSH2 0x1F1E JUMP JUMPDEST SWAP2 POP POP SWAP3 SWAP2 POP POP JUMP JUMPDEST PUSH1 0x0 PUSH1 0x20 DUP3 DUP5 SUB SLT ISZERO PUSH2 0x20A3 JUMPI PUSH1 0x0 DUP1 REVERT JUMPDEST PUSH1 0x0 PUSH2 0x20B1 DUP5 DUP3 DUP6 ADD PUSH2 0x1F33 JUMP JUMPDEST SWAP2 POP POP SWAP3 SWAP2 POP POP JUMP JUMPDEST PUSH1 0x0 DUP1 PUSH1 0x0 PUSH1 0x60 DUP5 DUP7 SUB SLT ISZERO PUSH2 0x20CF JUMPI PUSH1 0x0 DUP1 REVERT JUMPDEST PUSH1 0x0 PUSH2 0x20DD DUP7 DUP3 DUP8 ADD PUSH2 0x1F1E JUMP JUMPDEST SWAP4 POP POP PUSH1 0x20 PUSH2 0x20EE DUP7 DUP3 DUP8 ADD PUSH2 0x1F1E JUMP JUMPDEST SWAP3 POP POP PUSH1 0x40 PUSH2 0x20FF DUP7 DUP3 DUP8 ADD PUSH2 0x203E JUMP JUMPDEST SWAP2 POP POP SWAP3 POP SWAP3 POP SWAP3 JUMP JUMPDEST PUSH1 0x0 PUSH1 0x20 DUP3 DUP5 SUB SLT ISZERO PUSH2 0x211B JUMPI PUSH1 0x0 DUP1 REVERT JUMPDEST PUSH1 0x0 PUSH2 0x2129 DUP5 DUP3 DUP6 ADD PUSH2 0x1F48 JUMP JUMPDEST SWAP2 POP POP SWAP3 SWAP2 POP POP JUMP JUMPDEST PUSH1 0x0 PUSH1 0x20 DUP3 DUP5 SUB SLT ISZERO PUSH2 0x2144 JUMPI PUSH1 0x0 DUP1 REVERT JUMPDEST PUSH1 0x0 PUSH2 0x2152 DUP5 DUP3 DUP6 ADD PUSH2 0x1F5D JUMP JUMPDEST SWAP2 POP POP SWAP3 SWAP2 POP POP JUMP JUMPDEST PUSH1 0x0 DUP1 PUSH1 0x40 DUP4 DUP6 SUB SLT ISZERO PUSH2 0x216E JUMPI PUSH1 0x0 DUP1 REVERT JUMPDEST PUSH1 0x0 DUP4 ADD CALLDATALOAD PUSH8 0xFFFFFFFFFFFFFFFF DUP2 GT ISZERO PUSH2 0x2188 JUMPI PUSH1 0x0 DUP1 REVERT JUMPDEST PUSH2 0x2194 DUP6 DUP3 DUP7 ADD PUSH2 0x1FC6 JUMP JUMPDEST SWAP3 POP POP PUSH1 0x20 DUP4 ADD CALLDATALOAD PUSH8 0xFFFFFFFFFFFFFFFF DUP2 GT ISZERO PUSH2 0x21B1 JUMPI PUSH1 0x0 DUP1 REVERT JUMPDEST PUSH2 0x21BD DUP6 DUP3 DUP7 ADD PUSH2 0x1F72 JUMP JUMPDEST SWAP2 POP POP SWAP3 POP SWAP3 SWAP1 POP JUMP JUMPDEST PUSH1 0x0 PUSH1 0x20 DUP3 DUP5 SUB SLT ISZERO PUSH2 0x21D9 JUMPI PUSH1 0x0 DUP1 REVERT JUMPDEST PUSH1 0x0 PUSH2 0x21E7 DUP5 DUP3 DUP6 ADD PUSH2 0x2053 JUMP JUMPDEST SWAP2 POP POP SWAP3 SWAP2 POP POP JUMP JUMPDEST PUSH1 0x0 PUSH2 0x21FC DUP4 DUP4 PUSH2 0x2492 JUMP JUMPDEST PUSH1 0xC0 DUP4 ADD SWAP1 POP SWAP3 SWAP2 POP POP JUMP JUMPDEST PUSH2 0x2211 DUP2 PUSH2 0x2A4D JUMP JUMPDEST DUP3 MSTORE POP POP JUMP JUMPDEST PUSH2 0x2220 DUP2 PUSH2 0x2A4D JUMP JUMPDEST DUP3 MSTORE POP POP JUMP JUMPDEST PUSH2 0x2237 PUSH2 0x2232 DUP3 PUSH2 0x2A4D JUMP JUMPDEST PUSH2 0x2B35 JUMP JUMPDEST DUP3 MSTORE POP POP JUMP JUMPDEST PUSH1 0x0 PUSH2 0x2248 DUP3 PUSH2 0x2A08 JUMP JUMPDEST PUSH2 0x2252 DUP2 DUP6 PUSH2 0x2A20 JUMP JUMPDEST SWAP4 POP PUSH2 0x225D DUP4 PUSH2 0x29F8 JUMP JUMPDEST DUP1 PUSH1 0x0 JUMPDEST DUP4 DUP2 LT ISZERO PUSH2 0x228E JUMPI DUP2 MLOAD PUSH2 0x2275 DUP9 DUP3 PUSH2 0x21F0 JUMP JUMPDEST SWAP8 POP PUSH2 0x2280 DUP4 PUSH2 0x2A13 JUMP JUMPDEST SWAP3 POP POP PUSH1 0x1 DUP2 ADD SWAP1 POP PUSH2 0x2261 JUMP JUMPDEST POP DUP6 SWAP4 POP POP POP POP SWAP3 SWAP2 POP POP JUMP JUMPDEST PUSH2 0x22A4 DUP2 PUSH2 0x2A5F JUMP JUMPDEST DUP3 MSTORE POP POP JUMP JUMPDEST PUSH2 0x22B3 DUP2 PUSH2 0x2A5F JUMP JUMPDEST DUP3 MSTORE POP POP JUMP JUMPDEST PUSH2 0x22C2 DUP2 PUSH2 0x2A6B JUMP JUMPDEST DUP3 MSTORE POP POP JUMP JUMPDEST PUSH2 0x22D1 DUP2 PUSH2 0x2A6B JUMP JUMPDEST DUP3 MSTORE POP POP JUMP JUMPDEST PUSH2 0x22E8 PUSH2 0x22E3 DUP3 PUSH2 0x2A6B JUMP JUMPDEST PUSH2 0x2B47 JUMP JUMPDEST DUP3 MSTORE POP POP JUMP JUMPDEST PUSH1 0x0 PUSH2 0x22FB PUSH1 0x18 DUP4 PUSH2 0x2A31 JUMP JUMPDEST SWAP2 POP PUSH2 0x2306 DUP3 PUSH2 0x2BE9 JUMP JUMPDEST PUSH1 0x20 DUP3 ADD SWAP1 POP SWAP2 SWAP1 POP JUMP JUMPDEST PUSH1 0x0 PUSH2 0x231E PUSH1 0x1F DUP4 PUSH2 0x2A31 JUMP JUMPDEST SWAP2 POP PUSH2 0x2329 DUP3 PUSH2 0x2C12 JUMP JUMPDEST PUSH1 0x20 DUP3 ADD SWAP1 POP SWAP2 SWAP1 POP JUMP JUMPDEST PUSH1 0x0 PUSH2 0x2341 PUSH1 0x2B DUP4 PUSH2 0x2A31 JUMP JUMPDEST SWAP2 POP PUSH2 0x234C DUP3 PUSH2 0x2C3B JUMP JUMPDEST PUSH1 0x40 DUP3 ADD SWAP1 POP SWAP2 SWAP1 POP JUMP JUMPDEST PUSH1 0x0 PUSH2 0x2364 PUSH1 0x26 DUP4 PUSH2 0x2A31 JUMP JUMPDEST SWAP2 POP PUSH2 0x236F DUP3 PUSH2 0x2C8A JUMP JUMPDEST PUSH1 0x40 DUP3 ADD SWAP1 POP SWAP2 SWAP1 POP JUMP JUMPDEST PUSH1 0x0 PUSH2 0x2387 PUSH1 0x2 DUP4 PUSH2 0x2A42 JUMP JUMPDEST SWAP2 POP PUSH2 0x2392 DUP3 PUSH2 0x2CD9 JUMP JUMPDEST PUSH1 0x2 DUP3 ADD SWAP1 POP SWAP2 SWAP1 POP JUMP JUMPDEST PUSH1 0x0 PUSH2 0x23AA PUSH1 0x22 DUP4 PUSH2 0x2A31 JUMP JUMPDEST SWAP2 POP PUSH2 0x23B5 DUP3 PUSH2 0x2D02 JUMP JUMPDEST PUSH1 0x40 DUP3 ADD SWAP1 POP SWAP2 SWAP1 POP JUMP JUMPDEST PUSH1 0x0 PUSH2 0x23CD PUSH1 0x3D DUP4 PUSH2 0x2A31 JUMP JUMPDEST SWAP2 POP PUSH2 0x23D8 DUP3 PUSH2 0x2D51 JUMP JUMPDEST PUSH1 0x40 DUP3 ADD SWAP1 POP SWAP2 SWAP1 POP JUMP JUMPDEST PUSH1 0x0 PUSH2 0x23F0 PUSH1 0x4F DUP4 PUSH2 0x2A31 JUMP JUMPDEST SWAP2 POP PUSH2 0x23FB DUP3 PUSH2 0x2DA0 JUMP JUMPDEST PUSH1 0x60 DUP3 ADD SWAP1 POP SWAP2 SWAP1 POP JUMP JUMPDEST PUSH1 0x0 PUSH2 0x2413 PUSH1 0x22 DUP4 PUSH2 0x2A31 JUMP JUMPDEST SWAP2 POP PUSH2 0x241E DUP3 PUSH2 0x2E15 JUMP JUMPDEST PUSH1 0x40 DUP3 ADD SWAP1 POP SWAP2 SWAP1 POP JUMP JUMPDEST PUSH1 0x0 PUSH2 0x2436 PUSH1 0x3F DUP4 PUSH2 0x2A31 JUMP JUMPDEST SWAP2 POP PUSH2 0x2441 DUP3 PUSH2 0x2E64 JUMP JUMPDEST PUSH1 0x40 DUP3 ADD SWAP1 POP SWAP2 SWAP1 POP JUMP JUMPDEST PUSH1 0x0 PUSH2 0x2459 PUSH1 0x20 DUP4 PUSH2 0x2A31 JUMP JUMPDEST SWAP2 POP PUSH2 0x2464 DUP3 PUSH2 0x2EB3 JUMP JUMPDEST PUSH1 0x20 DUP3 ADD SWAP1 POP SWAP2 SWAP1 POP JUMP JUMPDEST PUSH1 0x0 PUSH2 0x247C PUSH1 0xE DUP4 PUSH2 0x2A31 JUMP JUMPDEST SWAP2 POP PUSH2 0x2487 DUP3 PUSH2 0x2EDC JUMP JUMPDEST PUSH1 0x20 DUP3 ADD SWAP1 POP SWAP2 SWAP1 POP JUMP JUMPDEST PUSH1 0xC0 DUP3 ADD PUSH1 0x0 DUP3 ADD MLOAD PUSH2 0x24A8 PUSH1 0x0 DUP6 ADD DUP3 PUSH2 0x22B9 JUMP JUMPDEST POP PUSH1 0x20 DUP3 ADD MLOAD PUSH2 0x24BB PUSH1 0x20 DUP6 ADD DUP3 PUSH2 0x2208 JUMP JUMPDEST POP PUSH1 0x40 DUP3 ADD MLOAD PUSH2 0x24CE PUSH1 0x40 DUP6 ADD DUP3 PUSH2 0x2208 JUMP JUMPDEST POP PUSH1 0x60 DUP3 ADD MLOAD PUSH2 0x24E1 PUSH1 0x60 DUP6 ADD DUP3 PUSH2 0x2588 JUMP JUMPDEST POP PUSH1 0x80 DUP3 ADD MLOAD PUSH2 0x24F4 PUSH1 0x80 DUP6 ADD DUP3 PUSH2 0x2588 JUMP JUMPDEST POP PUSH1 0xA0 DUP3 ADD MLOAD PUSH2 0x2507 PUSH1 0xA0 DUP6 ADD DUP3 PUSH2 0x229B JUMP JUMPDEST POP POP POP POP JUMP JUMPDEST PUSH1 0xC0 DUP3 ADD PUSH1 0x0 DUP3 ADD MLOAD PUSH2 0x2523 PUSH1 0x0 DUP6 ADD DUP3 PUSH2 0x22B9 JUMP JUMPDEST POP PUSH1 0x20 DUP3 ADD MLOAD PUSH2 0x2536 PUSH1 0x20 DUP6 ADD DUP3 PUSH2 0x2208 JUMP JUMPDEST POP PUSH1 0x40 DUP3 ADD MLOAD PUSH2 0x2549 PUSH1 0x40 DUP6 ADD DUP3 PUSH2 0x2208 JUMP JUMPDEST POP PUSH1 0x60 DUP3 ADD MLOAD PUSH2 0x255C PUSH1 0x60 DUP6 ADD DUP3 PUSH2 0x2588 JUMP JUMPDEST POP PUSH1 0x80 DUP3 ADD MLOAD PUSH2 0x256F PUSH1 0x80 DUP6 ADD DUP3 PUSH2 0x2588 JUMP JUMPDEST POP PUSH1 0xA0 DUP3 ADD MLOAD PUSH2 0x2582 PUSH1 0xA0 DUP6 ADD DUP3 PUSH2 0x229B JUMP JUMPDEST POP POP POP POP JUMP JUMPDEST PUSH2 0x2591 DUP2 PUSH2 0x2A95 JUMP JUMPDEST DUP3 MSTORE POP POP JUMP JUMPDEST PUSH2 0x25A0 DUP2 PUSH2 0x2A95 JUMP JUMPDEST DUP3 MSTORE POP POP JUMP JUMPDEST PUSH2 0x25B7 PUSH2 0x25B2 DUP3 PUSH2 0x2A95 JUMP JUMPDEST PUSH2 0x2B63 JUMP JUMPDEST DUP3 MSTORE POP POP JUMP JUMPDEST PUSH2 0x25C6 DUP2 PUSH2 0x2A9F JUMP JUMPDEST DUP3 MSTORE POP POP JUMP JUMPDEST PUSH1 0x0 PUSH2 0x25D8 DUP3 DUP9 PUSH2 0x2226 JUMP JUMPDEST PUSH1 0x14 DUP3 ADD SWAP2 POP PUSH2 0x25E8 DUP3 DUP8 PUSH2 0x2226 JUMP JUMPDEST PUSH1 0x14 DUP3 ADD SWAP2 POP PUSH2 0x25F8 DUP3 DUP7 PUSH2 0x25A6 JUMP JUMPDEST PUSH1 0x20 DUP3 ADD SWAP2 POP PUSH2 0x2608 DUP3 DUP6 PUSH2 0x25A6 JUMP JUMPDEST PUSH1 0x20 DUP3 ADD SWAP2 POP PUSH2 0x2618 DUP3 DUP5 PUSH2 0x25A6 JUMP JUMPDEST PUSH1 0x20 DUP3 ADD SWAP2 POP DUP2 SWAP1 POP SWAP7 SWAP6 POP POP POP POP POP POP JUMP JUMPDEST PUSH1 0x0 PUSH2 0x2636 DUP3 PUSH2 0x237A JUMP JUMPDEST SWAP2 POP PUSH2 0x2642 DUP3 DUP6 PUSH2 0x22D7 JUMP JUMPDEST PUSH1 0x20 DUP3 ADD SWAP2 POP PUSH2 0x2652 DUP3 DUP5 PUSH2 0x22D7 JUMP JUMPDEST PUSH1 0x20 DUP3 ADD SWAP2 POP DUP2 SWAP1 POP SWAP4 SWAP3 POP POP POP JUMP JUMPDEST PUSH1 0x0 PUSH1 0x20 DUP3 ADD SWAP1 POP PUSH2 0x2677 PUSH1 0x0 DUP4 ADD DUP5 PUSH2 0x2217 JUMP JUMPDEST SWAP3 SWAP2 POP POP JUMP JUMPDEST PUSH1 0x0 PUSH1 0x40 DUP3 ADD SWAP1 POP PUSH2 0x2692 PUSH1 0x0 DUP4 ADD DUP6 PUSH2 0x2217 JUMP JUMPDEST PUSH2 0x269F PUSH1 0x20 DUP4 ADD DUP5 PUSH2 0x2597 JUMP JUMPDEST SWAP4 SWAP3 POP POP POP JUMP JUMPDEST PUSH1 0x0 PUSH1 0x20 DUP3 ADD SWAP1 POP DUP2 DUP2 SUB PUSH1 0x0 DUP4 ADD MSTORE PUSH2 0x26C0 DUP2 DUP5 PUSH2 0x223D JUMP JUMPDEST SWAP1 POP SWAP3 SWAP2 POP POP JUMP JUMPDEST PUSH1 0x0 PUSH1 0x20 DUP3 ADD SWAP1 POP PUSH2 0x26DD PUSH1 0x0 DUP4 ADD DUP5 PUSH2 0x22AA JUMP JUMPDEST SWAP3 SWAP2 POP POP JUMP JUMPDEST PUSH1 0x0 PUSH1 0x20 DUP3 ADD SWAP1 POP PUSH2 0x26F8 PUSH1 0x0 DUP4 ADD DUP5 PUSH2 0x22C8 JUMP JUMPDEST SWAP3 SWAP2 POP POP JUMP JUMPDEST PUSH1 0x0 PUSH1 0x80 DUP3 ADD SWAP1 POP PUSH2 0x2713 PUSH1 0x0 DUP4 ADD DUP8 PUSH2 0x22C8 JUMP JUMPDEST PUSH2 0x2720 PUSH1 0x20 DUP4 ADD DUP7 PUSH2 0x22C8 JUMP JUMPDEST PUSH2 0x272D PUSH1 0x40 DUP4 ADD DUP6 PUSH2 0x2217 JUMP JUMPDEST PUSH2 0x273A PUSH1 0x60 DUP4 ADD DUP5 PUSH2 0x2597 JUMP JUMPDEST SWAP6 SWAP5 POP POP POP POP POP JUMP JUMPDEST PUSH1 0x0 PUSH1 0xA0 DUP3 ADD SWAP1 POP PUSH2 0x2758 PUSH1 0x0 DUP4 ADD DUP9 PUSH2 0x22C8 JUMP JUMPDEST PUSH2 0x2765 PUSH1 0x20 DUP4 ADD DUP8 PUSH2 0x22C8 JUMP JUMPDEST PUSH2 0x2772 PUSH1 0x40 DUP4 ADD DUP7 PUSH2 0x22C8 JUMP JUMPDEST PUSH2 0x277F PUSH1 0x60 DUP4 ADD DUP6 PUSH2 0x2597 JUMP JUMPDEST PUSH2 0x278C PUSH1 0x80 DUP4 ADD DUP5 PUSH2 0x2217 JUMP JUMPDEST SWAP7 SWAP6 POP POP POP POP POP POP JUMP JUMPDEST PUSH1 0x0 PUSH1 0x80 DUP3 ADD SWAP1 POP PUSH2 0x27AB PUSH1 0x0 DUP4 ADD DUP8 PUSH2 0x22C8 JUMP JUMPDEST PUSH2 0x27B8 PUSH1 0x20 DUP4 ADD DUP7 PUSH2 0x25BD JUMP JUMPDEST PUSH2 0x27C5 PUSH1 0x40 DUP4 ADD DUP6 PUSH2 0x22C8 JUMP JUMPDEST PUSH2 0x27D2 PUSH1 0x60 DUP4 ADD DUP5 PUSH2 0x22C8 JUMP JUMPDEST SWAP6 SWAP5 POP POP POP POP POP JUMP JUMPDEST PUSH1 0x0 PUSH1 0x20 DUP3 ADD SWAP1 POP DUP2 DUP2 SUB PUSH1 0x0 DUP4 ADD MSTORE PUSH2 0x27F4 DUP2 PUSH2 0x22EE JUMP JUMPDEST SWAP1 POP SWAP2 SWAP1 POP JUMP JUMPDEST PUSH1 0x0 PUSH1 0x20 DUP3 ADD SWAP1 POP DUP2 DUP2 SUB PUSH1 0x0 DUP4 ADD MSTORE PUSH2 0x2814 DUP2 PUSH2 0x2311 JUMP JUMPDEST SWAP1 POP SWAP2 SWAP1 POP JUMP JUMPDEST PUSH1 0x0 PUSH1 0x20 DUP3 ADD SWAP1 POP DUP2 DUP2 SUB PUSH1 0x0 DUP4 ADD MSTORE PUSH2 0x2834 DUP2 PUSH2 0x2334 JUMP JUMPDEST SWAP1 POP SWAP2 SWAP1 POP JUMP JUMPDEST PUSH1 0x0 PUSH1 0x20 DUP3 ADD SWAP1 POP DUP2 DUP2 SUB PUSH1 0x0 DUP4 ADD MSTORE PUSH2 0x2854 DUP2 PUSH2 0x2357 JUMP JUMPDEST SWAP1 POP SWAP2 SWAP1 POP JUMP JUMPDEST PUSH1 0x0 PUSH1 0x20 DUP3 ADD SWAP1 POP DUP2 DUP2 SUB PUSH1 0x0 DUP4 ADD MSTORE PUSH2 0x2874 DUP2 PUSH2 0x239D JUMP JUMPDEST SWAP1 POP SWAP2 SWAP1 POP JUMP JUMPDEST PUSH1 0x0 PUSH1 0x20 DUP3 ADD SWAP1 POP DUP2 DUP2 SUB PUSH1 0x0 DUP4 ADD MSTORE PUSH2 0x2894 DUP2 PUSH2 0x23C0 JUMP JUMPDEST SWAP1 POP SWAP2 SWAP1 POP JUMP JUMPDEST PUSH1 0x0 PUSH1 0x20 DUP3 ADD SWAP1 POP DUP2 DUP2 SUB PUSH1 0x0 DUP4 ADD MSTORE PUSH2 0x28B4 DUP2 PUSH2 0x23E3 JUMP JUMPDEST SWAP1 POP SWAP2 SWAP1 POP JUMP JUMPDEST PUSH1 0x0 PUSH1 0x20 DUP3 ADD SWAP1 POP DUP2 DUP2 SUB PUSH1 0x0 DUP4 ADD MSTORE PUSH2 0x28D4 DUP2 PUSH2 0x2406 JUMP JUMPDEST SWAP1 POP SWAP2 SWAP1 POP JUMP JUMPDEST PUSH1 0x0 PUSH1 0x20 DUP3 ADD SWAP1 POP DUP2 DUP2 SUB PUSH1 0x0 DUP4 ADD MSTORE PUSH2 0x28F4 DUP2 PUSH2 0x2429 JUMP JUMPDEST SWAP1 POP SWAP2 SWAP1 POP JUMP JUMPDEST PUSH1 0x0 PUSH1 0x20 DUP3 ADD SWAP1 POP DUP2 DUP2 SUB PUSH1 0x0 DUP4 ADD MSTORE PUSH2 0x2914 DUP2 PUSH2 0x244C JUMP JUMPDEST SWAP1 POP SWAP2 SWAP1 POP JUMP JUMPDEST PUSH1 0x0 PUSH1 0x20 DUP3 ADD SWAP1 POP DUP2 DUP2 SUB PUSH1 0x0 DUP4 ADD MSTORE PUSH2 0x2934 DUP2 PUSH2 0x246F JUMP JUMPDEST SWAP1 POP SWAP2 SWAP1 POP JUMP JUMPDEST PUSH1 0x0 PUSH1 0xC0 DUP3 ADD SWAP1 POP PUSH2 0x2950 PUSH1 0x0 DUP4 ADD DUP5 PUSH2 0x250D JUMP JUMPDEST SWAP3 SWAP2 POP POP JUMP JUMPDEST PUSH1 0x0 PUSH1 0x20 DUP3 ADD SWAP1 POP PUSH2 0x296B PUSH1 0x0 DUP4 ADD DUP5 PUSH2 0x2597 JUMP JUMPDEST SWAP3 SWAP2 POP POP JUMP JUMPDEST PUSH1 0x0 PUSH2 0x297B PUSH2 0x298C JUMP JUMPDEST SWAP1 POP PUSH2 0x2987 DUP3 DUP3 PUSH2 0x2ABB JUMP JUMPDEST SWAP2 SWAP1 POP JUMP JUMPDEST PUSH1 0x0 PUSH1 0x40 MLOAD SWAP1 POP SWAP1 JUMP JUMPDEST PUSH1 0x0 PUSH8 0xFFFFFFFFFFFFFFFF DUP3 GT ISZERO PUSH2 0x29B1 JUMPI PUSH2 0x29B0 PUSH2 0x2B9C JUMP JUMPDEST JUMPDEST PUSH2 0x29BA DUP3 PUSH2 0x2BCB JUMP JUMPDEST SWAP1 POP PUSH1 0x20 DUP2 ADD SWAP1 POP SWAP2 SWAP1 POP JUMP JUMPDEST PUSH1 0x0 PUSH8 0xFFFFFFFFFFFFFFFF DUP3 GT ISZERO PUSH2 0x29E2 JUMPI PUSH2 0x29E1 PUSH2 0x2B9C JUMP JUMPDEST JUMPDEST PUSH2 0x29EB DUP3 PUSH2 0x2BCB JUMP JUMPDEST SWAP1 POP PUSH1 0x20 DUP2 ADD SWAP1 POP SWAP2 SWAP1 POP JUMP JUMPDEST PUSH1 0x0 DUP2 SWAP1 POP PUSH1 0x20 DUP3 ADD SWAP1 POP SWAP2 SWAP1 POP JUMP JUMPDEST PUSH1 0x0 DUP2 MLOAD SWAP1 POP SWAP2 SWAP1 POP JUMP JUMPDEST PUSH1 0x0 PUSH1 0x20 DUP3 ADD SWAP1 POP SWAP2 SWAP1 POP JUMP JUMPDEST PUSH1 0x0 DUP3 DUP3 MSTORE PUSH1 0x20 DUP3 ADD SWAP1 POP SWAP3 SWAP2 POP POP JUMP JUMPDEST PUSH1 0x0 DUP3 DUP3 MSTORE PUSH1 0x20 DUP3 ADD SWAP1 POP SWAP3 SWAP2 POP POP JUMP JUMPDEST PUSH1 0x0 DUP2 SWAP1 POP SWAP3 SWAP2 POP POP JUMP JUMPDEST PUSH1 0x0 PUSH2 0x2A58 DUP3 PUSH2 0x2A75 JUMP JUMPDEST SWAP1 POP SWAP2 SWAP1 POP JUMP JUMPDEST PUSH1 0x0 DUP2 ISZERO ISZERO SWAP1 POP SWAP2 SWAP1 POP JUMP JUMPDEST PUSH1 0x0 DUP2 SWAP1 POP SWAP2 SWAP1 POP JUMP JUMPDEST PUSH1 0x0 PUSH20 0xFFFFFFFFFFFFFFFFFFFFFFFFFFFFFFFFFFFFFFFF DUP3 AND SWAP1 POP SWAP2 SWAP1 POP JUMP JUMPDEST PUSH1 0x0 DUP2 SWAP1 POP SWAP2 SWAP1 POP JUMP JUMPDEST PUSH1 0x0 PUSH1 0xFF DUP3 AND SWAP1 POP SWAP2 SWAP1 POP JUMP JUMPDEST DUP3 DUP2 DUP4 CALLDATACOPY PUSH1 0x0 DUP4 DUP4 ADD MSTORE POP POP POP JUMP JUMPDEST PUSH2 0x2AC4 DUP3 PUSH2 0x2BCB JUMP JUMPDEST DUP2 ADD DUP2 DUP2 LT PUSH8 0xFFFFFFFFFFFFFFFF DUP3 GT OR ISZERO PUSH2 0x2AE3 JUMPI PUSH2 0x2AE2 PUSH2 0x2B9C JUMP JUMPDEST JUMPDEST DUP1 PUSH1 0x40 MSTORE POP POP POP JUMP JUMPDEST PUSH1 0x0 PUSH2 0x2AF7 DUP3 PUSH2 0x2A95 JUMP JUMPDEST SWAP2 POP PUSH32 0xFFFFFFFFFFFFFFFFFFFFFFFFFFFFFFFFFFFFFFFFFFFFFFFFFFFFFFFFFFFFFFFF DUP3 EQ ISZERO PUSH2 0x2B2A JUMPI PUSH2 0x2B29 PUSH2 0x2B6D JUMP JUMPDEST JUMPDEST PUSH1 0x1 DUP3 ADD SWAP1 POP SWAP2 SWAP1 POP JUMP JUMPDEST PUSH1 0x0 PUSH2 0x2B40 DUP3 PUSH2 0x2B51 JUMP JUMPDEST SWAP1 POP SWAP2 SWAP1 POP JUMP JUMPDEST PUSH1 0x0 DUP2 SWAP1 POP SWAP2 SWAP1 POP JUMP JUMPDEST PUSH1 0x0 PUSH2 0x2B5C DUP3 PUSH2 0x2BDC JUMP JUMPDEST SWAP1 POP SWAP2 SWAP1 POP JUMP JUMPDEST PUSH1 0x0 DUP2 SWAP1 POP SWAP2 SWAP1 POP JUMP JUMPDEST PUSH32 0x4E487B7100000000000000000000000000000000000000000000000000000000 PUSH1 0x0 MSTORE PUSH1 0x11 PUSH1 0x4 MSTORE PUSH1 0x24 PUSH1 0x0 REVERT JUMPDEST PUSH32 0x4E487B7100000000000000000000000000000000000000000000000000000000 PUSH1 0x0 MSTORE PUSH1 0x41 PUSH1 0x4 MSTORE PUSH1 0x24 PUSH1 0x0 REVERT JUMPDEST PUSH1 0x0 PUSH1 0x1F NOT PUSH1 0x1F DUP4 ADD AND SWAP1 POP SWAP2 SWAP1 POP JUMP JUMPDEST PUSH1 0x0 DUP2 PUSH1 0x60 SHL SWAP1 POP SWAP2 SWAP1 POP JUMP JUMPDEST PUSH32 0x45434453413A20696E76616C6964207369676E61747572650000000000000000 PUSH1 0x0 DUP3 ADD MSTORE POP JUMP JUMPDEST PUSH32 0x45434453413A20696E76616C6964207369676E6174757265206C656E67746800 PUSH1 0x0 DUP3 ADD MSTORE POP JUMP JUMPDEST PUSH32 0x566572696669656443726564656E7469616C52656769737472793A20496E7661 PUSH1 0x0 DUP3 ADD MSTORE PUSH32 0x6C69642061646472657373000000000000000000000000000000000000000000 PUSH1 0x20 DUP3 ADD MSTORE POP JUMP JUMPDEST PUSH32 0x4F776E61626C653A206E6577206F776E657220697320746865207A65726F2061 PUSH1 0x0 DUP3 ADD MSTORE PUSH32 0x6464726573730000000000000000000000000000000000000000000000000000 PUSH1 0x20 DUP3 ADD MSTORE POP JUMP JUMPDEST PUSH32 0x1901000000000000000000000000000000000000000000000000000000000000 PUSH1 0x0 DUP3 ADD MSTORE POP JUMP JUMPDEST PUSH32 0x45434453413A20696E76616C6964207369676E6174757265202773272076616C PUSH1 0x0 DUP3 ADD MSTORE PUSH32 0x7565000000000000000000000000000000000000000000000000000000000000 PUSH1 0x20 DUP3 ADD MSTORE POP JUMP JUMPDEST PUSH32 0x566572696669656443726564656E7469616C52656769737472793A2056657269 PUSH1 0x0 DUP3 ADD MSTORE PUSH32 0x6669636174696F6E20636F6E6669726D6174696F6E2065787069726564000000 PUSH1 0x20 DUP3 ADD MSTORE POP JUMP JUMPDEST PUSH32 0x566572696669656443726564656E7469616C52656769737472793A2043616C6C PUSH1 0x0 DUP3 ADD MSTORE PUSH32 0x6572206973206E6F7420746865207665726966696572206F6620746865207265 PUSH1 0x20 DUP3 ADD MSTORE PUSH32 0x666572656E636564207265636F72640000000000000000000000000000000000 PUSH1 0x40 DUP3 ADD MSTORE POP JUMP JUMPDEST PUSH32 0x45434453413A20696E76616C6964207369676E6174757265202776272076616C PUSH1 0x0 DUP3 ADD MSTORE PUSH32 0x7565000000000000000000000000000000000000000000000000000000000000 PUSH1 0x20 DUP3 ADD MSTORE POP JUMP JUMPDEST PUSH32 0x566572696669656443726564656E7469616C52656769737472793A2043616C6C PUSH1 0x0 DUP3 ADD MSTORE PUSH32 0x6572206973206E6F7420746865206F726967696E616C20766572696669657200 PUSH1 0x20 DUP3 ADD MSTORE POP JUMP JUMPDEST PUSH32 0x4F776E61626C653A2063616C6C6572206973206E6F7420746865206F776E6572 PUSH1 0x0 DUP3 ADD MSTORE POP JUMP JUMPDEST PUSH32 0x4E6F742061207665726966696572000000000000000000000000000000000000 PUSH1 0x0 DUP3 ADD MSTORE POP JUMP JUMPDEST PUSH2 0x2F0E DUP2 PUSH2 0x2A4D JUMP JUMPDEST DUP2 EQ PUSH2 0x2F19 JUMPI PUSH1 0x0 DUP1 REVERT JUMPDEST POP JUMP JUMPDEST PUSH2 0x2F25 DUP2 PUSH2 0x2A5F JUMP JUMPDEST DUP2 EQ PUSH2 0x2F30 JUMPI PUSH1 0x0 DUP1 REVERT JUMPDEST POP JUMP JUMPDEST PUSH2 0x2F3C DUP2 PUSH2 0x2A6B JUMP JUMPDEST DUP2 EQ PUSH2 0x2F47 JUMPI PUSH1 0x0 DUP1 REVERT JUMPDEST POP JUMP JUMPDEST PUSH2 0x2F53 DUP2 PUSH2 0x2A95 JUMP JUMPDEST DUP2 EQ PUSH2 0x2F5E JUMPI PUSH1 0x0 DUP1 REVERT JUMPDEST POP JUMP INVALID LOG2 PUSH5 0x6970667358 0x22 SLT KECCAK256 DUP15 PUSH20 0x471FE072801A03DD22FF5CEABB7BCC73055EC0F3 SWAP9 0x4B 0xD2 0xCC NUMBER 0xCB 0xC5 0xE9 PUSH22 0xF064736F6C6343000804003300000000000000000000 "},"methodIdentifiers":{"balanceOf(address,address,uint256)":"e93119d9","getVerification(bytes32)":"94ef2440","getVerificationCount()":"1f05b374","getVerificationsForSubject(address)":"ed2ffd28","getVerificationsForVerifier(address)":"0e9e848f","owner()":"8da5cb5b","registerVerification((string,address,uint256),bytes)":"958c39ff","removeVerification(bytes32)":"4e4de26d","renounceOwnership()":"715018a6","revokeVerification(bytes32)":"70eba124","setVerifierRegistry(address)":"6e485c17","transferOwnership(address)":"f2fde38b"}}}}}