{
  "_format": "hh-sol-artifact-1",
  "contractName": "CredentialRequirementRegistry",
  "sourceName": "contracts/CredentialRequirementRegistry.sol",
  "abi": [
    {
      "anonymous": false,
      "inputs": [
        {
          "indexed": true,
          "internalType": "address",
          "name": "previousOwner",
          "type": "address"
        },
        {
          "indexed": true,
          "internalType": "address",
          "name": "newOwner",
          "type": "address"
        }
      ],
      "name": "OwnershipTransferred",
      "type": "event"
    },
    {
      "anonymous": false,
      "inputs": [
        {
          "indexed": false,
          "internalType": "string",
          "name": "requirementId",
          "type": "string"
        },
        {
          "indexed": false,
          "internalType": "address",
          "name": "registry",
          "type": "address"
        }
      ],
      "name": "VerifiedCredentialRegistryAdded",
      "type": "event"
    },
    {
      "anonymous": false,
      "inputs": [
        {
          "indexed": false,
          "internalType": "string",
          "name": "requirementId",
          "type": "string"
        },
        {
          "indexed": false,
          "internalType": "address",
          "name": "registry",
          "type": "address"
        }
      ],
      "name": "VerifiedCredentialRegistryRemoved",
      "type": "event"
    },
    {
      "inputs": [
        {
          "internalType": "string",
          "name": "requirementId",
          "type": "string"
        },
        {
          "internalType": "address",
          "name": "registryAddress",
          "type": "address"
        }
      ],
      "name": "addRegistry",
      "outputs": [],
      "stateMutability": "nonpayable",
      "type": "function"
    },
    {
      "inputs": [
        {
          "internalType": "string",
          "name": "requirementId",
          "type": "string"
        }
      ],
      "name": "getRegistryCount",
      "outputs": [
        {
          "internalType": "uint256",
          "name": "",
          "type": "uint256"
        }
      ],
      "stateMutability": "view",
      "type": "function"
    },
    {
      "inputs": [
        {
          "internalType": "string",
          "name": "requirementId",
          "type": "string"
        },
        {
          "internalType": "address",
          "name": "registryAddress",
          "type": "address"
        }
      ],
      "name": "hasRegistry",
      "outputs": [
        {
          "internalType": "bool",
          "name": "",
          "type": "bool"
        }
      ],
      "stateMutability": "view",
      "type": "function"
    },
    {
      "inputs": [
        {
          "internalType": "string",
          "name": "requirementId",
          "type": "string"
        },
        {
          "internalType": "address",
          "name": "subject",
          "type": "address"
        }
      ],
      "name": "isVerified",
      "outputs": [
        {
          "internalType": "bool",
          "name": "",
          "type": "bool"
        }
      ],
      "stateMutability": "view",
      "type": "function"
    },
    {
      "inputs": [],
      "name": "owner",
      "outputs": [
        {
          "internalType": "address",
          "name": "",
          "type": "address"
        }
      ],
      "stateMutability": "view",
      "type": "function"
    },
    {
      "inputs": [
        {
          "internalType": "string",
          "name": "requirementId",
          "type": "string"
        },
        {
          "internalType": "address",
          "name": "registryAddress",
          "type": "address"
        }
      ],
      "name": "removeRegistry",
      "outputs": [],
      "stateMutability": "nonpayable",
      "type": "function"
    },
    {
      "inputs": [],
      "name": "renounceOwnership",
      "outputs": [],
      "stateMutability": "nonpayable",
      "type": "function"
    },
    {
      "inputs": [
        {
          "internalType": "address",
          "name": "newOwner",
          "type": "address"
        }
      ],
      "name": "transferOwnership",
      "outputs": [],
      "stateMutability": "nonpayable",
      "type": "function"
    }
  ],
  "bytecode": "0x6101406040523480156200001257600080fd5b506040518060400160405280601d81526020017f43726564656e7469616c526571756972656d656e7452656769737472790000008152506040518060400160405280600381526020017f312e3000000000000000000000000000000000000000000000000000000000008152506200009f620000936200015a60201b60201c565b6200016260201b60201c565b60008280519060200120905060008280519060200120905060007f8b73c3c69bb8fe3d512ecc4cf759cc79239f7b179b0ffacaa9a75d522b39400f90508260e081815250508161010081815250504660a08181525050620001088184846200022660201b60201c565b608081815250503073ffffffffffffffffffffffffffffffffffffffff1660c08173ffffffffffffffffffffffffffffffffffffffff1660601b8152505080610120818152505050505050506200033a565b600033905090565b60008060009054906101000a900473ffffffffffffffffffffffffffffffffffffffff169050816000806101000a81548173ffffffffffffffffffffffffffffffffffffffff021916908373ffffffffffffffffffffffffffffffffffffffff1602179055508173ffffffffffffffffffffffffffffffffffffffff168173ffffffffffffffffffffffffffffffffffffffff167f8be0079c531659141344cd1fd0a4f28419497f9722a3daafe3b4186f6b6457e060405160405180910390a35050565b600083838346306040516020016200024395949392919062000295565b6040516020818303038152906040528051906020012090509392505050565b6200026d81620002f2565b82525050565b6200027e8162000306565b82525050565b6200028f8162000330565b82525050565b600060a082019050620002ac600083018862000273565b620002bb602083018762000273565b620002ca604083018662000273565b620002d9606083018562000284565b620002e8608083018462000262565b9695505050505050565b6000620002ff8262000310565b9050919050565b6000819050919050565b600073ffffffffffffffffffffffffffffffffffffffff82169050919050565b6000819050919050565b60805160a05160c05160601c60e05161010051610120516110d16200037b6000396000505060005050600050506000505060005050600050506110d16000f3fe608060405234801561001057600080fd5b50600436106100885760003560e01c8063a095fc3e1161005b578063a095fc3e146100ed578063f2fde38b1461011d578063faf7af6e14610139578063fc2055011461016957610088565b80631f1f5ead1461008d578063715018a6146100a957806384764794146100b35780638da5cb5b146100cf575b600080fd5b6100a760048036038101906100a29190610b72565b610199565b005b6100b161025d565b005b6100cd60048036038101906100c89190610b72565b610271565b005b6100d76102cf565b6040516100e49190610cba565b60405180910390f35b61010760048036038101906101029190610b31565b6102f8565b6040516101149190610d60565b60405180910390f35b61013760048036038101906101329190610adf565b610323565b005b610153600480360381019061014e9190610b72565b6103a7565b6040516101609190610cd5565b60405180910390f35b610183600480360381019061017e9190610b72565b610516565b6040516101909190610cd5565b60405180910390f35b6101a161062b565b6001826040516101b19190610ca3565b9081526020016040518091039020819080600181540180825580915050600190039060005260206000200160009091909190916101000a81548173ffffffffffffffffffffffffffffffffffffffff021916908373ffffffffffffffffffffffffffffffffffffffff1602179055507f976d15498592f67f4ebc157480fe40e60ac066668ba7619985a786413afb1e5a8282604051610251929190610cf0565b60405180910390a15050565b61026561062b565b61026f60006106a9565b565b61027961062b565b6000610285838361076d565b90506102918382610845565b7f5481d07bd7089b034f2137035514e3b85d9e72e83f0510ff19cb042efe8465bb83836040516102c2929190610cf0565b60405180910390a1505050565b60008060009054906101000a900473ffffffffffffffffffffffffffffffffffffffff16905090565b600060018260405161030a9190610ca3565b9081526020016040518091039020805490509050919050565b61032b61062b565b600073ffffffffffffffffffffffffffffffffffffffff168173ffffffffffffffffffffffffffffffffffffffff16141561039b576040517f08c379a000000000000000000000000000000000000000000000000000000000815260040161039290610d20565b60405180910390fd5b6103a4816106a9565b50565b600080600090505b6001846040516103bf9190610ca3565b90815260200160405180910390208054905081101561050a5760006001856040516103ea9190610ca3565b90815260200160405180910390208281548110610430577f4e487b7100000000000000000000000000000000000000000000000000000000600052603260045260246000fd5b9060005260206000200160009054906101000a900473ffffffffffffffffffffffffffffffffffffffff1690508073ffffffffffffffffffffffffffffffffffffffff1663b9209e33856040518263ffffffff1660e01b81526004016104969190610cba565b60206040518083038186803b1580156104ae57600080fd5b505afa1580156104c2573d6000803e3d6000fd5b505050506040513d601f19601f820116820180604052508101906104e69190610b08565b156104f657600192505050610510565b50808061050290610f3d565b9150506103af565b50600090505b92915050565b600080600090505b60018460405161052e9190610ca3565b90815260200160405180910390208054905081101561061f5760006001856040516105599190610ca3565b9081526020016040518091039020828154811061059f577f4e487b7100000000000000000000000000000000000000000000000000000000600052603260045260246000fd5b9060005260206000200160009054906101000a900473ffffffffffffffffffffffffffffffffffffffff1690508373ffffffffffffffffffffffffffffffffffffffff168173ffffffffffffffffffffffffffffffffffffffff16141561060b57600192505050610625565b50808061061790610f3d565b91505061051e565b50600090505b92915050565b610633610a45565b73ffffffffffffffffffffffffffffffffffffffff166106516102cf565b73ffffffffffffffffffffffffffffffffffffffff16146106a7576040517f08c379a000000000000000000000000000000000000000000000000000000000815260040161069e90610d40565b60405180910390fd5b565b60008060009054906101000a900473ffffffffffffffffffffffffffffffffffffffff169050816000806101000a81548173ffffffffffffffffffffffffffffffffffffffff021916908373ffffffffffffffffffffffffffffffffffffffff1602179055508173ffffffffffffffffffffffffffffffffffffffff168173ffffffffffffffffffffffffffffffffffffffff167f8be0079c531659141344cd1fd0a4f28419497f9722a3daafe3b4186f6b6457e060405160405180910390a35050565b600080600090505b8273ffffffffffffffffffffffffffffffffffffffff1660018560405161079c9190610ca3565b908152602001604051809103902082815481106107e2577f4e487b7100000000000000000000000000000000000000000000000000000000600052603260045260246000fd5b9060005260206000200160009054906101000a900473ffffffffffffffffffffffffffffffffffffffff1673ffffffffffffffffffffffffffffffffffffffff161461083b57808061083390610f3d565b915050610775565b8091505092915050565b5b600180836040516108579190610ca3565b9081526020016040518091039020805490506108739190610e4e565b8110156109b85760018260405161088a9190610ca3565b90815260200160405180910390206001826108a59190610df8565b815481106108dc577f4e487b7100000000000000000000000000000000000000000000000000000000600052603260045260246000fd5b9060005260206000200160009054906101000a900473ffffffffffffffffffffffffffffffffffffffff166001836040516109179190610ca3565b9081526020016040518091039020828154811061095d577f4e487b7100000000000000000000000000000000000000000000000000000000600052603260045260246000fd5b9060005260206000200160006101000a81548173ffffffffffffffffffffffffffffffffffffffff021916908373ffffffffffffffffffffffffffffffffffffffff16021790555080806109b090610f3d565b915050610846565b6001826040516109c89190610ca3565b9081526020016040518091039020805480610a0c577f4e487b7100000000000000000000000000000000000000000000000000000000600052603160045260246000fd5b6001900381819060005260206000200160006101000a81549073ffffffffffffffffffffffffffffffffffffffff021916905590555050565b600033905090565b6000610a60610a5b84610da0565b610d7b565b905082815260208101848484011115610a7857600080fd5b610a83848285610eca565b509392505050565b600081359050610a9a8161106d565b92915050565b600081519050610aaf81611084565b92915050565b600082601f830112610ac657600080fd5b8135610ad6848260208601610a4d565b91505092915050565b600060208284031215610af157600080fd5b6000610aff84828501610a8b565b91505092915050565b600060208284031215610b1a57600080fd5b6000610b2884828501610aa0565b91505092915050565b600060208284031215610b4357600080fd5b600082013567ffffffffffffffff811115610b5d57600080fd5b610b6984828501610ab5565b91505092915050565b60008060408385031215610b8557600080fd5b600083013567ffffffffffffffff811115610b9f57600080fd5b610bab85828601610ab5565b9250506020610bbc85828601610a8b565b9150509250929050565b610bcf81610e82565b82525050565b610bde81610e94565b82525050565b6000610bef82610dd1565b610bf98185610ddc565b9350610c09818560208601610ed9565b610c1281610fe4565b840191505092915050565b6000610c2882610dd1565b610c328185610ded565b9350610c42818560208601610ed9565b80840191505092915050565b6000610c5b602683610ddc565b9150610c6682610ff5565b604082019050919050565b6000610c7e602083610ddc565b9150610c8982611044565b602082019050919050565b610c9d81610ec0565b82525050565b6000610caf8284610c1d565b915081905092915050565b6000602082019050610ccf6000830184610bc6565b92915050565b6000602082019050610cea6000830184610bd5565b92915050565b60006040820190508181036000830152610d0a8185610be4565b9050610d196020830184610bc6565b9392505050565b60006020820190508181036000830152610d3981610c4e565b9050919050565b60006020820190508181036000830152610d5981610c71565b9050919050565b6000602082019050610d756000830184610c94565b92915050565b6000610d85610d96565b9050610d918282610f0c565b919050565b6000604051905090565b600067ffffffffffffffff821115610dbb57610dba610fb5565b5b610dc482610fe4565b9050602081019050919050565b600081519050919050565b600082825260208201905092915050565b600081905092915050565b6000610e0382610ec0565b9150610e0e83610ec0565b9250827fffffffffffffffffffffffffffffffffffffffffffffffffffffffffffffffff03821115610e4357610e42610f86565b5b828201905092915050565b6000610e5982610ec0565b9150610e6483610ec0565b925082821015610e7757610e76610f86565b5b828203905092915050565b6000610e8d82610ea0565b9050919050565b60008115159050919050565b600073ffffffffffffffffffffffffffffffffffffffff82169050919050565b6000819050919050565b82818337600083830152505050565b60005b83811015610ef7578082015181840152602081019050610edc565b83811115610f06576000848401525b50505050565b610f1582610fe4565b810181811067ffffffffffffffff82111715610f3457610f33610fb5565b5b80604052505050565b6000610f4882610ec0565b91507fffffffffffffffffffffffffffffffffffffffffffffffffffffffffffffffff821415610f7b57610f7a610f86565b5b600182019050919050565b7f4e487b7100000000000000000000000000000000000000000000000000000000600052601160045260246000fd5b7f4e487b7100000000000000000000000000000000000000000000000000000000600052604160045260246000fd5b6000601f19601f8301169050919050565b7f4f776e61626c653a206e6577206f776e657220697320746865207a65726f206160008201527f6464726573730000000000000000000000000000000000000000000000000000602082015250565b7f4f776e61626c653a2063616c6c6572206973206e6f7420746865206f776e6572600082015250565b61107681610e82565b811461108157600080fd5b50565b61108d81610e94565b811461109857600080fd5b5056fea2646970667358221220c7996713223b36a3c92101afc1277bef7c7b0ae3e45b555b2c042c9ea0a74aea64736f6c63430008040033",
  "linkReferences": {},
  "deployedLinkReferences": {}
}