{
  "_format": "hh-sol-artifact-1",
  "contractName": "CredentialRequirementRegistry",
  "sourceName": "contracts/CredentialRequirementRegistry.sol",
  "abi": [
    {
      "anonymous": false,
      "inputs": [
        {
          "indexed": true,
          "internalType": "address",
          "name": "previousOwner",
          "type": "address"
        },
        {
          "indexed": true,
          "internalType": "address",
          "name": "newOwner",
          "type": "address"
        }
      ],
      "name": "OwnershipTransferred",
      "type": "event"
    },
    {
      "anonymous": false,
      "inputs": [
        {
          "indexed": false,
          "internalType": "string",
          "name": "requirementId",
          "type": "string"
        },
        {
          "indexed": false,
          "internalType": "address",
          "name": "registry",
          "type": "address"
        }
      ],
      "name": "VerifiedCredentialRegistryAdded",
      "type": "event"
    },
    {
      "anonymous": false,
      "inputs": [
        {
          "indexed": false,
          "internalType": "string",
          "name": "requirementId",
          "type": "string"
        },
        {
          "indexed": false,
          "internalType": "address",
          "name": "registry",
          "type": "address"
        }
      ],
      "name": "VerifiedCredentialRegistryRemoved",
      "type": "event"
    },
    {
      "inputs": [
        {
          "internalType": "address",
          "name": "",
          "type": "address"
        },
        {
          "internalType": "uint256",
          "name": "",
          "type": "uint256"
        }
      ],
      "name": "_tokenIDRegistries",
      "outputs": [
        {
          "internalType": "uint256",
          "name": "",
          "type": "uint256"
        }
      ],
      "stateMutability": "view",
      "type": "function"
    },
    {
      "inputs": [
        {
          "internalType": "string",
          "name": "requirementId",
          "type": "string"
        },
        {
          "internalType": "address",
          "name": "nftregistryAddress",
          "type": "address"
        },
        {
          "internalType": "uint256",
          "name": "tokenID",
          "type": "uint256"
        }
      ],
      "name": "addNFTRegistry",
      "outputs": [],
      "stateMutability": "nonpayable",
      "type": "function"
    },
    {
      "inputs": [
        {
          "internalType": "string",
          "name": "requirementId",
          "type": "string"
        },
        {
          "internalType": "address",
          "name": "registryAddress",
          "type": "address"
        }
      ],
      "name": "addRegistry",
      "outputs": [],
      "stateMutability": "nonpayable",
      "type": "function"
    },
    {
      "inputs": [
        {
          "internalType": "string",
          "name": "requirementId",
          "type": "string"
        }
      ],
      "name": "getRegistryCount",
      "outputs": [
        {
          "internalType": "uint256",
          "name": "",
          "type": "uint256"
        }
      ],
      "stateMutability": "view",
      "type": "function"
    },
    {
      "inputs": [
        {
          "internalType": "string",
          "name": "requirementId",
          "type": "string"
        },
        {
          "internalType": "address",
          "name": "registryAddress",
          "type": "address"
        }
      ],
      "name": "hasRegistry",
      "outputs": [
        {
          "internalType": "bool",
          "name": "",
          "type": "bool"
        }
      ],
      "stateMutability": "view",
      "type": "function"
    },
    {
      "inputs": [
        {
          "internalType": "string",
          "name": "requirementId",
          "type": "string"
        },
        {
          "internalType": "address",
          "name": "subject",
          "type": "address"
        }
      ],
      "name": "isVerified",
      "outputs": [
        {
          "internalType": "bool",
          "name": "",
          "type": "bool"
        }
      ],
      "stateMutability": "view",
      "type": "function"
    },
    {
      "inputs": [],
      "name": "owner",
      "outputs": [
        {
          "internalType": "address",
          "name": "",
          "type": "address"
        }
      ],
      "stateMutability": "view",
      "type": "function"
    },
    {
      "inputs": [
        {
          "internalType": "string",
          "name": "requirementId",
          "type": "string"
        },
        {
          "internalType": "address",
          "name": "registryAddress",
          "type": "address"
        }
      ],
      "name": "removeRegistry",
      "outputs": [],
      "stateMutability": "nonpayable",
      "type": "function"
    },
    {
      "inputs": [],
      "name": "renounceOwnership",
      "outputs": [],
      "stateMutability": "nonpayable",
      "type": "function"
    },
    {
      "inputs": [
        {
          "internalType": "address",
          "name": "newOwner",
          "type": "address"
        }
      ],
      "name": "transferOwnership",
      "outputs": [],
      "stateMutability": "nonpayable",
      "type": "function"
    }
  ],
  "bytecode": "0x6101406040523480156200001257600080fd5b506040518060400160405280601d81526020017f43726564656e7469616c526571756972656d656e7452656769737472790000008152506040518060400160405280600381526020017f312e3000000000000000000000000000000000000000000000000000000000008152506200009f620000936200015a60201b60201c565b6200016260201b60201c565b60008280519060200120905060008280519060200120905060007f8b73c3c69bb8fe3d512ecc4cf759cc79239f7b179b0ffacaa9a75d522b39400f90508260e081815250508161010081815250504660a08181525050620001088184846200022660201b60201c565b608081815250503073ffffffffffffffffffffffffffffffffffffffff1660c08173ffffffffffffffffffffffffffffffffffffffff1660601b8152505080610120818152505050505050506200033a565b600033905090565b60008060009054906101000a900473ffffffffffffffffffffffffffffffffffffffff169050816000806101000a81548173ffffffffffffffffffffffffffffffffffffffff021916908373ffffffffffffffffffffffffffffffffffffffff1602179055508173ffffffffffffffffffffffffffffffffffffffff168173ffffffffffffffffffffffffffffffffffffffff167f8be0079c531659141344cd1fd0a4f28419497f9722a3daafe3b4186f6b6457e060405160405180910390a35050565b600083838346306040516020016200024395949392919062000295565b6040516020818303038152906040528051906020012090509392505050565b6200026d81620002f2565b82525050565b6200027e8162000306565b82525050565b6200028f8162000330565b82525050565b600060a082019050620002ac600083018862000273565b620002bb602083018762000273565b620002ca604083018662000273565b620002d9606083018562000284565b620002e8608083018462000262565b9695505050505050565b6000620002ff8262000310565b9050919050565b6000819050919050565b600073ffffffffffffffffffffffffffffffffffffffff82169050919050565b6000819050919050565b60805160a05160c05160601c60e051610100516101205161146d6200037b60003960005050600050506000505060005050600050506000505061146d6000f3fe608060405234801561001057600080fd5b506004361061009e5760003560e01c80638da5cb5b116100665780638da5cb5b14610131578063a095fc3e1461014f578063f2fde38b1461017f578063faf7af6e1461019b578063fc205501146101cb5761009e565b80631f1f5ead146100a35780633b1fd056146100bf5780636f12e3c4146100db578063715018a61461010b5780638476479414610115575b600080fd5b6100bd60048036038101906100b89190610e59565b6101fb565b005b6100d960048036038101906100d49190610ead565b6102bf565b005b6100f560048036038101906100f09190610db3565b61038f565b60405161010291906110e5565b60405180910390f35b6101136103c0565b005b61012f600480360381019061012a9190610e59565b6103d4565b005b610139610432565b6040516101469190611008565b60405180910390f35b61016960048036038101906101649190610e18565b61045b565b60405161017691906110e5565b60405180910390f35b61019960048036038101906101949190610d8a565b610486565b005b6101b560048036038101906101b09190610e59565b61050a565b6040516101c2919061105a565b60405180910390f35b6101e560048036038101906101e09190610e59565b6107ac565b6040516101f2919061105a565b60405180910390f35b6102036108c1565b6001826040516102139190610ff1565b9081526020016040518091039020819080600181540180825580915050600190039060005260206000200160009091909190916101000a81548173ffffffffffffffffffffffffffffffffffffffff021916908373ffffffffffffffffffffffffffffffffffffffff1602179055507f976d15498592f67f4ebc157480fe40e60ac066668ba7619985a786413afb1e5a82826040516102b3929190611075565b60405180910390a15050565b6102c76108c1565b816002846040516102d89190610ff1565b908152602001604051809103902060006101000a81548173ffffffffffffffffffffffffffffffffffffffff021916908373ffffffffffffffffffffffffffffffffffffffff160217905550600360008373ffffffffffffffffffffffffffffffffffffffff1673ffffffffffffffffffffffffffffffffffffffff168152602001908152602001600020819080600181540180825580915050600190039060005260206000200160009091909190915055505050565b600360205281600052604060002081815481106103ab57600080fd5b90600052602060002001600091509150505481565b6103c86108c1565b6103d2600061093f565b565b6103dc6108c1565b60006103e88383610a03565b90506103f48382610adb565b7f5481d07bd7089b034f2137035514e3b85d9e72e83f0510ff19cb042efe8465bb8383604051610425929190611075565b60405180910390a1505050565b60008060009054906101000a900473ffffffffffffffffffffffffffffffffffffffff16905090565b600060018260405161046d9190610ff1565b9081526020016040518091039020805490509050919050565b61048e6108c1565b600073ffffffffffffffffffffffffffffffffffffffff168173ffffffffffffffffffffffffffffffffffffffff1614156104fe576040517f08c379a00000000000000000000000000000000000000000000000000000000081526004016104f5906110a5565b60405180910390fd5b6105078161093f565b50565b600080600090505b6001846040516105229190610ff1565b9081526020016040518091039020805490508110156107a057600060018560405161054d9190610ff1565b90815260200160405180910390208281548110610593577f4e487b7100000000000000000000000000000000000000000000000000000000600052603260045260246000fd5b9060005260206000200160009054906101000a900473ffffffffffffffffffffffffffffffffffffffff16905060006002866040516105d29190610ff1565b908152602001604051809103902060009054906101000a900473ffffffffffffffffffffffffffffffffffffffff16905060005b600360008373ffffffffffffffffffffffffffffffffffffffff1673ffffffffffffffffffffffffffffffffffffffff1681526020019081526020016000208054905081101561078a576000600360008473ffffffffffffffffffffffffffffffffffffffff1673ffffffffffffffffffffffffffffffffffffffff16815260200190815260200160002082815481106106c9577f4e487b7100000000000000000000000000000000000000000000000000000000600052603260045260246000fd5b906000526020600020015490508373ffffffffffffffffffffffffffffffffffffffff1663e93119d98489846040518463ffffffff1660e01b815260040161071393929190611023565b60206040518083038186803b15801561072b57600080fd5b505afa15801561073f573d6000803e3d6000fd5b505050506040513d601f19601f820116820180604052508101906107639190610def565b15610776576001955050505050506107a6565b508080610782906112c2565b915050610606565b5050508080610798906112c2565b915050610512565b50600090505b92915050565b600080600090505b6001846040516107c49190610ff1565b9081526020016040518091039020805490508110156108b55760006001856040516107ef9190610ff1565b90815260200160405180910390208281548110610835577f4e487b7100000000000000000000000000000000000000000000000000000000600052603260045260246000fd5b9060005260206000200160009054906101000a900473ffffffffffffffffffffffffffffffffffffffff1690508373ffffffffffffffffffffffffffffffffffffffff168173ffffffffffffffffffffffffffffffffffffffff1614156108a1576001925050506108bb565b5080806108ad906112c2565b9150506107b4565b50600090505b92915050565b6108c9610cdb565b73ffffffffffffffffffffffffffffffffffffffff166108e7610432565b73ffffffffffffffffffffffffffffffffffffffff161461093d576040517f08c379a0000000000000000000000000000000000000000000000000000000008152600401610934906110c5565b60405180910390fd5b565b60008060009054906101000a900473ffffffffffffffffffffffffffffffffffffffff169050816000806101000a81548173ffffffffffffffffffffffffffffffffffffffff021916908373ffffffffffffffffffffffffffffffffffffffff1602179055508173ffffffffffffffffffffffffffffffffffffffff168173ffffffffffffffffffffffffffffffffffffffff167f8be0079c531659141344cd1fd0a4f28419497f9722a3daafe3b4186f6b6457e060405160405180910390a35050565b600080600090505b8273ffffffffffffffffffffffffffffffffffffffff16600185604051610a329190610ff1565b90815260200160405180910390208281548110610a78577f4e487b7100000000000000000000000000000000000000000000000000000000600052603260045260246000fd5b9060005260206000200160009054906101000a900473ffffffffffffffffffffffffffffffffffffffff1673ffffffffffffffffffffffffffffffffffffffff1614610ad1578080610ac9906112c2565b915050610a0b565b8091505092915050565b5b60018083604051610aed9190610ff1565b908152602001604051809103902080549050610b0991906111d3565b811015610c4e57600182604051610b209190610ff1565b9081526020016040518091039020600182610b3b919061117d565b81548110610b72577f4e487b7100000000000000000000000000000000000000000000000000000000600052603260045260246000fd5b9060005260206000200160009054906101000a900473ffffffffffffffffffffffffffffffffffffffff16600183604051610bad9190610ff1565b90815260200160405180910390208281548110610bf3577f4e487b7100000000000000000000000000000000000000000000000000000000600052603260045260246000fd5b9060005260206000200160006101000a81548173ffffffffffffffffffffffffffffffffffffffff021916908373ffffffffffffffffffffffffffffffffffffffff1602179055508080610c46906112c2565b915050610adc565b600182604051610c5e9190610ff1565b9081526020016040518091039020805480610ca2577f4e487b7100000000000000000000000000000000000000000000000000000000600052603160045260246000fd5b6001900381819060005260206000200160006101000a81549073ffffffffffffffffffffffffffffffffffffffff021916905590555050565b600033905090565b6000610cf6610cf184611125565b611100565b905082815260208101848484011115610d0e57600080fd5b610d1984828561124f565b509392505050565b600081359050610d30816113f2565b92915050565b600081519050610d4581611409565b92915050565b600082601f830112610d5c57600080fd5b8135610d6c848260208601610ce3565b91505092915050565b600081359050610d8481611420565b92915050565b600060208284031215610d9c57600080fd5b6000610daa84828501610d21565b91505092915050565b60008060408385031215610dc657600080fd5b6000610dd485828601610d21565b9250506020610de585828601610d75565b9150509250929050565b600060208284031215610e0157600080fd5b6000610e0f84828501610d36565b91505092915050565b600060208284031215610e2a57600080fd5b600082013567ffffffffffffffff811115610e4457600080fd5b610e5084828501610d4b565b91505092915050565b60008060408385031215610e6c57600080fd5b600083013567ffffffffffffffff811115610e8657600080fd5b610e9285828601610d4b565b9250506020610ea385828601610d21565b9150509250929050565b600080600060608486031215610ec257600080fd5b600084013567ffffffffffffffff811115610edc57600080fd5b610ee886828701610d4b565b9350506020610ef986828701610d21565b9250506040610f0a86828701610d75565b9150509250925092565b610f1d81611207565b82525050565b610f2c81611219565b82525050565b6000610f3d82611156565b610f478185611161565b9350610f5781856020860161125e565b610f6081611369565b840191505092915050565b6000610f7682611156565b610f808185611172565b9350610f9081856020860161125e565b80840191505092915050565b6000610fa9602683611161565b9150610fb48261137a565b604082019050919050565b6000610fcc602083611161565b9150610fd7826113c9565b602082019050919050565b610feb81611245565b82525050565b6000610ffd8284610f6b565b915081905092915050565b600060208201905061101d6000830184610f14565b92915050565b60006060820190506110386000830186610f14565b6110456020830185610f14565b6110526040830184610fe2565b949350505050565b600060208201905061106f6000830184610f23565b92915050565b6000604082019050818103600083015261108f8185610f32565b905061109e6020830184610f14565b9392505050565b600060208201905081810360008301526110be81610f9c565b9050919050565b600060208201905081810360008301526110de81610fbf565b9050919050565b60006020820190506110fa6000830184610fe2565b92915050565b600061110a61111b565b90506111168282611291565b919050565b6000604051905090565b600067ffffffffffffffff8211156111405761113f61133a565b5b61114982611369565b9050602081019050919050565b600081519050919050565b600082825260208201905092915050565b600081905092915050565b600061118882611245565b915061119383611245565b9250827fffffffffffffffffffffffffffffffffffffffffffffffffffffffffffffffff038211156111c8576111c761130b565b5b828201905092915050565b60006111de82611245565b91506111e983611245565b9250828210156111fc576111fb61130b565b5b828203905092915050565b600061121282611225565b9050919050565b60008115159050919050565b600073ffffffffffffffffffffffffffffffffffffffff82169050919050565b6000819050919050565b82818337600083830152505050565b60005b8381101561127c578082015181840152602081019050611261565b8381111561128b576000848401525b50505050565b61129a82611369565b810181811067ffffffffffffffff821117156112b9576112b861133a565b5b80604052505050565b60006112cd82611245565b91507fffffffffffffffffffffffffffffffffffffffffffffffffffffffffffffffff821415611300576112ff61130b565b5b600182019050919050565b7f4e487b7100000000000000000000000000000000000000000000000000000000600052601160045260246000fd5b7f4e487b7100000000000000000000000000000000000000000000000000000000600052604160045260246000fd5b6000601f19601f8301169050919050565b7f4f776e61626c653a206e6577206f776e657220697320746865207a65726f206160008201527f6464726573730000000000000000000000000000000000000000000000000000602082015250565b7f4f776e61626c653a2063616c6c6572206973206e6f7420746865206f776e6572600082015250565b6113fb81611207565b811461140657600080fd5b50565b61141281611219565b811461141d57600080fd5b50565b61142981611245565b811461143457600080fd5b5056fea26469706673582212209102d6f65c395459ffa90c813a7d0e6a815d1734690da9881702136e06e7165b64736f6c63430008040033",
  "linkReferences": {},
  "deployedLinkReferences": {}
}