{
  "_format": "hh-sol-artifact-1",
  "contractName": "VerifierRegistry",
  "sourceName": "contracts/VerifierRegistry.sol",
  "abi": [
    {
      "anonymous": false,
      "inputs": [
        {
          "indexed": true,
          "internalType": "address",
          "name": "previousOwner",
          "type": "address"
        },
        {
          "indexed": true,
          "internalType": "address",
          "name": "newOwner",
          "type": "address"
        }
      ],
      "name": "OwnershipTransferred",
      "type": "event"
    },
    {
      "anonymous": false,
      "inputs": [
        {
          "indexed": false,
          "internalType": "address",
          "name": "verifier",
          "type": "address"
        },
        {
          "components": [
            {
              "internalType": "bytes32",
              "name": "name",
              "type": "bytes32"
            },
            {
              "internalType": "string",
              "name": "did",
              "type": "string"
            },
            {
              "internalType": "string",
              "name": "url",
              "type": "string"
            },
            {
              "internalType": "address",
              "name": "signer",
              "type": "address"
            }
          ],
          "indexed": false,
          "internalType": "struct VerifierInfo",
          "name": "verifierInfo",
          "type": "tuple"
        }
      ],
      "name": "VerifierAdded",
      "type": "event"
    },
    {
      "anonymous": false,
      "inputs": [
        {
          "indexed": false,
          "internalType": "address",
          "name": "verifier",
          "type": "address"
        }
      ],
      "name": "VerifierRemoved",
      "type": "event"
    },
    {
      "anonymous": false,
      "inputs": [
        {
          "indexed": false,
          "internalType": "address",
          "name": "verifier",
          "type": "address"
        },
        {
          "components": [
            {
              "internalType": "bytes32",
              "name": "name",
              "type": "bytes32"
            },
            {
              "internalType": "string",
              "name": "did",
              "type": "string"
            },
            {
              "internalType": "string",
              "name": "url",
              "type": "string"
            },
            {
              "internalType": "address",
              "name": "signer",
              "type": "address"
            }
          ],
          "indexed": false,
          "internalType": "struct VerifierInfo",
          "name": "verifierInfo",
          "type": "tuple"
        }
      ],
      "name": "VerifierUpdated",
      "type": "event"
    },
    {
      "inputs": [
        {
          "internalType": "address",
          "name": "verifierAddress",
          "type": "address"
        },
        {
          "components": [
            {
              "internalType": "bytes32",
              "name": "name",
              "type": "bytes32"
            },
            {
              "internalType": "string",
              "name": "did",
              "type": "string"
            },
            {
              "internalType": "string",
              "name": "url",
              "type": "string"
            },
            {
              "internalType": "address",
              "name": "signer",
              "type": "address"
            }
          ],
          "internalType": "struct VerifierInfo",
          "name": "verifierInfo",
          "type": "tuple"
        }
      ],
      "name": "addVerifier",
      "outputs": [],
      "stateMutability": "nonpayable",
      "type": "function"
    },
    {
      "inputs": [
        {
          "internalType": "address",
          "name": "verifierAddress",
          "type": "address"
        }
      ],
      "name": "getVerifier",
      "outputs": [
        {
          "components": [
            {
              "internalType": "bytes32",
              "name": "name",
              "type": "bytes32"
            },
            {
              "internalType": "string",
              "name": "did",
              "type": "string"
            },
            {
              "internalType": "string",
              "name": "url",
              "type": "string"
            },
            {
              "internalType": "address",
              "name": "signer",
              "type": "address"
            }
          ],
          "internalType": "struct VerifierInfo",
          "name": "",
          "type": "tuple"
        }
      ],
      "stateMutability": "view",
      "type": "function"
    },
    {
      "inputs": [
        {
          "internalType": "address",
          "name": "signerAddress",
          "type": "address"
        }
      ],
      "name": "getVerifierAddressForSigner",
      "outputs": [
        {
          "internalType": "address",
          "name": "",
          "type": "address"
        }
      ],
      "stateMutability": "view",
      "type": "function"
    },
    {
      "inputs": [],
      "name": "getVerifierCount",
      "outputs": [
        {
          "internalType": "uint256",
          "name": "",
          "type": "uint256"
        }
      ],
      "stateMutability": "view",
      "type": "function"
    },
    {
      "inputs": [
        {
          "internalType": "address",
          "name": "account",
          "type": "address"
        }
      ],
      "name": "isVerifier",
      "outputs": [
        {
          "internalType": "bool",
          "name": "",
          "type": "bool"
        }
      ],
      "stateMutability": "view",
      "type": "function"
    },
    {
      "inputs": [],
      "name": "owner",
      "outputs": [
        {
          "internalType": "address",
          "name": "",
          "type": "address"
        }
      ],
      "stateMutability": "view",
      "type": "function"
    },
    {
      "inputs": [
        {
          "internalType": "address",
          "name": "verifierAddress",
          "type": "address"
        }
      ],
      "name": "removeVerifier",
      "outputs": [],
      "stateMutability": "nonpayable",
      "type": "function"
    },
    {
      "inputs": [],
      "name": "renounceOwnership",
      "outputs": [],
      "stateMutability": "nonpayable",
      "type": "function"
    },
    {
      "inputs": [
        {
          "internalType": "address",
          "name": "newOwner",
          "type": "address"
        }
      ],
      "name": "transferOwnership",
      "outputs": [],
      "stateMutability": "nonpayable",
      "type": "function"
    },
    {
      "inputs": [
        {
          "internalType": "address",
          "name": "verifierAddress",
          "type": "address"
        },
        {
          "components": [
            {
              "internalType": "bytes32",
              "name": "name",
              "type": "bytes32"
            },
            {
              "internalType": "string",
              "name": "did",
              "type": "string"
            },
            {
              "internalType": "string",
              "name": "url",
              "type": "string"
            },
            {
              "internalType": "address",
              "name": "signer",
              "type": "address"
            }
          ],
          "internalType": "struct VerifierInfo",
          "name": "verifierInfo",
          "type": "tuple"
        }
      ],
      "name": "updateVerifier",
      "outputs": [],
      "stateMutability": "nonpayable",
      "type": "function"
    },
    {
      "inputs": [
        {
          "internalType": "address",
          "name": "signerAddress",
          "type": "address"
        }
      ],
      "name": "verifySigner",
      "outputs": [],
      "stateMutability": "view",
      "type": "function"
    }
  ],
  "bytecode": "0x6101406040523480156200001257600080fd5b506040518060400160405280601081526020017f56657269666965725265676973747279000000000000000000000000000000008152506040518060400160405280600381526020017f312e3000000000000000000000000000000000000000000000000000000000008152506200009f620000936200015a60201b60201c565b6200016260201b60201c565b60008280519060200120905060008280519060200120905060007f8b73c3c69bb8fe3d512ecc4cf759cc79239f7b179b0ffacaa9a75d522b39400f90508260e081815250508161010081815250504660a08181525050620001088184846200022660201b60201c565b608081815250503073ffffffffffffffffffffffffffffffffffffffff1660c08173ffffffffffffffffffffffffffffffffffffffff1660601b8152505080610120818152505050505050506200033a565b600033905090565b60008060009054906101000a900473ffffffffffffffffffffffffffffffffffffffff169050816000806101000a81548173ffffffffffffffffffffffffffffffffffffffff021916908373ffffffffffffffffffffffffffffffffffffffff1602179055508173ffffffffffffffffffffffffffffffffffffffff168173ffffffffffffffffffffffffffffffffffffffff167f8be0079c531659141344cd1fd0a4f28419497f9722a3daafe3b4186f6b6457e060405160405180910390a35050565b600083838346306040516020016200024395949392919062000295565b6040516020818303038152906040528051906020012090509392505050565b6200026d81620002f2565b82525050565b6200027e8162000306565b82525050565b6200028f8162000330565b82525050565b600060a082019050620002ac600083018862000273565b620002bb602083018762000273565b620002ca604083018662000273565b620002d9606083018562000284565b620002e8608083018462000262565b9695505050505050565b6000620002ff8262000310565b9050919050565b6000819050919050565b600073ffffffffffffffffffffffffffffffffffffffff82169050919050565b6000819050919050565b60805160a05160c05160601c60e05161010051610120516119a26200037b6000396000505060005050600050506000505060005050600050506119a26000f3fe608060405234801561001057600080fd5b50600436106100a95760003560e01c8063715018a611610071578063715018a6146101765780638da5cb5b1461018057806399cf1a1d1461019e578063b9c688a7146101ba578063ca2dfd0a146101d8578063f2fde38b146101f4576100a9565b806301aedd94146100ae578063059ce95d146100ca57806333105218146100fa578063417469a71461012a57806358cfb5ff14610146575b600080fd5b6100c860048036038101906100c3919061115f565b610210565b005b6100e460048036038101906100df919061115f565b610348565b6040516100f191906114c2565b60405180910390f35b610114600480360381019061010f919061115f565b6105ad565b60405161012191906113e7565b60405180910390f35b610144600480360381019061013f9190611188565b6105ff565b005b610160600480360381019061015b919061115f565b61081c565b60405161016d919061139c565b60405180910390f35b61017e610885565b005b610188610899565b604051610195919061139c565b60405180910390f35b6101b860048036038101906101b39190611188565b6108c2565b005b6101c2610af6565b6040516101cf91906114e4565b60405180910390f35b6101f260048036038101906101ed919061115f565b610b00565b005b61020e6004803603810190610209919061115f565b610d37565b005b6000600260008373ffffffffffffffffffffffffffffffffffffffff1673ffffffffffffffffffffffffffffffffffffffff16815260200190815260200160002060009054906101000a900473ffffffffffffffffffffffffffffffffffffffff1690508173ffffffffffffffffffffffffffffffffffffffff16600160008373ffffffffffffffffffffffffffffffffffffffff1673ffffffffffffffffffffffffffffffffffffffff16815260200190815260200160002060030160009054906101000a900473ffffffffffffffffffffffffffffffffffffffff1673ffffffffffffffffffffffffffffffffffffffff1614610344576040517f08c379a000000000000000000000000000000000000000000000000000000000815260040161033b906114a2565b60405180910390fd5b5050565b610350610f05565b6000801b600160008473ffffffffffffffffffffffffffffffffffffffff1673ffffffffffffffffffffffffffffffffffffffff1681526020019081526020016000206000015414156103d8576040517f08c379a00000000000000000000000000000000000000000000000000000000081526004016103cf90611402565b60405180910390fd5b600160008373ffffffffffffffffffffffffffffffffffffffff1673ffffffffffffffffffffffffffffffffffffffff1681526020019081526020016000206040518060800160405290816000820154815260200160018201805461043c90611640565b80601f016020809104026020016040519081016040528092919081815260200182805461046890611640565b80156104b55780601f1061048a576101008083540402835291602001916104b5565b820191906000526020600020905b81548152906001019060200180831161049857829003601f168201915b505050505081526020016002820180546104ce90611640565b80601f01602080910402602001604051908101604052809291908181526020018280546104fa90611640565b80156105475780601f1061051c57610100808354040283529160200191610547565b820191906000526020600020905b81548152906001019060200180831161052a57829003601f168201915b505050505081526020016003820160009054906101000a900473ffffffffffffffffffffffffffffffffffffffff1673ffffffffffffffffffffffffffffffffffffffff1673ffffffffffffffffffffffffffffffffffffffff16815250509050919050565b60008060001b600160008473ffffffffffffffffffffffffffffffffffffffff1673ffffffffffffffffffffffffffffffffffffffff1681526020019081526020016000206000015414159050919050565b610607610dbb565b6000801b600160008473ffffffffffffffffffffffffffffffffffffffff1673ffffffffffffffffffffffffffffffffffffffff16815260200190815260200160002060000154141561068f576040517f08c379a000000000000000000000000000000000000000000000000000000000815260040161068690611402565b60405180910390fd5b80600160008473ffffffffffffffffffffffffffffffffffffffff1673ffffffffffffffffffffffffffffffffffffffff1681526020019081526020016000206000820151816000015560208201518160010190805190602001906106f5929190610f46565b506040820151816002019080519060200190610712929190610f46565b5060608201518160030160006101000a81548173ffffffffffffffffffffffffffffffffffffffff021916908373ffffffffffffffffffffffffffffffffffffffff1602179055509050508160026000836060015173ffffffffffffffffffffffffffffffffffffffff1673ffffffffffffffffffffffffffffffffffffffff16815260200190815260200160002060006101000a81548173ffffffffffffffffffffffffffffffffffffffff021916908373ffffffffffffffffffffffffffffffffffffffff1602179055507fcf8ca726ba9d58efa48fa96d3184c211fcce84e8b5e9a3c83c10c1ba9fd392c682826040516108109291906113b7565b60405180910390a15050565b6000600260008373ffffffffffffffffffffffffffffffffffffffff1673ffffffffffffffffffffffffffffffffffffffff16815260200190815260200160002060009054906101000a900473ffffffffffffffffffffffffffffffffffffffff169050919050565b61088d610dbb565b6108976000610e39565b565b60008060009054906101000a900473ffffffffffffffffffffffffffffffffffffffff16905090565b6108ca610dbb565b6000801b600160008473ffffffffffffffffffffffffffffffffffffffff1673ffffffffffffffffffffffffffffffffffffffff1681526020019081526020016000206000015414610951576040517f08c379a000000000000000000000000000000000000000000000000000000000815260040161094890611442565b60405180910390fd5b80600160008473ffffffffffffffffffffffffffffffffffffffff1673ffffffffffffffffffffffffffffffffffffffff1681526020019081526020016000206000820151816000015560208201518160010190805190602001906109b7929190610f46565b5060408201518160020190805190602001906109d4929190610f46565b5060608201518160030160006101000a81548173ffffffffffffffffffffffffffffffffffffffff021916908373ffffffffffffffffffffffffffffffffffffffff1602179055509050508160026000836060015173ffffffffffffffffffffffffffffffffffffffff1673ffffffffffffffffffffffffffffffffffffffff16815260200190815260200160002060006101000a81548173ffffffffffffffffffffffffffffffffffffffff021916908373ffffffffffffffffffffffffffffffffffffffff16021790555060036000815480929190610ab4906116a3565b91905055507f57fdb74cb7ec2177b327961b74feef54dcb8102656cf6484ea992a84eb1bb4d08282604051610aea9291906113b7565b60405180910390a15050565b6000600354905090565b610b08610dbb565b6000801b600160008373ffffffffffffffffffffffffffffffffffffffff1673ffffffffffffffffffffffffffffffffffffffff168152602001908152602001600020600001541415610b90576040517f08c379a0000000000000000000000000000000000000000000000000000000008152600401610b8790611462565b60405180910390fd5b60026000600160008473ffffffffffffffffffffffffffffffffffffffff1673ffffffffffffffffffffffffffffffffffffffff16815260200190815260200160002060030160009054906101000a900473ffffffffffffffffffffffffffffffffffffffff1673ffffffffffffffffffffffffffffffffffffffff1673ffffffffffffffffffffffffffffffffffffffff16815260200190815260200160002060006101000a81549073ffffffffffffffffffffffffffffffffffffffff0219169055600160008273ffffffffffffffffffffffffffffffffffffffff1673ffffffffffffffffffffffffffffffffffffffff168152602001908152602001600020600080820160009055600182016000610cac9190610fcc565b600282016000610cbc9190610fcc565b6003820160006101000a81549073ffffffffffffffffffffffffffffffffffffffff0219169055505060036000815480929190610cf890611616565b91905055507f44a3cd4eb5cc5748f6169df057b1cb2ae4c383e87cd94663c430e095d4cba42481604051610d2c919061139c565b60405180910390a150565b610d3f610dbb565b600073ffffffffffffffffffffffffffffffffffffffff168173ffffffffffffffffffffffffffffffffffffffff161415610daf576040517f08c379a0000000000000000000000000000000000000000000000000000000008152600401610da690611422565b60405180910390fd5b610db881610e39565b50565b610dc3610efd565b73ffffffffffffffffffffffffffffffffffffffff16610de1610899565b73ffffffffffffffffffffffffffffffffffffffff1614610e37576040517f08c379a0000000000000000000000000000000000000000000000000000000008152600401610e2e90611482565b60405180910390fd5b565b60008060009054906101000a900473ffffffffffffffffffffffffffffffffffffffff169050816000806101000a81548173ffffffffffffffffffffffffffffffffffffffff021916908373ffffffffffffffffffffffffffffffffffffffff1602179055508173ffffffffffffffffffffffffffffffffffffffff168173ffffffffffffffffffffffffffffffffffffffff167f8be0079c531659141344cd1fd0a4f28419497f9722a3daafe3b4186f6b6457e060405160405180910390a35050565b600033905090565b6040518060800160405280600080191681526020016060815260200160608152602001600073ffffffffffffffffffffffffffffffffffffffff1681525090565b828054610f5290611640565b90600052602060002090601f016020900481019282610f745760008555610fbb565b82601f10610f8d57805160ff1916838001178555610fbb565b82800160010185558215610fbb579182015b82811115610fba578251825591602001919060010190610f9f565b5b509050610fc8919061100c565b5090565b508054610fd890611640565b6000825580601f10610fea5750611009565b601f016020900490600052602060002090810190611008919061100c565b5b50565b5b8082111561102557600081600090555060010161100d565b5090565b600061103c61103784611524565b6114ff565b90508281526020810184848401111561105457600080fd5b61105f8482856115d4565b509392505050565b6000813590506110768161193e565b92915050565b60008135905061108b81611955565b92915050565b600082601f8301126110a257600080fd5b81356110b2848260208601611029565b91505092915050565b6000608082840312156110cd57600080fd5b6110d760806114ff565b905060006110e78482850161107c565b600083015250602082013567ffffffffffffffff81111561110757600080fd5b61111384828501611091565b602083015250604082013567ffffffffffffffff81111561113357600080fd5b61113f84828501611091565b604083015250606061115384828501611067565b60608301525092915050565b60006020828403121561117157600080fd5b600061117f84828501611067565b91505092915050565b6000806040838503121561119b57600080fd5b60006111a985828601611067565b925050602083013567ffffffffffffffff8111156111c657600080fd5b6111d2858286016110bb565b9150509250929050565b6111e581611582565b82525050565b6111f481611582565b82525050565b61120381611594565b82525050565b611212816115a0565b82525050565b600061122382611555565b61122d8185611560565b935061123d8185602086016115e3565b61124681611779565b840191505092915050565b600061125e602a83611571565b91506112698261178a565b604082019050919050565b6000611281602683611571565b915061128c826117d9565b604082019050919050565b60006112a4602983611571565b91506112af82611828565b604082019050919050565b60006112c7603183611571565b91506112d282611877565b604082019050919050565b60006112ea602083611571565b91506112f5826118c6565b602082019050919050565b600061130d603283611571565b9150611318826118ef565b604082019050919050565b600060808301600083015161133b6000860182611209565b50602083015184820360208601526113538282611218565b9150506040830151848203604086015261136d8282611218565b915050606083015161138260608601826111dc565b508091505092915050565b611396816115ca565b82525050565b60006020820190506113b160008301846111eb565b92915050565b60006040820190506113cc60008301856111eb565b81810360208301526113de8184611323565b90509392505050565b60006020820190506113fc60008301846111fa565b92915050565b6000602082019050818103600083015261141b81611251565b9050919050565b6000602082019050818103600083015261143b81611274565b9050919050565b6000602082019050818103600083015261145b81611297565b9050919050565b6000602082019050818103600083015261147b816112ba565b9050919050565b6000602082019050818103600083015261149b816112dd565b9050919050565b600060208201905081810360008301526114bb81611300565b9050919050565b600060208201905081810360008301526114dc8184611323565b905092915050565b60006020820190506114f9600083018461138d565b92915050565b600061150961151a565b90506115158282611672565b919050565b6000604051905090565b600067ffffffffffffffff82111561153f5761153e61174a565b5b61154882611779565b9050602081019050919050565b600081519050919050565b600082825260208201905092915050565b600082825260208201905092915050565b600061158d826115aa565b9050919050565b60008115159050919050565b6000819050919050565b600073ffffffffffffffffffffffffffffffffffffffff82169050919050565b6000819050919050565b82818337600083830152505050565b60005b838110156116015780820151818401526020810190506115e6565b83811115611610576000848401525b50505050565b6000611621826115ca565b91506000821415611635576116346116ec565b5b600182039050919050565b6000600282049050600182168061165857607f821691505b6020821081141561166c5761166b61171b565b5b50919050565b61167b82611779565b810181811067ffffffffffffffff8211171561169a5761169961174a565b5b80604052505050565b60006116ae826115ca565b91507fffffffffffffffffffffffffffffffffffffffffffffffffffffffffffffffff8214156116e1576116e06116ec565b5b600182019050919050565b7f4e487b7100000000000000000000000000000000000000000000000000000000600052601160045260246000fd5b7f4e487b7100000000000000000000000000000000000000000000000000000000600052602260045260246000fd5b7f4e487b7100000000000000000000000000000000000000000000000000000000600052604160045260246000fd5b6000601f19601f8301169050919050565b7f566572696669657252656769737472793a20556e6b6e6f776e2056657269666960008201527f6572204164647265737300000000000000000000000000000000000000000000602082015250565b7f4f776e61626c653a206e6577206f776e657220697320746865207a65726f206160008201527f6464726573730000000000000000000000000000000000000000000000000000602082015250565b7f566572696669657252656769737472793a20566572696669657220416464726560008201527f7373204578697374730000000000000000000000000000000000000000000000602082015250565b7f566572696669657252656769737472793a20566572696669657220416464726560008201527f737320446f6573204e6f74204578697374000000000000000000000000000000602082015250565b7f4f776e61626c653a2063616c6c6572206973206e6f7420746865206f776e6572600082015250565b7f566572696669657252656769737472793a205369676e6564206469676573742060008201527f63616e6e6f742062652076657269666965640000000000000000000000000000602082015250565b61194781611582565b811461195257600080fd5b50565b61195e816115a0565b811461196957600080fd5b5056fea2646970667358221220b184ab05d680eb5b4128a52238e4a63d475a06c9b732e88f18cde77e4d450ccc64736f6c63430008040033",
  "linkReferences": {},
  "deployedLinkReferences": {}
}