{
  "_format": "hh-sol-artifact-1",
  "contractName": "VerifiedCredentialRegistry",
  "sourceName": "contracts/VerifiedCredentialRegistry.sol",
  "abi": [
    {
      "anonymous": false,
      "inputs": [
        {
          "indexed": true,
          "internalType": "address",
          "name": "previousOwner",
          "type": "address"
        },
        {
          "indexed": true,
          "internalType": "address",
          "name": "newOwner",
          "type": "address"
        }
      ],
      "name": "OwnershipTransferred",
      "type": "event"
    },
    {
      "anonymous": false,
      "inputs": [
        {
          "indexed": false,
          "internalType": "bytes32",
          "name": "uuid",
          "type": "bytes32"
        }
      ],
      "name": "VerificationRemoved",
      "type": "event"
    },
    {
      "anonymous": false,
      "inputs": [
        {
          "components": [
            {
              "internalType": "bytes32",
              "name": "uuid",
              "type": "bytes32"
            },
            {
              "internalType": "address",
              "name": "verifier",
              "type": "address"
            },
            {
              "internalType": "address",
              "name": "subject",
              "type": "address"
            },
            {
              "internalType": "uint256",
              "name": "entryTime",
              "type": "uint256"
            },
            {
              "internalType": "uint256",
              "name": "expirationTime",
              "type": "uint256"
            },
            {
              "internalType": "bool",
              "name": "revoked",
              "type": "bool"
            }
          ],
          "indexed": false,
          "internalType": "struct VerificationRecord",
          "name": "verificationRecord",
          "type": "tuple"
        }
      ],
      "name": "VerificationResultConfirmed",
      "type": "event"
    },
    {
      "anonymous": false,
      "inputs": [
        {
          "indexed": false,
          "internalType": "bytes32",
          "name": "uuid",
          "type": "bytes32"
        }
      ],
      "name": "VerificationRevoked",
      "type": "event"
    },
    {
      "inputs": [
        {
          "internalType": "bytes32",
          "name": "uuid",
          "type": "bytes32"
        }
      ],
      "name": "getVerification",
      "outputs": [
        {
          "components": [
            {
              "internalType": "bytes32",
              "name": "uuid",
              "type": "bytes32"
            },
            {
              "internalType": "address",
              "name": "verifier",
              "type": "address"
            },
            {
              "internalType": "address",
              "name": "subject",
              "type": "address"
            },
            {
              "internalType": "uint256",
              "name": "entryTime",
              "type": "uint256"
            },
            {
              "internalType": "uint256",
              "name": "expirationTime",
              "type": "uint256"
            },
            {
              "internalType": "bool",
              "name": "revoked",
              "type": "bool"
            }
          ],
          "internalType": "struct VerificationRecord",
          "name": "",
          "type": "tuple"
        }
      ],
      "stateMutability": "view",
      "type": "function"
    },
    {
      "inputs": [],
      "name": "getVerificationCount",
      "outputs": [
        {
          "internalType": "uint256",
          "name": "",
          "type": "uint256"
        }
      ],
      "stateMutability": "view",
      "type": "function"
    },
    {
      "inputs": [
        {
          "internalType": "address",
          "name": "subject",
          "type": "address"
        }
      ],
      "name": "getVerificationsForSubject",
      "outputs": [
        {
          "components": [
            {
              "internalType": "bytes32",
              "name": "uuid",
              "type": "bytes32"
            },
            {
              "internalType": "address",
              "name": "verifier",
              "type": "address"
            },
            {
              "internalType": "address",
              "name": "subject",
              "type": "address"
            },
            {
              "internalType": "uint256",
              "name": "entryTime",
              "type": "uint256"
            },
            {
              "internalType": "uint256",
              "name": "expirationTime",
              "type": "uint256"
            },
            {
              "internalType": "bool",
              "name": "revoked",
              "type": "bool"
            }
          ],
          "internalType": "struct VerificationRecord[]",
          "name": "",
          "type": "tuple[]"
        }
      ],
      "stateMutability": "view",
      "type": "function"
    },
    {
      "inputs": [
        {
          "internalType": "address",
          "name": "verifier",
          "type": "address"
        }
      ],
      "name": "getVerificationsForVerifier",
      "outputs": [
        {
          "components": [
            {
              "internalType": "bytes32",
              "name": "uuid",
              "type": "bytes32"
            },
            {
              "internalType": "address",
              "name": "verifier",
              "type": "address"
            },
            {
              "internalType": "address",
              "name": "subject",
              "type": "address"
            },
            {
              "internalType": "uint256",
              "name": "entryTime",
              "type": "uint256"
            },
            {
              "internalType": "uint256",
              "name": "expirationTime",
              "type": "uint256"
            },
            {
              "internalType": "bool",
              "name": "revoked",
              "type": "bool"
            }
          ],
          "internalType": "struct VerificationRecord[]",
          "name": "",
          "type": "tuple[]"
        }
      ],
      "stateMutability": "view",
      "type": "function"
    },
    {
      "inputs": [
        {
          "internalType": "address",
          "name": "subject",
          "type": "address"
        }
      ],
      "name": "isVerified",
      "outputs": [
        {
          "internalType": "bool",
          "name": "",
          "type": "bool"
        }
      ],
      "stateMutability": "view",
      "type": "function"
    },
    {
      "inputs": [],
      "name": "owner",
      "outputs": [
        {
          "internalType": "address",
          "name": "",
          "type": "address"
        }
      ],
      "stateMutability": "view",
      "type": "function"
    },
    {
      "inputs": [
        {
          "components": [
            {
              "internalType": "string",
              "name": "schema",
              "type": "string"
            },
            {
              "internalType": "address",
              "name": "subject",
              "type": "address"
            },
            {
              "internalType": "uint256",
              "name": "expiration",
              "type": "uint256"
            }
          ],
          "internalType": "struct VerificationResult",
          "name": "verificationResult",
          "type": "tuple"
        },
        {
          "internalType": "bytes",
          "name": "signature",
          "type": "bytes"
        }
      ],
      "name": "registerVerification",
      "outputs": [
        {
          "components": [
            {
              "internalType": "bytes32",
              "name": "uuid",
              "type": "bytes32"
            },
            {
              "internalType": "address",
              "name": "verifier",
              "type": "address"
            },
            {
              "internalType": "address",
              "name": "subject",
              "type": "address"
            },
            {
              "internalType": "uint256",
              "name": "entryTime",
              "type": "uint256"
            },
            {
              "internalType": "uint256",
              "name": "expirationTime",
              "type": "uint256"
            },
            {
              "internalType": "bool",
              "name": "revoked",
              "type": "bool"
            }
          ],
          "internalType": "struct VerificationRecord",
          "name": "",
          "type": "tuple"
        }
      ],
      "stateMutability": "nonpayable",
      "type": "function"
    },
    {
      "inputs": [
        {
          "internalType": "bytes32",
          "name": "uuid",
          "type": "bytes32"
        }
      ],
      "name": "removeVerification",
      "outputs": [],
      "stateMutability": "nonpayable",
      "type": "function"
    },
    {
      "inputs": [],
      "name": "renounceOwnership",
      "outputs": [],
      "stateMutability": "nonpayable",
      "type": "function"
    },
    {
      "inputs": [
        {
          "internalType": "bytes32",
          "name": "uuid",
          "type": "bytes32"
        }
      ],
      "name": "revokeVerification",
      "outputs": [],
      "stateMutability": "nonpayable",
      "type": "function"
    },
    {
      "inputs": [
        {
          "internalType": "address",
          "name": "_verifierRegistryAddress",
          "type": "address"
        }
      ],
      "name": "setVerifierRegistry",
      "outputs": [],
      "stateMutability": "nonpayable",
      "type": "function"
    },
    {
      "inputs": [
        {
          "internalType": "address",
          "name": "newOwner",
          "type": "address"
        }
      ],
      "name": "transferOwnership",
      "outputs": [],
      "stateMutability": "nonpayable",
      "type": "function"
    }
  ],
  "bytecode": "0x6101406040523480156200001257600080fd5b506040518060400160405280601a81526020017f566572696669656443726564656e7469616c52656769737472790000000000008152506040518060400160405280600381526020017f312e3000000000000000000000000000000000000000000000000000000000008152506200009f620000936200015a60201b60201c565b6200016260201b60201c565b60008280519060200120905060008280519060200120905060007f8b73c3c69bb8fe3d512ecc4cf759cc79239f7b179b0ffacaa9a75d522b39400f90508260e081815250508161010081815250504660a08181525050620001088184846200022660201b60201c565b608081815250503073ffffffffffffffffffffffffffffffffffffffff1660c08173ffffffffffffffffffffffffffffffffffffffff1660601b8152505080610120818152505050505050506200033a565b600033905090565b60008060009054906101000a900473ffffffffffffffffffffffffffffffffffffffff169050816000806101000a81548173ffffffffffffffffffffffffffffffffffffffff021916908373ffffffffffffffffffffffffffffffffffffffff1602179055508173ffffffffffffffffffffffffffffffffffffffff168173ffffffffffffffffffffffffffffffffffffffff167f8be0079c531659141344cd1fd0a4f28419497f9722a3daafe3b4186f6b6457e060405160405180910390a35050565b600083838346306040516020016200024395949392919062000295565b6040516020818303038152906040528051906020012090509392505050565b6200026d81620002f2565b82525050565b6200027e8162000306565b82525050565b6200028f8162000330565b82525050565b600060a082019050620002ac600083018862000273565b620002bb602083018762000273565b620002ca604083018662000273565b620002d9606083018562000284565b620002e8608083018462000262565b9695505050505050565b6000620002ff8262000310565b9050919050565b6000819050919050565b600073ffffffffffffffffffffffffffffffffffffffff82169050919050565b6000819050919050565b60805160a05160c05160601c60e051610100516101205161305f6200038d6000396000611a3001526000611a7201526000611a5101526000611986015260006119dc01526000611a05015261305f6000f3fe608060405234801561001057600080fd5b50600436106100b45760003560e01c80638da5cb5b116100715780638da5cb5b1461016557806394ef244014610183578063958c39ff146101b3578063b9209e33146101e3578063ed2ffd2814610213578063f2fde38b14610243576100b4565b80630e9e848f146100b95780631f05b374146100e95780634e4de26d146101075780636e485c171461012357806370eba1241461013f578063715018a61461015b575b600080fd5b6100d360048036038101906100ce91906121d1565b61025f565b6040516100e0919061276e565b60405180910390f35b6100f1610599565b6040516100fe9190612a1e565b60405180910390f35b610121600480360381019061011c919061224c565b6105a3565b005b61013d600480360381019061013891906121d1565b6107fb565b005b6101596004803603810190610154919061224c565b610847565b005b610163610a3e565b005b61016d610a52565b60405161017a9190612753565b60405180910390f35b61019d6004803603810190610198919061224c565b610a7b565b6040516101aa9190612a03565b60405180910390f35b6101cd60048036038101906101c89190612275565b610b8d565b6040516101da9190612a03565b60405180910390f35b6101fd60048036038101906101f891906121d1565b610ce0565b60405161020a9190612790565b60405180910390f35b61022d600480360381019061022891906121d1565b610f7c565b60405161023a919061276e565b60405180910390f35b61025d600480360381019061025891906121d1565b6112b6565b005b6060600073ffffffffffffffffffffffffffffffffffffffff168273ffffffffffffffffffffffffffffffffffffffff1614156102d1576040517f08c379a00000000000000000000000000000000000000000000000000000000081526004016102c8906128e3565b60405180910390fd5b6000600460008473ffffffffffffffffffffffffffffffffffffffff1673ffffffffffffffffffffffffffffffffffffffff16815260200190815260200160002080548060200260200160405190810160405280929190818152602001828054801561035c57602002820191906000526020600020905b815481526020019060010190808311610348575b505050505090506000815167ffffffffffffffff8111156103a6577f4e487b7100000000000000000000000000000000000000000000000000000000600052604160045260246000fd5b6040519080825280602002602001820160405280156103df57816020015b6103cc611fb9565b8152602001906001900390816103c45790505b50905060005b825181101561058e5760006002600085848151811061042d577f4e487b7100000000000000000000000000000000000000000000000000000000600052603260045260246000fd5b602002602001015181526020019081526020016000206040518060c0016040529081600082015481526020016001820160009054906101000a900473ffffffffffffffffffffffffffffffffffffffff1673ffffffffffffffffffffffffffffffffffffffff1673ffffffffffffffffffffffffffffffffffffffff1681526020016002820160009054906101000a900473ffffffffffffffffffffffffffffffffffffffff1673ffffffffffffffffffffffffffffffffffffffff1673ffffffffffffffffffffffffffffffffffffffff16815260200160038201548152602001600482015481526020016005820160009054906101000a900460ff16151515158152505090508083838151811061056f577f4e487b7100000000000000000000000000000000000000000000000000000000600052603260045260246000fd5b602002602001018190525050808061058690612bb4565b9150506103e5565b508092505050919050565b6000600554905090565b600160009054906101000a900473ffffffffffffffffffffffffffffffffffffffff1673ffffffffffffffffffffffffffffffffffffffff166333105218336040518263ffffffff1660e01b81526004016105fe9190612753565b60206040518083038186803b15801561061657600080fd5b505afa15801561062a573d6000803e3d6000fd5b505050506040513d601f19601f8201168201806040525081019061064e9190612223565b61068d576040517f08c379a0000000000000000000000000000000000000000000000000000000008152600401610684906129e3565b60405180910390fd5b3373ffffffffffffffffffffffffffffffffffffffff166002600083815260200190815260200160002060010160009054906101000a900473ffffffffffffffffffffffffffffffffffffffff1673ffffffffffffffffffffffffffffffffffffffff1614610731576040517f08c379a000000000000000000000000000000000000000000000000000000000815260040161072890612963565b60405180910390fd5b600260008281526020019081526020016000206000808201600090556001820160006101000a81549073ffffffffffffffffffffffffffffffffffffffff02191690556002820160006101000a81549073ffffffffffffffffffffffffffffffffffffffff0219169055600382016000905560048201600090556005820160006101000a81549060ff021916905550507f9abf56d49e4ef717f3418600d3ed66048ca2ed8e3e630a70b76a71dd2142def5816040516107f091906127ab565b60405180910390a150565b61080361133a565b80600160006101000a81548173ffffffffffffffffffffffffffffffffffffffff021916908373ffffffffffffffffffffffffffffffffffffffff16021790555050565b600160009054906101000a900473ffffffffffffffffffffffffffffffffffffffff1673ffffffffffffffffffffffffffffffffffffffff166333105218336040518263ffffffff1660e01b81526004016108a29190612753565b60206040518083038186803b1580156108ba57600080fd5b505afa1580156108ce573d6000803e3d6000fd5b505050506040513d601f19601f820116820180604052508101906108f29190612223565b610931576040517f08c379a0000000000000000000000000000000000000000000000000000000008152600401610928906129e3565b60405180910390fd5b3373ffffffffffffffffffffffffffffffffffffffff166002600083815260200190815260200160002060010160009054906101000a900473ffffffffffffffffffffffffffffffffffffffff1673ffffffffffffffffffffffffffffffffffffffff16146109d5576040517f08c379a00000000000000000000000000000000000000000000000000000000081526004016109cc906129a3565b60405180910390fd5b60016002600083815260200190815260200160002060050160006101000a81548160ff0219169083151502179055507f071ad1bb208a373a52e72fe5d8aa7755d658f88e197e666bf1a6d09d0ddb505681604051610a3391906127ab565b60405180910390a150565b610a4661133a565b610a5060006113b8565b565b60008060009054906101000a900473ffffffffffffffffffffffffffffffffffffffff16905090565b610a83611fb9565b600260008381526020019081526020016000206040518060c0016040529081600082015481526020016001820160009054906101000a900473ffffffffffffffffffffffffffffffffffffffff1673ffffffffffffffffffffffffffffffffffffffff1673ffffffffffffffffffffffffffffffffffffffff1681526020016002820160009054906101000a900473ffffffffffffffffffffffffffffffffffffffff1673ffffffffffffffffffffffffffffffffffffffff1673ffffffffffffffffffffffffffffffffffffffff16815260200160038201548152602001600482015481526020016005820160009054906101000a900460ff1615151515815250509050919050565b610b95611fb9565b600160009054906101000a900473ffffffffffffffffffffffffffffffffffffffff1673ffffffffffffffffffffffffffffffffffffffff166333105218336040518263ffffffff1660e01b8152600401610bf09190612753565b60206040518083038186803b158015610c0857600080fd5b505afa158015610c1c573d6000803e3d6000fd5b505050506040513d601f19601f82011682018060405250810190610c409190612223565b610c7f576040517f08c379a0000000000000000000000000000000000000000000000000000000008152600401610c76906129e3565b60405180910390fd5b610c888361147c565b6000610c94848461147f565b9050610c9f81611711565b7fb13e5e7efcce7bbc67740f0fe050563d4fd1f5cc7096c3a32cb901711c95ab5481604051610cce9190612a03565b60405180910390a18091505092915050565b60008073ffffffffffffffffffffffffffffffffffffffff168273ffffffffffffffffffffffffffffffffffffffff161415610d51576040517f08c379a0000000000000000000000000000000000000000000000000000000008152600401610d48906128e3565b60405180910390fd5b6000600360008473ffffffffffffffffffffffffffffffffffffffff1673ffffffffffffffffffffffffffffffffffffffff168152602001908152602001600020805480602002602001604051908101604052809291908181526020018280548015610ddc57602002820191906000526020600020905b815481526020019060010190808311610dc8575b5050505050905060005b8151811015610f7057600060026000848481518110610e2e577f4e487b7100000000000000000000000000000000000000000000000000000000600052603260045260246000fd5b602002602001015181526020019081526020016000206040518060c0016040529081600082015481526020016001820160009054906101000a900473ffffffffffffffffffffffffffffffffffffffff1673ffffffffffffffffffffffffffffffffffffffff1673ffffffffffffffffffffffffffffffffffffffff1681526020016002820160009054906101000a900473ffffffffffffffffffffffffffffffffffffffff1673ffffffffffffffffffffffffffffffffffffffff1673ffffffffffffffffffffffffffffffffffffffff16815260200160038201548152602001600482015481526020016005820160009054906101000a900460ff16151515158152505090508060a00151158015610f4b5750428160800151115b15610f5c5760019350505050610f77565b508080610f6890612bb4565b915050610de6565b5060009150505b919050565b6060600073ffffffffffffffffffffffffffffffffffffffff168273ffffffffffffffffffffffffffffffffffffffff161415610fee576040517f08c379a0000000000000000000000000000000000000000000000000000000008152600401610fe5906128e3565b60405180910390fd5b6000600360008473ffffffffffffffffffffffffffffffffffffffff1673ffffffffffffffffffffffffffffffffffffffff16815260200190815260200160002080548060200260200160405190810160405280929190818152602001828054801561107957602002820191906000526020600020905b815481526020019060010190808311611065575b505050505090506000815167ffffffffffffffff8111156110c3577f4e487b7100000000000000000000000000000000000000000000000000000000600052604160045260246000fd5b6040519080825280602002602001820160405280156110fc57816020015b6110e9611fb9565b8152602001906001900390816110e15790505b50905060005b82518110156112ab5760006002600085848151811061114a577f4e487b7100000000000000000000000000000000000000000000000000000000600052603260045260246000fd5b602002602001015181526020019081526020016000206040518060c0016040529081600082015481526020016001820160009054906101000a900473ffffffffffffffffffffffffffffffffffffffff1673ffffffffffffffffffffffffffffffffffffffff1673ffffffffffffffffffffffffffffffffffffffff1681526020016002820160009054906101000a900473ffffffffffffffffffffffffffffffffffffffff1673ffffffffffffffffffffffffffffffffffffffff1673ffffffffffffffffffffffffffffffffffffffff16815260200160038201548152602001600482015481526020016005820160009054906101000a900460ff16151515158152505090508083838151811061128c577f4e487b7100000000000000000000000000000000000000000000000000000000600052603260045260246000fd5b60200260200101819052505080806112a390612bb4565b915050611102565b508092505050919050565b6112be61133a565b600073ffffffffffffffffffffffffffffffffffffffff168173ffffffffffffffffffffffffffffffffffffffff16141561132e576040517f08c379a000000000000000000000000000000000000000000000000000000000815260040161132590612903565b60405180910390fd5b611337816113b8565b50565b6113426118ef565b73ffffffffffffffffffffffffffffffffffffffff16611360610a52565b73ffffffffffffffffffffffffffffffffffffffff16146113b6576040517f08c379a00000000000000000000000000000000000000000000000000000000081526004016113ad906129c3565b60405180910390fd5b565b60008060009054906101000a900473ffffffffffffffffffffffffffffffffffffffff169050816000806101000a81548173ffffffffffffffffffffffffffffffffffffffff021916908373ffffffffffffffffffffffffffffffffffffffff1602179055508173ffffffffffffffffffffffffffffffffffffffff168173ffffffffffffffffffffffffffffffffffffffff167f8be0079c531659141344cd1fd0a4f28419497f9722a3daafe3b4186f6b6457e060405160405180910390a35050565b50565b611487611fb9565b60006114f17f10f37c780798f8d6ccc5deba550b287b1ccef3a50b9007536dc9ce57c6f06683856000015180519060200120866020015187604001516040516020016114d694939291906127c6565b604051602081830303815290604052805190602001206118f7565b905060006114ff8285611911565b90506000600160009054906101000a900473ffffffffffffffffffffffffffffffffffffffff1673ffffffffffffffffffffffffffffffffffffffff166358cfb5ff836040518263ffffffff1660e01b815260040161155e9190612753565b60206040518083038186803b15801561157657600080fd5b505afa15801561158a573d6000803e3d6000fd5b505050506040513d601f19601f820116820180604052508101906115ae91906121fa565b9050600160009054906101000a900473ffffffffffffffffffffffffffffffffffffffff1673ffffffffffffffffffffffffffffffffffffffff166301aedd94836040518263ffffffff1660e01b815260040161160b9190612753565b60006040518083038186803b15801561162357600080fd5b505afa158015611637573d6000803e3d6000fd5b5050505042866040015111611681576040517f08c379a000000000000000000000000000000000000000000000000000000000815260040161167890612943565b60405180910390fd5b60006040518060c001604052806000801b81526020018373ffffffffffffffffffffffffffffffffffffffff168152602001886020015173ffffffffffffffffffffffffffffffffffffffff1681526020014281526020018860400151815260200160001515815250905060006116f782611938565b905080826000018181525050819550505050505092915050565b6005600081548092919061172490612bb4565b91905055508060026000836000015181526020019081526020016000206000820151816000015560208201518160010160006101000a81548173ffffffffffffffffffffffffffffffffffffffff021916908373ffffffffffffffffffffffffffffffffffffffff16021790555060408201518160020160006101000a81548173ffffffffffffffffffffffffffffffffffffffff021916908373ffffffffffffffffffffffffffffffffffffffff160217905550606082015181600301556080820151816004015560a08201518160050160006101000a81548160ff02191690831515021790555090505060036000826040015173ffffffffffffffffffffffffffffffffffffffff1673ffffffffffffffffffffffffffffffffffffffff1681526020019081526020016000208160000151908060018154018082558091505060019003906000526020600020016000909190919091505560046000826020015173ffffffffffffffffffffffffffffffffffffffff1673ffffffffffffffffffffffffffffffffffffffff1681526020019081526020016000208160000151908060018154018082558091505060019003906000526020600020016000909190919091505550565b600033905090565b600061190a611904611982565b83611a9c565b9050919050565b60008060006119208585611acf565b9150915061192d81611b21565b819250505092915050565b600081602001518260400151836060015184608001516005546040516020016119659594939291906126bd565b604051602081830303815290604052805190602001209050919050565b60007f000000000000000000000000000000000000000000000000000000000000000073ffffffffffffffffffffffffffffffffffffffff163073ffffffffffffffffffffffffffffffffffffffff161480156119fe57507f000000000000000000000000000000000000000000000000000000000000000046145b15611a2b577f00000000000000000000000000000000000000000000000000000000000000009050611a99565b611a967f00000000000000000000000000000000000000000000000000000000000000007f00000000000000000000000000000000000000000000000000000000000000007f0000000000000000000000000000000000000000000000000000000000000000611e72565b90505b90565b60008282604051602001611ab192919061271c565b60405160208183030381529060405280519060200120905092915050565b600080604183511415611b115760008060006020860151925060408601519150606086015160001a9050611b0587828585611eac565b94509450505050611b1a565b60006002915091505b9250929050565b60006004811115611b5b577f4e487b7100000000000000000000000000000000000000000000000000000000600052602160045260246000fd5b816004811115611b94577f4e487b7100000000000000000000000000000000000000000000000000000000600052602160045260246000fd5b1415611b9f57611e6f565b60016004811115611bd9577f4e487b7100000000000000000000000000000000000000000000000000000000600052602160045260246000fd5b816004811115611c12577f4e487b7100000000000000000000000000000000000000000000000000000000600052602160045260246000fd5b1415611c53576040517f08c379a0000000000000000000000000000000000000000000000000000000008152600401611c4a906128a3565b60405180910390fd5b60026004811115611c8d577f4e487b7100000000000000000000000000000000000000000000000000000000600052602160045260246000fd5b816004811115611cc6577f4e487b7100000000000000000000000000000000000000000000000000000000600052602160045260246000fd5b1415611d07576040517f08c379a0000000000000000000000000000000000000000000000000000000008152600401611cfe906128c3565b60405180910390fd5b60036004811115611d41577f4e487b7100000000000000000000000000000000000000000000000000000000600052602160045260246000fd5b816004811115611d7a577f4e487b7100000000000000000000000000000000000000000000000000000000600052602160045260246000fd5b1415611dbb576040517f08c379a0000000000000000000000000000000000000000000000000000000008152600401611db290612923565b60405180910390fd5b600480811115611df4577f4e487b7100000000000000000000000000000000000000000000000000000000600052602160045260246000fd5b816004811115611e2d577f4e487b7100000000000000000000000000000000000000000000000000000000600052602160045260246000fd5b1415611e6e576040517f08c379a0000000000000000000000000000000000000000000000000000000008152600401611e6590612983565b60405180910390fd5b5b50565b60008383834630604051602001611e8d95949392919061280b565b6040516020818303038152906040528051906020012090509392505050565b6000807f7fffffffffffffffffffffffffffffff5d576e7357a4501ddfe92f46681b20a08360001c1115611ee7576000600391509150611fb0565b601b8560ff1614158015611eff5750601c8560ff1614155b15611f11576000600491509150611fb0565b600060018787878760405160008152602001604052604051611f36949392919061285e565b6020604051602081039080840390855afa158015611f58573d6000803e3d6000fd5b505050602060405103519050600073ffffffffffffffffffffffffffffffffffffffff168173ffffffffffffffffffffffffffffffffffffffff161415611fa757600060019250925050611fb0565b80600092509250505b94509492505050565b6040518060c0016040528060008019168152602001600073ffffffffffffffffffffffffffffffffffffffff168152602001600073ffffffffffffffffffffffffffffffffffffffff16815260200160008152602001600081526020016000151581525090565b600061203361202e84612a5e565b612a39565b90508281526020810184848401111561204b57600080fd5b612056848285612b74565b509392505050565b600061207161206c84612a8f565b612a39565b90508281526020810184848401111561208957600080fd5b612094848285612b74565b509392505050565b6000813590506120ab81612fcd565b92915050565b6000815190506120c081612fcd565b92915050565b6000815190506120d581612fe4565b92915050565b6000813590506120ea81612ffb565b92915050565b600082601f83011261210157600080fd5b8135612111848260208601612020565b91505092915050565b600082601f83011261212b57600080fd5b813561213b84826020860161205e565b91505092915050565b60006060828403121561215657600080fd5b6121606060612a39565b9050600082013567ffffffffffffffff81111561217c57600080fd5b6121888482850161211a565b600083015250602061219c8482850161209c565b60208301525060406121b0848285016121bc565b60408301525092915050565b6000813590506121cb81613012565b92915050565b6000602082840312156121e357600080fd5b60006121f18482850161209c565b91505092915050565b60006020828403121561220c57600080fd5b600061221a848285016120b1565b91505092915050565b60006020828403121561223557600080fd5b6000612243848285016120c6565b91505092915050565b60006020828403121561225e57600080fd5b600061226c848285016120db565b91505092915050565b6000806040838503121561228857600080fd5b600083013567ffffffffffffffff8111156122a257600080fd5b6122ae85828601612144565b925050602083013567ffffffffffffffff8111156122cb57600080fd5b6122d7858286016120f0565b9150509250929050565b60006122ed8383612583565b60c08301905092915050565b61230281612b15565b82525050565b61231181612b15565b82525050565b61232861232382612b15565b612bfd565b82525050565b600061233982612ad0565b6123438185612ae8565b935061234e83612ac0565b8060005b8381101561237f57815161236688826122e1565b975061237183612adb565b925050600181019050612352565b5085935050505092915050565b61239581612b27565b82525050565b6123a481612b27565b82525050565b6123b381612b33565b82525050565b6123c281612b33565b82525050565b6123d96123d482612b33565b612c0f565b82525050565b60006123ec601883612af9565b91506123f782612cb1565b602082019050919050565b600061240f601f83612af9565b915061241a82612cda565b602082019050919050565b6000612432602b83612af9565b915061243d82612d03565b604082019050919050565b6000612455602683612af9565b915061246082612d52565b604082019050919050565b6000612478600283612b0a565b915061248382612da1565b600282019050919050565b600061249b602283612af9565b91506124a682612dca565b604082019050919050565b60006124be603d83612af9565b91506124c982612e19565b604082019050919050565b60006124e1604f83612af9565b91506124ec82612e68565b606082019050919050565b6000612504602283612af9565b915061250f82612edd565b604082019050919050565b6000612527603f83612af9565b915061253282612f2c565b604082019050919050565b600061254a602083612af9565b915061255582612f7b565b602082019050919050565b600061256d600e83612af9565b915061257882612fa4565b602082019050919050565b60c08201600082015161259960008501826123aa565b5060208201516125ac60208501826122f9565b5060408201516125bf60408501826122f9565b5060608201516125d26060850182612679565b5060808201516125e56080850182612679565b5060a08201516125f860a085018261238c565b50505050565b60c08201600082015161261460008501826123aa565b50602082015161262760208501826122f9565b50604082015161263a60408501826122f9565b50606082015161264d6060850182612679565b5060808201516126606080850182612679565b5060a082015161267360a085018261238c565b50505050565b61268281612b5d565b82525050565b61269181612b5d565b82525050565b6126a86126a382612b5d565b612c2b565b82525050565b6126b781612b67565b82525050565b60006126c98288612317565b6014820191506126d98287612317565b6014820191506126e98286612697565b6020820191506126f98285612697565b6020820191506127098284612697565b6020820191508190509695505050505050565b60006127278261246b565b915061273382856123c8565b60208201915061274382846123c8565b6020820191508190509392505050565b60006020820190506127686000830184612308565b92915050565b60006020820190508181036000830152612788818461232e565b905092915050565b60006020820190506127a5600083018461239b565b92915050565b60006020820190506127c060008301846123b9565b92915050565b60006080820190506127db60008301876123b9565b6127e860208301866123b9565b6127f56040830185612308565b6128026060830184612688565b95945050505050565b600060a08201905061282060008301886123b9565b61282d60208301876123b9565b61283a60408301866123b9565b6128476060830185612688565b6128546080830184612308565b9695505050505050565b600060808201905061287360008301876123b9565b61288060208301866126ae565b61288d60408301856123b9565b61289a60608301846123b9565b95945050505050565b600060208201905081810360008301526128bc816123df565b9050919050565b600060208201905081810360008301526128dc81612402565b9050919050565b600060208201905081810360008301526128fc81612425565b9050919050565b6000602082019050818103600083015261291c81612448565b9050919050565b6000602082019050818103600083015261293c8161248e565b9050919050565b6000602082019050818103600083015261295c816124b1565b9050919050565b6000602082019050818103600083015261297c816124d4565b9050919050565b6000602082019050818103600083015261299c816124f7565b9050919050565b600060208201905081810360008301526129bc8161251a565b9050919050565b600060208201905081810360008301526129dc8161253d565b9050919050565b600060208201905081810360008301526129fc81612560565b9050919050565b600060c082019050612a1860008301846125fe565b92915050565b6000602082019050612a336000830184612688565b92915050565b6000612a43612a54565b9050612a4f8282612b83565b919050565b6000604051905090565b600067ffffffffffffffff821115612a7957612a78612c64565b5b612a8282612c93565b9050602081019050919050565b600067ffffffffffffffff821115612aaa57612aa9612c64565b5b612ab382612c93565b9050602081019050919050565b6000819050602082019050919050565b600081519050919050565b6000602082019050919050565b600082825260208201905092915050565b600082825260208201905092915050565b600081905092915050565b6000612b2082612b3d565b9050919050565b60008115159050919050565b6000819050919050565b600073ffffffffffffffffffffffffffffffffffffffff82169050919050565b6000819050919050565b600060ff82169050919050565b82818337600083830152505050565b612b8c82612c93565b810181811067ffffffffffffffff82111715612bab57612baa612c64565b5b80604052505050565b6000612bbf82612b5d565b91507fffffffffffffffffffffffffffffffffffffffffffffffffffffffffffffffff821415612bf257612bf1612c35565b5b600182019050919050565b6000612c0882612c19565b9050919050565b6000819050919050565b6000612c2482612ca4565b9050919050565b6000819050919050565b7f4e487b7100000000000000000000000000000000000000000000000000000000600052601160045260246000fd5b7f4e487b7100000000000000000000000000000000000000000000000000000000600052604160045260246000fd5b6000601f19601f8301169050919050565b60008160601b9050919050565b7f45434453413a20696e76616c6964207369676e61747572650000000000000000600082015250565b7f45434453413a20696e76616c6964207369676e6174757265206c656e67746800600082015250565b7f566572696669656443726564656e7469616c52656769737472793a20496e766160008201527f6c69642061646472657373000000000000000000000000000000000000000000602082015250565b7f4f776e61626c653a206e6577206f776e657220697320746865207a65726f206160008201527f6464726573730000000000000000000000000000000000000000000000000000602082015250565b7f1901000000000000000000000000000000000000000000000000000000000000600082015250565b7f45434453413a20696e76616c6964207369676e6174757265202773272076616c60008201527f7565000000000000000000000000000000000000000000000000000000000000602082015250565b7f566572696669656443726564656e7469616c52656769737472793a205665726960008201527f6669636174696f6e20636f6e6669726d6174696f6e2065787069726564000000602082015250565b7f566572696669656443726564656e7469616c52656769737472793a2043616c6c60008201527f6572206973206e6f7420746865207665726966696572206f662074686520726560208201527f666572656e636564207265636f72640000000000000000000000000000000000604082015250565b7f45434453413a20696e76616c6964207369676e6174757265202776272076616c60008201527f7565000000000000000000000000000000000000000000000000000000000000602082015250565b7f566572696669656443726564656e7469616c52656769737472793a2043616c6c60008201527f6572206973206e6f7420746865206f726967696e616c20766572696669657200602082015250565b7f4f776e61626c653a2063616c6c6572206973206e6f7420746865206f776e6572600082015250565b7f4e6f742061207665726966696572000000000000000000000000000000000000600082015250565b612fd681612b15565b8114612fe157600080fd5b50565b612fed81612b27565b8114612ff857600080fd5b50565b61300481612b33565b811461300f57600080fd5b50565b61301b81612b5d565b811461302657600080fd5b5056fea2646970667358221220cb425886505af1290a371209268b82a0ce8b96985a0e1d9d6823315dfec29d9764736f6c63430008040033",
  "linkReferences": {},
  "deployedLinkReferences": {}
}