{
  "_format": "hh-sol-artifact-1",
  "contractName": "VerifiedCredentialRegistry",
  "sourceName": "contracts/VerifiedCredentialRegistry.sol",
  "abi": [
    {
      "anonymous": false,
      "inputs": [
        {
          "indexed": true,
          "internalType": "address",
          "name": "previousOwner",
          "type": "address"
        },
        {
          "indexed": true,
          "internalType": "address",
          "name": "newOwner",
          "type": "address"
        }
      ],
      "name": "OwnershipTransferred",
      "type": "event"
    },
    {
      "anonymous": false,
      "inputs": [
        {
          "indexed": false,
          "internalType": "bytes32",
          "name": "uuid",
          "type": "bytes32"
        }
      ],
      "name": "VerificationRemoved",
      "type": "event"
    },
    {
      "anonymous": false,
      "inputs": [
        {
          "components": [
            {
              "internalType": "bytes32",
              "name": "uuid",
              "type": "bytes32"
            },
            {
              "internalType": "address",
              "name": "verifier",
              "type": "address"
            },
            {
              "internalType": "address",
              "name": "subject",
              "type": "address"
            },
            {
              "internalType": "uint256",
              "name": "entryTime",
              "type": "uint256"
            },
            {
              "internalType": "uint256",
              "name": "expirationTime",
              "type": "uint256"
            },
            {
              "internalType": "bool",
              "name": "revoked",
              "type": "bool"
            }
          ],
          "indexed": false,
          "internalType": "struct VerificationRecord",
          "name": "verificationRecord",
          "type": "tuple"
        }
      ],
      "name": "VerificationResultConfirmed",
      "type": "event"
    },
    {
      "anonymous": false,
      "inputs": [
        {
          "indexed": false,
          "internalType": "bytes32",
          "name": "uuid",
          "type": "bytes32"
        }
      ],
      "name": "VerificationRevoked",
      "type": "event"
    },
    {
      "inputs": [
        {
          "internalType": "address",
          "name": "nftaddress",
          "type": "address"
        },
        {
          "internalType": "address",
          "name": "subject",
          "type": "address"
        },
        {
          "internalType": "uint256",
          "name": "tokenID",
          "type": "uint256"
        }
      ],
      "name": "balanceOf",
      "outputs": [
        {
          "internalType": "bool",
          "name": "",
          "type": "bool"
        }
      ],
      "stateMutability": "view",
      "type": "function"
    },
    {
      "inputs": [
        {
          "internalType": "bytes32",
          "name": "uuid",
          "type": "bytes32"
        }
      ],
      "name": "getVerification",
      "outputs": [
        {
          "components": [
            {
              "internalType": "bytes32",
              "name": "uuid",
              "type": "bytes32"
            },
            {
              "internalType": "address",
              "name": "verifier",
              "type": "address"
            },
            {
              "internalType": "address",
              "name": "subject",
              "type": "address"
            },
            {
              "internalType": "uint256",
              "name": "entryTime",
              "type": "uint256"
            },
            {
              "internalType": "uint256",
              "name": "expirationTime",
              "type": "uint256"
            },
            {
              "internalType": "bool",
              "name": "revoked",
              "type": "bool"
            }
          ],
          "internalType": "struct VerificationRecord",
          "name": "",
          "type": "tuple"
        }
      ],
      "stateMutability": "view",
      "type": "function"
    },
    {
      "inputs": [],
      "name": "getVerificationCount",
      "outputs": [
        {
          "internalType": "uint256",
          "name": "",
          "type": "uint256"
        }
      ],
      "stateMutability": "view",
      "type": "function"
    },
    {
      "inputs": [
        {
          "internalType": "address",
          "name": "subject",
          "type": "address"
        }
      ],
      "name": "getVerificationsForSubject",
      "outputs": [
        {
          "components": [
            {
              "internalType": "bytes32",
              "name": "uuid",
              "type": "bytes32"
            },
            {
              "internalType": "address",
              "name": "verifier",
              "type": "address"
            },
            {
              "internalType": "address",
              "name": "subject",
              "type": "address"
            },
            {
              "internalType": "uint256",
              "name": "entryTime",
              "type": "uint256"
            },
            {
              "internalType": "uint256",
              "name": "expirationTime",
              "type": "uint256"
            },
            {
              "internalType": "bool",
              "name": "revoked",
              "type": "bool"
            }
          ],
          "internalType": "struct VerificationRecord[]",
          "name": "",
          "type": "tuple[]"
        }
      ],
      "stateMutability": "view",
      "type": "function"
    },
    {
      "inputs": [
        {
          "internalType": "address",
          "name": "verifier",
          "type": "address"
        }
      ],
      "name": "getVerificationsForVerifier",
      "outputs": [
        {
          "components": [
            {
              "internalType": "bytes32",
              "name": "uuid",
              "type": "bytes32"
            },
            {
              "internalType": "address",
              "name": "verifier",
              "type": "address"
            },
            {
              "internalType": "address",
              "name": "subject",
              "type": "address"
            },
            {
              "internalType": "uint256",
              "name": "entryTime",
              "type": "uint256"
            },
            {
              "internalType": "uint256",
              "name": "expirationTime",
              "type": "uint256"
            },
            {
              "internalType": "bool",
              "name": "revoked",
              "type": "bool"
            }
          ],
          "internalType": "struct VerificationRecord[]",
          "name": "",
          "type": "tuple[]"
        }
      ],
      "stateMutability": "view",
      "type": "function"
    },
    {
      "inputs": [],
      "name": "owner",
      "outputs": [
        {
          "internalType": "address",
          "name": "",
          "type": "address"
        }
      ],
      "stateMutability": "view",
      "type": "function"
    },
    {
      "inputs": [
        {
          "components": [
            {
              "internalType": "string",
              "name": "schema",
              "type": "string"
            },
            {
              "internalType": "address",
              "name": "subject",
              "type": "address"
            },
            {
              "internalType": "uint256",
              "name": "expiration",
              "type": "uint256"
            }
          ],
          "internalType": "struct VerificationResult",
          "name": "verificationResult",
          "type": "tuple"
        },
        {
          "internalType": "bytes",
          "name": "signature",
          "type": "bytes"
        }
      ],
      "name": "registerVerification",
      "outputs": [
        {
          "components": [
            {
              "internalType": "bytes32",
              "name": "uuid",
              "type": "bytes32"
            },
            {
              "internalType": "address",
              "name": "verifier",
              "type": "address"
            },
            {
              "internalType": "address",
              "name": "subject",
              "type": "address"
            },
            {
              "internalType": "uint256",
              "name": "entryTime",
              "type": "uint256"
            },
            {
              "internalType": "uint256",
              "name": "expirationTime",
              "type": "uint256"
            },
            {
              "internalType": "bool",
              "name": "revoked",
              "type": "bool"
            }
          ],
          "internalType": "struct VerificationRecord",
          "name": "",
          "type": "tuple"
        }
      ],
      "stateMutability": "nonpayable",
      "type": "function"
    },
    {
      "inputs": [
        {
          "internalType": "bytes32",
          "name": "uuid",
          "type": "bytes32"
        }
      ],
      "name": "removeVerification",
      "outputs": [],
      "stateMutability": "nonpayable",
      "type": "function"
    },
    {
      "inputs": [],
      "name": "renounceOwnership",
      "outputs": [],
      "stateMutability": "nonpayable",
      "type": "function"
    },
    {
      "inputs": [
        {
          "internalType": "bytes32",
          "name": "uuid",
          "type": "bytes32"
        }
      ],
      "name": "revokeVerification",
      "outputs": [],
      "stateMutability": "nonpayable",
      "type": "function"
    },
    {
      "inputs": [
        {
          "internalType": "address",
          "name": "_verifierRegistryAddress",
          "type": "address"
        }
      ],
      "name": "setVerifierRegistry",
      "outputs": [],
      "stateMutability": "nonpayable",
      "type": "function"
    },
    {
      "inputs": [
        {
          "internalType": "address",
          "name": "newOwner",
          "type": "address"
        }
      ],
      "name": "transferOwnership",
      "outputs": [],
      "stateMutability": "nonpayable",
      "type": "function"
    }
  ],
  "bytecode": "0x6101406040523480156200001257600080fd5b506040518060400160405280601a81526020017f566572696669656443726564656e7469616c52656769737472790000000000008152506040518060400160405280600381526020017f312e3000000000000000000000000000000000000000000000000000000000008152506200009f620000936200015a60201b60201c565b6200016260201b60201c565b60008280519060200120905060008280519060200120905060007f8b73c3c69bb8fe3d512ecc4cf759cc79239f7b179b0ffacaa9a75d522b39400f90508260e081815250508161010081815250504660a08181525050620001088184846200022660201b60201c565b608081815250503073ffffffffffffffffffffffffffffffffffffffff1660c08173ffffffffffffffffffffffffffffffffffffffff1660601b8152505080610120818152505050505050506200033a565b600033905090565b60008060009054906101000a900473ffffffffffffffffffffffffffffffffffffffff169050816000806101000a81548173ffffffffffffffffffffffffffffffffffffffff021916908373ffffffffffffffffffffffffffffffffffffffff1602179055508173ffffffffffffffffffffffffffffffffffffffff168173ffffffffffffffffffffffffffffffffffffffff167f8be0079c531659141344cd1fd0a4f28419497f9722a3daafe3b4186f6b6457e060405160405180910390a35050565b600083838346306040516020016200024395949392919062000295565b6040516020818303038152906040528051906020012090509392505050565b6200026d81620002f2565b82525050565b6200027e8162000306565b82525050565b6200028f8162000330565b82525050565b600060a082019050620002ac600083018862000273565b620002bb602083018762000273565b620002ca604083018662000273565b620002d9606083018562000284565b620002e8608083018462000262565b9695505050505050565b6000620002ff8262000310565b9050919050565b6000819050919050565b600073ffffffffffffffffffffffffffffffffffffffff82169050919050565b6000819050919050565b60805160a05160c05160601c60e0516101005161012051612f976200038d60003960006118b2015260006118f4015260006118d3015260006118080152600061185e015260006118870152612f976000f3fe608060405234801561001057600080fd5b50600436106100b45760003560e01c80638da5cb5b116100715780638da5cb5b1461016557806394ef244014610183578063958c39ff146101b3578063e93119d9146101e3578063ed2ffd2814610213578063f2fde38b14610243576100b4565b80630e9e848f146100b95780631f05b374146100e95780634e4de26d146101075780636e485c171461012357806370eba1241461013f578063715018a61461015b575b600080fd5b6100d360048036038101906100ce9190612068565b61025f565b6040516100e091906126a6565b60405180910390f35b6100f1610599565b6040516100fe9190612956565b60405180910390f35b610121600480360381019061011c9190612132565b6105a3565b005b61013d60048036038101906101389190612068565b6107fb565b005b61015960048036038101906101549190612132565b610847565b005b610163610a3e565b005b61016d610a52565b60405161017a9190612662565b60405180910390f35b61019d60048036038101906101989190612132565b610a7b565b6040516101aa919061293b565b60405180910390f35b6101cd60048036038101906101c8919061215b565b610b8d565b6040516101da919061293b565b60405180910390f35b6101fd60048036038101906101f891906120ba565b610ce0565b60405161020a91906126c8565b60405180910390f35b61022d60048036038101906102289190612068565b610dfe565b60405161023a91906126a6565b60405180910390f35b61025d60048036038101906102589190612068565b611138565b005b6060600073ffffffffffffffffffffffffffffffffffffffff168273ffffffffffffffffffffffffffffffffffffffff1614156102d1576040517f08c379a00000000000000000000000000000000000000000000000000000000081526004016102c89061281b565b60405180910390fd5b6000600460008473ffffffffffffffffffffffffffffffffffffffff1673ffffffffffffffffffffffffffffffffffffffff16815260200190815260200160002080548060200260200160405190810160405280929190818152602001828054801561035c57602002820191906000526020600020905b815481526020019060010190808311610348575b505050505090506000815167ffffffffffffffff8111156103a6577f4e487b7100000000000000000000000000000000000000000000000000000000600052604160045260246000fd5b6040519080825280602002602001820160405280156103df57816020015b6103cc611e3b565b8152602001906001900390816103c45790505b50905060005b825181101561058e5760006002600085848151811061042d577f4e487b7100000000000000000000000000000000000000000000000000000000600052603260045260246000fd5b602002602001015181526020019081526020016000206040518060c0016040529081600082015481526020016001820160009054906101000a900473ffffffffffffffffffffffffffffffffffffffff1673ffffffffffffffffffffffffffffffffffffffff1673ffffffffffffffffffffffffffffffffffffffff1681526020016002820160009054906101000a900473ffffffffffffffffffffffffffffffffffffffff1673ffffffffffffffffffffffffffffffffffffffff1673ffffffffffffffffffffffffffffffffffffffff16815260200160038201548152602001600482015481526020016005820160009054906101000a900460ff16151515158152505090508083838151811061056f577f4e487b7100000000000000000000000000000000000000000000000000000000600052603260045260246000fd5b602002602001018190525050808061058690612aec565b9150506103e5565b508092505050919050565b6000600554905090565b600160009054906101000a900473ffffffffffffffffffffffffffffffffffffffff1673ffffffffffffffffffffffffffffffffffffffff166333105218336040518263ffffffff1660e01b81526004016105fe9190612662565b60206040518083038186803b15801561061657600080fd5b505afa15801561062a573d6000803e3d6000fd5b505050506040513d601f19601f8201168201806040525081019061064e9190612109565b61068d576040517f08c379a00000000000000000000000000000000000000000000000000000000081526004016106849061291b565b60405180910390fd5b3373ffffffffffffffffffffffffffffffffffffffff166002600083815260200190815260200160002060010160009054906101000a900473ffffffffffffffffffffffffffffffffffffffff1673ffffffffffffffffffffffffffffffffffffffff1614610731576040517f08c379a00000000000000000000000000000000000000000000000000000000081526004016107289061289b565b60405180910390fd5b600260008281526020019081526020016000206000808201600090556001820160006101000a81549073ffffffffffffffffffffffffffffffffffffffff02191690556002820160006101000a81549073ffffffffffffffffffffffffffffffffffffffff0219169055600382016000905560048201600090556005820160006101000a81549060ff021916905550507f9abf56d49e4ef717f3418600d3ed66048ca2ed8e3e630a70b76a71dd2142def5816040516107f091906126e3565b60405180910390a150565b6108036111bc565b80600160006101000a81548173ffffffffffffffffffffffffffffffffffffffff021916908373ffffffffffffffffffffffffffffffffffffffff16021790555050565b600160009054906101000a900473ffffffffffffffffffffffffffffffffffffffff1673ffffffffffffffffffffffffffffffffffffffff166333105218336040518263ffffffff1660e01b81526004016108a29190612662565b60206040518083038186803b1580156108ba57600080fd5b505afa1580156108ce573d6000803e3d6000fd5b505050506040513d601f19601f820116820180604052508101906108f29190612109565b610931576040517f08c379a00000000000000000000000000000000000000000000000000000000081526004016109289061291b565b60405180910390fd5b3373ffffffffffffffffffffffffffffffffffffffff166002600083815260200190815260200160002060010160009054906101000a900473ffffffffffffffffffffffffffffffffffffffff1673ffffffffffffffffffffffffffffffffffffffff16146109d5576040517f08c379a00000000000000000000000000000000000000000000000000000000081526004016109cc906128db565b60405180910390fd5b60016002600083815260200190815260200160002060050160006101000a81548160ff0219169083151502179055507f071ad1bb208a373a52e72fe5d8aa7755d658f88e197e666bf1a6d09d0ddb505681604051610a3391906126e3565b60405180910390a150565b610a466111bc565b610a50600061123a565b565b60008060009054906101000a900473ffffffffffffffffffffffffffffffffffffffff16905090565b610a83611e3b565b600260008381526020019081526020016000206040518060c0016040529081600082015481526020016001820160009054906101000a900473ffffffffffffffffffffffffffffffffffffffff1673ffffffffffffffffffffffffffffffffffffffff1673ffffffffffffffffffffffffffffffffffffffff1681526020016002820160009054906101000a900473ffffffffffffffffffffffffffffffffffffffff1673ffffffffffffffffffffffffffffffffffffffff1673ffffffffffffffffffffffffffffffffffffffff16815260200160038201548152602001600482015481526020016005820160009054906101000a900460ff1615151515815250509050919050565b610b95611e3b565b600160009054906101000a900473ffffffffffffffffffffffffffffffffffffffff1673ffffffffffffffffffffffffffffffffffffffff166333105218336040518263ffffffff1660e01b8152600401610bf09190612662565b60206040518083038186803b158015610c0857600080fd5b505afa158015610c1c573d6000803e3d6000fd5b505050506040513d601f19601f82011682018060405250810190610c409190612109565b610c7f576040517f08c379a0000000000000000000000000000000000000000000000000000000008152600401610c769061291b565b60405180910390fd5b610c88836112fe565b6000610c948484611301565b9050610c9f81611593565b7fb13e5e7efcce7bbc67740f0fe050563d4fd1f5cc7096c3a32cb901711c95ab5481604051610cce919061293b565b60405180910390a18091505092915050565b60008073ffffffffffffffffffffffffffffffffffffffff168373ffffffffffffffffffffffffffffffffffffffff161415610d51576040517f08c379a0000000000000000000000000000000000000000000000000000000008152600401610d489061281b565b60405180910390fd5b60008473ffffffffffffffffffffffffffffffffffffffff1662fdd58e85856040518363ffffffff1660e01b8152600401610d8d92919061267d565b60206040518083038186803b158015610da557600080fd5b505afa158015610db9573d6000803e3d6000fd5b505050506040513d601f19601f82011682018060405250810190610ddd91906121c7565b905060008114610df1576001915050610df7565b60009150505b9392505050565b6060600073ffffffffffffffffffffffffffffffffffffffff168273ffffffffffffffffffffffffffffffffffffffff161415610e70576040517f08c379a0000000000000000000000000000000000000000000000000000000008152600401610e679061281b565b60405180910390fd5b6000600360008473ffffffffffffffffffffffffffffffffffffffff1673ffffffffffffffffffffffffffffffffffffffff168152602001908152602001600020805480602002602001604051908101604052809291908181526020018280548015610efb57602002820191906000526020600020905b815481526020019060010190808311610ee7575b505050505090506000815167ffffffffffffffff811115610f45577f4e487b7100000000000000000000000000000000000000000000000000000000600052604160045260246000fd5b604051908082528060200260200182016040528015610f7e57816020015b610f6b611e3b565b815260200190600190039081610f635790505b50905060005b825181101561112d57600060026000858481518110610fcc577f4e487b7100000000000000000000000000000000000000000000000000000000600052603260045260246000fd5b602002602001015181526020019081526020016000206040518060c0016040529081600082015481526020016001820160009054906101000a900473ffffffffffffffffffffffffffffffffffffffff1673ffffffffffffffffffffffffffffffffffffffff1673ffffffffffffffffffffffffffffffffffffffff1681526020016002820160009054906101000a900473ffffffffffffffffffffffffffffffffffffffff1673ffffffffffffffffffffffffffffffffffffffff1673ffffffffffffffffffffffffffffffffffffffff16815260200160038201548152602001600482015481526020016005820160009054906101000a900460ff16151515158152505090508083838151811061110e577f4e487b7100000000000000000000000000000000000000000000000000000000600052603260045260246000fd5b602002602001018190525050808061112590612aec565b915050610f84565b508092505050919050565b6111406111bc565b600073ffffffffffffffffffffffffffffffffffffffff168173ffffffffffffffffffffffffffffffffffffffff1614156111b0576040517f08c379a00000000000000000000000000000000000000000000000000000000081526004016111a79061283b565b60405180910390fd5b6111b98161123a565b50565b6111c4611771565b73ffffffffffffffffffffffffffffffffffffffff166111e2610a52565b73ffffffffffffffffffffffffffffffffffffffff1614611238576040517f08c379a000000000000000000000000000000000000000000000000000000000815260040161122f906128fb565b60405180910390fd5b565b60008060009054906101000a900473ffffffffffffffffffffffffffffffffffffffff169050816000806101000a81548173ffffffffffffffffffffffffffffffffffffffff021916908373ffffffffffffffffffffffffffffffffffffffff1602179055508173ffffffffffffffffffffffffffffffffffffffff168173ffffffffffffffffffffffffffffffffffffffff167f8be0079c531659141344cd1fd0a4f28419497f9722a3daafe3b4186f6b6457e060405160405180910390a35050565b50565b611309611e3b565b60006113737f10f37c780798f8d6ccc5deba550b287b1ccef3a50b9007536dc9ce57c6f066838560000151805190602001208660200151876040015160405160200161135894939291906126fe565b60405160208183030381529060405280519060200120611779565b905060006113818285611793565b90506000600160009054906101000a900473ffffffffffffffffffffffffffffffffffffffff1673ffffffffffffffffffffffffffffffffffffffff166358cfb5ff836040518263ffffffff1660e01b81526004016113e09190612662565b60206040518083038186803b1580156113f857600080fd5b505afa15801561140c573d6000803e3d6000fd5b505050506040513d601f19601f820116820180604052508101906114309190612091565b9050600160009054906101000a900473ffffffffffffffffffffffffffffffffffffffff1673ffffffffffffffffffffffffffffffffffffffff166301aedd94836040518263ffffffff1660e01b815260040161148d9190612662565b60006040518083038186803b1580156114a557600080fd5b505afa1580156114b9573d6000803e3d6000fd5b5050505042866040015111611503576040517f08c379a00000000000000000000000000000000000000000000000000000000081526004016114fa9061287b565b60405180910390fd5b60006040518060c001604052806000801b81526020018373ffffffffffffffffffffffffffffffffffffffff168152602001886020015173ffffffffffffffffffffffffffffffffffffffff168152602001428152602001886040015181526020016000151581525090506000611579826117ba565b905080826000018181525050819550505050505092915050565b600560008154809291906115a690612aec565b91905055508060026000836000015181526020019081526020016000206000820151816000015560208201518160010160006101000a81548173ffffffffffffffffffffffffffffffffffffffff021916908373ffffffffffffffffffffffffffffffffffffffff16021790555060408201518160020160006101000a81548173ffffffffffffffffffffffffffffffffffffffff021916908373ffffffffffffffffffffffffffffffffffffffff160217905550606082015181600301556080820151816004015560a08201518160050160006101000a81548160ff02191690831515021790555090505060036000826040015173ffffffffffffffffffffffffffffffffffffffff1673ffffffffffffffffffffffffffffffffffffffff1681526020019081526020016000208160000151908060018154018082558091505060019003906000526020600020016000909190919091505560046000826020015173ffffffffffffffffffffffffffffffffffffffff1673ffffffffffffffffffffffffffffffffffffffff1681526020019081526020016000208160000151908060018154018082558091505060019003906000526020600020016000909190919091505550565b600033905090565b600061178c611786611804565b8361191e565b9050919050565b60008060006117a28585611951565b915091506117af816119a3565b819250505092915050565b600081602001518260400151836060015184608001516005546040516020016117e79594939291906125cc565b604051602081830303815290604052805190602001209050919050565b60007f000000000000000000000000000000000000000000000000000000000000000073ffffffffffffffffffffffffffffffffffffffff163073ffffffffffffffffffffffffffffffffffffffff1614801561188057507f000000000000000000000000000000000000000000000000000000000000000046145b156118ad577f0000000000000000000000000000000000000000000000000000000000000000905061191b565b6119187f00000000000000000000000000000000000000000000000000000000000000007f00000000000000000000000000000000000000000000000000000000000000007f0000000000000000000000000000000000000000000000000000000000000000611cf4565b90505b90565b6000828260405160200161193392919061262b565b60405160208183030381529060405280519060200120905092915050565b6000806041835114156119935760008060006020860151925060408601519150606086015160001a905061198787828585611d2e565b9450945050505061199c565b60006002915091505b9250929050565b600060048111156119dd577f4e487b7100000000000000000000000000000000000000000000000000000000600052602160045260246000fd5b816004811115611a16577f4e487b7100000000000000000000000000000000000000000000000000000000600052602160045260246000fd5b1415611a2157611cf1565b60016004811115611a5b577f4e487b7100000000000000000000000000000000000000000000000000000000600052602160045260246000fd5b816004811115611a94577f4e487b7100000000000000000000000000000000000000000000000000000000600052602160045260246000fd5b1415611ad5576040517f08c379a0000000000000000000000000000000000000000000000000000000008152600401611acc906127db565b60405180910390fd5b60026004811115611b0f577f4e487b7100000000000000000000000000000000000000000000000000000000600052602160045260246000fd5b816004811115611b48577f4e487b7100000000000000000000000000000000000000000000000000000000600052602160045260246000fd5b1415611b89576040517f08c379a0000000000000000000000000000000000000000000000000000000008152600401611b80906127fb565b60405180910390fd5b60036004811115611bc3577f4e487b7100000000000000000000000000000000000000000000000000000000600052602160045260246000fd5b816004811115611bfc577f4e487b7100000000000000000000000000000000000000000000000000000000600052602160045260246000fd5b1415611c3d576040517f08c379a0000000000000000000000000000000000000000000000000000000008152600401611c349061285b565b60405180910390fd5b600480811115611c76577f4e487b7100000000000000000000000000000000000000000000000000000000600052602160045260246000fd5b816004811115611caf577f4e487b7100000000000000000000000000000000000000000000000000000000600052602160045260246000fd5b1415611cf0576040517f08c379a0000000000000000000000000000000000000000000000000000000008152600401611ce7906128bb565b60405180910390fd5b5b50565b60008383834630604051602001611d0f959493929190612743565b6040516020818303038152906040528051906020012090509392505050565b6000807f7fffffffffffffffffffffffffffffff5d576e7357a4501ddfe92f46681b20a08360001c1115611d69576000600391509150611e32565b601b8560ff1614158015611d815750601c8560ff1614155b15611d93576000600491509150611e32565b600060018787878760405160008152602001604052604051611db89493929190612796565b6020604051602081039080840390855afa158015611dda573d6000803e3d6000fd5b505050602060405103519050600073ffffffffffffffffffffffffffffffffffffffff168173ffffffffffffffffffffffffffffffffffffffff161415611e2957600060019250925050611e32565b80600092509250505b94509492505050565b6040518060c0016040528060008019168152602001600073ffffffffffffffffffffffffffffffffffffffff168152602001600073ffffffffffffffffffffffffffffffffffffffff16815260200160008152602001600081526020016000151581525090565b6000611eb5611eb084612996565b612971565b905082815260208101848484011115611ecd57600080fd5b611ed8848285612aac565b509392505050565b6000611ef3611eee846129c7565b612971565b905082815260208101848484011115611f0b57600080fd5b611f16848285612aac565b509392505050565b600081359050611f2d81612f05565b92915050565b600081519050611f4281612f05565b92915050565b600081519050611f5781612f1c565b92915050565b600081359050611f6c81612f33565b92915050565b600082601f830112611f8357600080fd5b8135611f93848260208601611ea2565b91505092915050565b600082601f830112611fad57600080fd5b8135611fbd848260208601611ee0565b91505092915050565b600060608284031215611fd857600080fd5b611fe26060612971565b9050600082013567ffffffffffffffff811115611ffe57600080fd5b61200a84828501611f9c565b600083015250602061201e84828501611f1e565b60208301525060406120328482850161203e565b60408301525092915050565b60008135905061204d81612f4a565b92915050565b60008151905061206281612f4a565b92915050565b60006020828403121561207a57600080fd5b600061208884828501611f1e565b91505092915050565b6000602082840312156120a357600080fd5b60006120b184828501611f33565b91505092915050565b6000806000606084860312156120cf57600080fd5b60006120dd86828701611f1e565b93505060206120ee86828701611f1e565b92505060406120ff8682870161203e565b9150509250925092565b60006020828403121561211b57600080fd5b600061212984828501611f48565b91505092915050565b60006020828403121561214457600080fd5b600061215284828501611f5d565b91505092915050565b6000806040838503121561216e57600080fd5b600083013567ffffffffffffffff81111561218857600080fd5b61219485828601611fc6565b925050602083013567ffffffffffffffff8111156121b157600080fd5b6121bd85828601611f72565b9150509250929050565b6000602082840312156121d957600080fd5b60006121e784828501612053565b91505092915050565b60006121fc8383612492565b60c08301905092915050565b61221181612a4d565b82525050565b61222081612a4d565b82525050565b61223761223282612a4d565b612b35565b82525050565b600061224882612a08565b6122528185612a20565b935061225d836129f8565b8060005b8381101561228e57815161227588826121f0565b975061228083612a13565b925050600181019050612261565b5085935050505092915050565b6122a481612a5f565b82525050565b6122b381612a5f565b82525050565b6122c281612a6b565b82525050565b6122d181612a6b565b82525050565b6122e86122e382612a6b565b612b47565b82525050565b60006122fb601883612a31565b915061230682612be9565b602082019050919050565b600061231e601f83612a31565b915061232982612c12565b602082019050919050565b6000612341602b83612a31565b915061234c82612c3b565b604082019050919050565b6000612364602683612a31565b915061236f82612c8a565b604082019050919050565b6000612387600283612a42565b915061239282612cd9565b600282019050919050565b60006123aa602283612a31565b91506123b582612d02565b604082019050919050565b60006123cd603d83612a31565b91506123d882612d51565b604082019050919050565b60006123f0604f83612a31565b91506123fb82612da0565b606082019050919050565b6000612413602283612a31565b915061241e82612e15565b604082019050919050565b6000612436603f83612a31565b915061244182612e64565b604082019050919050565b6000612459602083612a31565b915061246482612eb3565b602082019050919050565b600061247c600e83612a31565b915061248782612edc565b602082019050919050565b60c0820160008201516124a860008501826122b9565b5060208201516124bb6020850182612208565b5060408201516124ce6040850182612208565b5060608201516124e16060850182612588565b5060808201516124f46080850182612588565b5060a082015161250760a085018261229b565b50505050565b60c08201600082015161252360008501826122b9565b5060208201516125366020850182612208565b5060408201516125496040850182612208565b50606082015161255c6060850182612588565b50608082015161256f6080850182612588565b5060a082015161258260a085018261229b565b50505050565b61259181612a95565b82525050565b6125a081612a95565b82525050565b6125b76125b282612a95565b612b63565b82525050565b6125c681612a9f565b82525050565b60006125d88288612226565b6014820191506125e88287612226565b6014820191506125f882866125a6565b60208201915061260882856125a6565b60208201915061261882846125a6565b6020820191508190509695505050505050565b60006126368261237a565b915061264282856122d7565b60208201915061265282846122d7565b6020820191508190509392505050565b60006020820190506126776000830184612217565b92915050565b60006040820190506126926000830185612217565b61269f6020830184612597565b9392505050565b600060208201905081810360008301526126c0818461223d565b905092915050565b60006020820190506126dd60008301846122aa565b92915050565b60006020820190506126f860008301846122c8565b92915050565b600060808201905061271360008301876122c8565b61272060208301866122c8565b61272d6040830185612217565b61273a6060830184612597565b95945050505050565b600060a08201905061275860008301886122c8565b61276560208301876122c8565b61277260408301866122c8565b61277f6060830185612597565b61278c6080830184612217565b9695505050505050565b60006080820190506127ab60008301876122c8565b6127b860208301866125bd565b6127c560408301856122c8565b6127d260608301846122c8565b95945050505050565b600060208201905081810360008301526127f4816122ee565b9050919050565b6000602082019050818103600083015261281481612311565b9050919050565b6000602082019050818103600083015261283481612334565b9050919050565b6000602082019050818103600083015261285481612357565b9050919050565b600060208201905081810360008301526128748161239d565b9050919050565b60006020820190508181036000830152612894816123c0565b9050919050565b600060208201905081810360008301526128b4816123e3565b9050919050565b600060208201905081810360008301526128d481612406565b9050919050565b600060208201905081810360008301526128f481612429565b9050919050565b600060208201905081810360008301526129148161244c565b9050919050565b600060208201905081810360008301526129348161246f565b9050919050565b600060c082019050612950600083018461250d565b92915050565b600060208201905061296b6000830184612597565b92915050565b600061297b61298c565b90506129878282612abb565b919050565b6000604051905090565b600067ffffffffffffffff8211156129b1576129b0612b9c565b5b6129ba82612bcb565b9050602081019050919050565b600067ffffffffffffffff8211156129e2576129e1612b9c565b5b6129eb82612bcb565b9050602081019050919050565b6000819050602082019050919050565b600081519050919050565b6000602082019050919050565b600082825260208201905092915050565b600082825260208201905092915050565b600081905092915050565b6000612a5882612a75565b9050919050565b60008115159050919050565b6000819050919050565b600073ffffffffffffffffffffffffffffffffffffffff82169050919050565b6000819050919050565b600060ff82169050919050565b82818337600083830152505050565b612ac482612bcb565b810181811067ffffffffffffffff82111715612ae357612ae2612b9c565b5b80604052505050565b6000612af782612a95565b91507fffffffffffffffffffffffffffffffffffffffffffffffffffffffffffffffff821415612b2a57612b29612b6d565b5b600182019050919050565b6000612b4082612b51565b9050919050565b6000819050919050565b6000612b5c82612bdc565b9050919050565b6000819050919050565b7f4e487b7100000000000000000000000000000000000000000000000000000000600052601160045260246000fd5b7f4e487b7100000000000000000000000000000000000000000000000000000000600052604160045260246000fd5b6000601f19601f8301169050919050565b60008160601b9050919050565b7f45434453413a20696e76616c6964207369676e61747572650000000000000000600082015250565b7f45434453413a20696e76616c6964207369676e6174757265206c656e67746800600082015250565b7f566572696669656443726564656e7469616c52656769737472793a20496e766160008201527f6c69642061646472657373000000000000000000000000000000000000000000602082015250565b7f4f776e61626c653a206e6577206f776e657220697320746865207a65726f206160008201527f6464726573730000000000000000000000000000000000000000000000000000602082015250565b7f1901000000000000000000000000000000000000000000000000000000000000600082015250565b7f45434453413a20696e76616c6964207369676e6174757265202773272076616c60008201527f7565000000000000000000000000000000000000000000000000000000000000602082015250565b7f566572696669656443726564656e7469616c52656769737472793a205665726960008201527f6669636174696f6e20636f6e6669726d6174696f6e2065787069726564000000602082015250565b7f566572696669656443726564656e7469616c52656769737472793a2043616c6c60008201527f6572206973206e6f7420746865207665726966696572206f662074686520726560208201527f666572656e636564207265636f72640000000000000000000000000000000000604082015250565b7f45434453413a20696e76616c6964207369676e6174757265202776272076616c60008201527f7565000000000000000000000000000000000000000000000000000000000000602082015250565b7f566572696669656443726564656e7469616c52656769737472793a2043616c6c60008201527f6572206973206e6f7420746865206f726967696e616c20766572696669657200602082015250565b7f4f776e61626c653a2063616c6c6572206973206e6f7420746865206f776e6572600082015250565b7f4e6f742061207665726966696572000000000000000000000000000000000000600082015250565b612f0e81612a4d565b8114612f1957600080fd5b50565b612f2581612a5f565b8114612f3057600080fd5b50565b612f3c81612a6b565b8114612f4757600080fd5b50565b612f5381612a95565b8114612f5e57600080fd5b5056fea26469706673582212208e73471fe072801a03dd22ff5ceabb7bcc73055ec0f3984bd2cc43cbc5e975f064736f6c63430008040033",
  "linkReferences": {},
  "deployedLinkReferences": {}
}